{
	"contracts/solidright.sol": {
		"solidRight": {
			"abi": [
				{
					"anonymous": false,
					"inputs": [
						{
							"indexed": true,
							"internalType": "address",
							"name": "_owner",
							"type": "address"
						},
						{
							"indexed": true,
							"internalType": "address",
							"name": "_approved",
							"type": "address"
						},
						{
							"indexed": true,
							"internalType": "uint256",
							"name": "_tokenId",
							"type": "uint256"
						}
					],
					"name": "Approval",
					"type": "event"
				},
				{
					"anonymous": false,
					"inputs": [
						{
							"indexed": true,
							"internalType": "address",
							"name": "previousOwner",
							"type": "address"
						},
						{
							"indexed": true,
							"internalType": "address",
							"name": "newOwner",
							"type": "address"
						}
					],
					"name": "OwnershipTransferred",
					"type": "event"
				},
				{
					"anonymous": false,
					"inputs": [
						{
							"indexed": true,
							"internalType": "address",
							"name": "_from",
							"type": "address"
						},
						{
							"indexed": true,
							"internalType": "address",
							"name": "_to",
							"type": "address"
						},
						{
							"indexed": true,
							"internalType": "uint256",
							"name": "_tokenId",
							"type": "uint256"
						}
					],
					"name": "Transfer",
					"type": "event"
				},
				{
					"anonymous": false,
					"inputs": [
						{
							"indexed": false,
							"internalType": "uint256",
							"name": "id",
							"type": "uint256"
						},
						{
							"indexed": false,
							"internalType": "string",
							"name": "name",
							"type": "string"
						}
					],
					"name": "newArtworkCreated",
					"type": "event"
				},
				{
					"inputs": [
						{
							"internalType": "address",
							"name": "_approved",
							"type": "address"
						},
						{
							"internalType": "uint256",
							"name": "_tokenId",
							"type": "uint256"
						}
					],
					"name": "approve",
					"outputs": [],
					"stateMutability": "payable",
					"type": "function"
				},
				{
					"inputs": [
						{
							"internalType": "uint256",
							"name": "",
							"type": "uint256"
						}
					],
					"name": "artworks",
					"outputs": [
						{
							"internalType": "string",
							"name": "name",
							"type": "string"
						},
						{
							"internalType": "uint256",
							"name": "price",
							"type": "uint256"
						}
					],
					"stateMutability": "view",
					"type": "function"
				},
				{
					"inputs": [
						{
							"internalType": "address",
							"name": "_owner",
							"type": "address"
						}
					],
					"name": "balanceOf",
					"outputs": [
						{
							"internalType": "uint256",
							"name": "",
							"type": "uint256"
						}
					],
					"stateMutability": "view",
					"type": "function"
				},
				{
					"inputs": [
						{
							"internalType": "uint256",
							"name": "_artworkId",
							"type": "uint256"
						},
						{
							"internalType": "string",
							"name": "_newName",
							"type": "string"
						}
					],
					"name": "changeNameArtwork",
					"outputs": [],
					"stateMutability": "nonpayable",
					"type": "function"
				},
				{
					"inputs": [
						{
							"internalType": "uint256",
							"name": "_artworkId",
							"type": "uint256"
						},
						{
							"internalType": "uint256",
							"name": "_newPrice",
							"type": "uint256"
						}
					],
					"name": "changeNamePrice",
					"outputs": [],
					"stateMutability": "nonpayable",
					"type": "function"
				},
				{
					"inputs": [
						{
							"internalType": "string",
							"name": "_name",
							"type": "string"
						},
						{
							"internalType": "uint256",
							"name": "_price",
							"type": "uint256"
						},
						{
							"internalType": "bytes32[]",
							"name": "_fileHashes",
							"type": "bytes32[]"
						}
					],
					"name": "createArtwork",
					"outputs": [],
					"stateMutability": "nonpayable",
					"type": "function"
				},
				{
					"inputs": [
						{
							"internalType": "address",
							"name": "_artworkOwner",
							"type": "address"
						}
					],
					"name": "listArtworksByOwner",
					"outputs": [
						{
							"internalType": "uint256[]",
							"name": "",
							"type": "uint256[]"
						}
					],
					"stateMutability": "view",
					"type": "function"
				},
				{
					"inputs": [],
					"name": "owner",
					"outputs": [
						{
							"internalType": "address",
							"name": "",
							"type": "address"
						}
					],
					"stateMutability": "view",
					"type": "function"
				},
				{
					"inputs": [
						{
							"internalType": "uint256",
							"name": "_tokenId",
							"type": "uint256"
						}
					],
					"name": "ownerOf",
					"outputs": [
						{
							"internalType": "address",
							"name": "",
							"type": "address"
						}
					],
					"stateMutability": "view",
					"type": "function"
				},
				{
					"inputs": [],
					"name": "renounceOwnership",
					"outputs": [],
					"stateMutability": "nonpayable",
					"type": "function"
				},
				{
					"inputs": [
						{
							"internalType": "address",
							"name": "_from",
							"type": "address"
						},
						{
							"internalType": "address",
							"name": "_to",
							"type": "address"
						},
						{
							"internalType": "uint256",
							"name": "_tokenId",
							"type": "uint256"
						}
					],
					"name": "transferFrom",
					"outputs": [],
					"stateMutability": "payable",
					"type": "function"
				},
				{
					"inputs": [
						{
							"internalType": "address",
							"name": "newOwner",
							"type": "address"
						}
					],
					"name": "transferOwnership",
					"outputs": [],
					"stateMutability": "nonpayable",
					"type": "function"
				}
			],
			"devdoc": {
				"kind": "dev",
				"methods": {
					"owner()": {
						"details": "Returns the address of the current owner."
					},
					"renounceOwnership()": {
						"details": "Leaves the contract without owner. It will not be possible to call `onlyOwner` functions anymore. Can only be called by the current owner. NOTE: Renouncing ownership will leave the contract without an owner, thereby removing any functionality that is only available to the owner."
					},
					"transferOwnership(address)": {
						"details": "Transfers ownership of the contract to a new account (`newOwner`). Can only be called by the current owner."
					}
				},
				"version": 1
			},
			"evm": {
				"assembly": "    /* \"contracts/solidright.sol\":324:3101  contract solidRight is Ownable, ERC721{... */\n  mstore(0x40, 0x80)\n  callvalue\n  dup1\n  iszero\n  tag_1\n  jumpi\n  0x00\n  dup1\n  revert\ntag_1:\n  pop\n    /* \"https://github.com/OpenZeppelin/openzeppelin-contracts/blob/master/contracts/access/Ownable.sol\":921:953  _transferOwnership(_msgSender()) */\n  tag_4\n    /* \"https://github.com/OpenZeppelin/openzeppelin-contracts/blob/master/contracts/access/Ownable.sol\":940:952  _msgSender() */\n  tag_5\n    /* \"https://github.com/OpenZeppelin/openzeppelin-contracts/blob/master/contracts/access/Ownable.sol\":940:950  _msgSender */\n  shl(0x20, tag_6)\n    /* \"https://github.com/OpenZeppelin/openzeppelin-contracts/blob/master/contracts/access/Ownable.sol\":940:952  _msgSender() */\n  0x20\n  shr\n  jump\t// in\ntag_5:\n    /* \"https://github.com/OpenZeppelin/openzeppelin-contracts/blob/master/contracts/access/Ownable.sol\":921:939  _transferOwnership */\n  shl(0x20, tag_7)\n    /* \"https://github.com/OpenZeppelin/openzeppelin-contracts/blob/master/contracts/access/Ownable.sol\":921:953  _transferOwnership(_msgSender()) */\n  0x20\n  shr\n  jump\t// in\ntag_4:\n    /* \"contracts/solidright.sol\":324:3101  contract solidRight is Ownable, ERC721{... */\n  jump(tag_8)\n    /* \"https://github.com/OpenZeppelin/openzeppelin-contracts/blob/master/contracts/utils/Context.sol\":640:736  function _msgSender() internal view virtual returns (address) {... */\ntag_6:\n    /* \"https://github.com/OpenZeppelin/openzeppelin-contracts/blob/master/contracts/utils/Context.sol\":693:700  address */\n  0x00\n    /* \"https://github.com/OpenZeppelin/openzeppelin-contracts/blob/master/contracts/utils/Context.sol\":719:729  msg.sender */\n  caller\n    /* \"https://github.com/OpenZeppelin/openzeppelin-contracts/blob/master/contracts/utils/Context.sol\":712:729  return msg.sender */\n  swap1\n  pop\n    /* \"https://github.com/OpenZeppelin/openzeppelin-contracts/blob/master/contracts/utils/Context.sol\":640:736  function _msgSender() internal view virtual returns (address) {... */\n  swap1\n  jump\t// out\n    /* \"https://github.com/OpenZeppelin/openzeppelin-contracts/blob/master/contracts/access/Ownable.sol\":2270:2457  function _transferOwnership(address newOwner) internal virtual {... */\ntag_7:\n    /* \"https://github.com/OpenZeppelin/openzeppelin-contracts/blob/master/contracts/access/Ownable.sol\":2343:2359  address oldOwner */\n  0x00\n    /* \"https://github.com/OpenZeppelin/openzeppelin-contracts/blob/master/contracts/access/Ownable.sol\":2362:2368  _owner */\n  dup1\n  0x00\n  swap1\n  sload\n  swap1\n  0x0100\n  exp\n  swap1\n  div\n  0xffffffffffffffffffffffffffffffffffffffff\n  and\n    /* \"https://github.com/OpenZeppelin/openzeppelin-contracts/blob/master/contracts/access/Ownable.sol\":2343:2368  address oldOwner = _owner */\n  swap1\n  pop\n    /* \"https://github.com/OpenZeppelin/openzeppelin-contracts/blob/master/contracts/access/Ownable.sol\":2387:2395  newOwner */\n  dup2\n    /* \"https://github.com/OpenZeppelin/openzeppelin-contracts/blob/master/contracts/access/Ownable.sol\":2378:2384  _owner */\n  0x00\n  dup1\n    /* \"https://github.com/OpenZeppelin/openzeppelin-contracts/blob/master/contracts/access/Ownable.sol\":2378:2395  _owner = newOwner */\n  0x0100\n  exp\n  dup2\n  sload\n  dup2\n  0xffffffffffffffffffffffffffffffffffffffff\n  mul\n  not\n  and\n  swap1\n  dup4\n  0xffffffffffffffffffffffffffffffffffffffff\n  and\n  mul\n  or\n  swap1\n  sstore\n  pop\n    /* \"https://github.com/OpenZeppelin/openzeppelin-contracts/blob/master/contracts/access/Ownable.sol\":2441:2449  newOwner */\n  dup2\n    /* \"https://github.com/OpenZeppelin/openzeppelin-contracts/blob/master/contracts/access/Ownable.sol\":2410:2450  OwnershipTransferred(oldOwner, newOwner) */\n  0xffffffffffffffffffffffffffffffffffffffff\n  and\n    /* \"https://github.com/OpenZeppelin/openzeppelin-contracts/blob/master/contracts/access/Ownable.sol\":2431:2439  oldOwner */\n  dup2\n    /* \"https://github.com/OpenZeppelin/openzeppelin-contracts/blob/master/contracts/access/Ownable.sol\":2410:2450  OwnershipTransferred(oldOwner, newOwner) */\n  0xffffffffffffffffffffffffffffffffffffffff\n  and\n  0x8be0079c531659141344cd1fd0a4f28419497f9722a3daafe3b4186f6b6457e0\n  mload(0x40)\n  mload(0x40)\n  dup1\n  swap2\n  sub\n  swap1\n  log3\n    /* \"https://github.com/OpenZeppelin/openzeppelin-contracts/blob/master/contracts/access/Ownable.sol\":2333:2457  {... */\n  pop\n    /* \"https://github.com/OpenZeppelin/openzeppelin-contracts/blob/master/contracts/access/Ownable.sol\":2270:2457  function _transferOwnership(address newOwner) internal virtual {... */\n  pop\n  jump\t// out\n    /* \"contracts/solidright.sol\":324:3101  contract solidRight is Ownable, ERC721{... */\ntag_8:\n  dataSize(sub_0)\n  dup1\n  dataOffset(sub_0)\n  0x00\n  codecopy\n  0x00\n  return\nstop\n\nsub_0: assembly {\n        /* \"contracts/solidright.sol\":324:3101  contract solidRight is Ownable, ERC721{... */\n      mstore(0x40, 0x80)\n      jumpi(tag_1, lt(calldatasize, 0x04))\n      shr(0xe0, calldataload(0x00))\n      dup1\n      0x715018a6\n      gt\n      tag_14\n      jumpi\n      dup1\n      0x715018a6\n      eq\n      tag_8\n      jumpi\n      dup1\n      0x8da5cb5b\n      eq\n      tag_9\n      jumpi\n      dup1\n      0x970ad328\n      eq\n      tag_10\n      jumpi\n      dup1\n      0xacf37886\n      eq\n      tag_11\n      jumpi\n      dup1\n      0xf2fde38b\n      eq\n      tag_12\n      jumpi\n      dup1\n      0xf70ff880\n      eq\n      tag_13\n      jumpi\n      jump(tag_1)\n    tag_14:\n      dup1\n      0x5e9046\n      eq\n      tag_2\n      jumpi\n      dup1\n      0x095ea7b3\n      eq\n      tag_3\n      jumpi\n      dup1\n      0x23b872dd\n      eq\n      tag_4\n      jumpi\n      dup1\n      0x4b602673\n      eq\n      tag_5\n      jumpi\n      dup1\n      0x6352211e\n      eq\n      tag_6\n      jumpi\n      dup1\n      0x70a08231\n      eq\n      tag_7\n      jumpi\n    tag_1:\n      0x00\n      dup1\n      revert\n        /* \"contracts/solidright.sol\":1782:2213  function listArtworksByOwner(address _artworkOwner) external view returns(uint[] memory) {... */\n    tag_2:\n      callvalue\n      dup1\n      iszero\n      tag_15\n      jumpi\n      0x00\n      dup1\n      revert\n    tag_15:\n      pop\n      tag_16\n      0x04\n      dup1\n      calldatasize\n      sub\n      dup2\n      add\n      swap1\n      tag_17\n      swap2\n      swap1\n      tag_18\n      jump\t// in\n    tag_17:\n      tag_19\n      jump\t// in\n    tag_16:\n      mload(0x40)\n      tag_20\n      swap2\n      swap1\n      tag_21\n      jump\t// in\n    tag_20:\n      mload(0x40)\n      dup1\n      swap2\n      sub\n      swap1\n      return\n        /* \"contracts/solidright.sol\":3017:3099  function approve(address _approved, uint256 _tokenId) external payable override {} */\n    tag_3:\n      tag_22\n      0x04\n      dup1\n      calldatasize\n      sub\n      dup2\n      add\n      swap1\n      tag_23\n      swap2\n      swap1\n      tag_24\n      jump\t// in\n    tag_23:\n      tag_25\n      jump\t// in\n    tag_22:\n      stop\n        /* \"contracts/solidright.sol\":2479:2720  function transferFrom(address _from, address _to, uint256 _tokenId) external payable override {... */\n    tag_4:\n      tag_26\n      0x04\n      dup1\n      calldatasize\n      sub\n      dup2\n      add\n      swap1\n      tag_27\n      swap2\n      swap1\n      tag_28\n      jump\t// in\n    tag_27:\n      tag_29\n      jump\t// in\n    tag_26:\n      stop\n        /* \"contracts/solidright.sol\":521:546  Artwork[] public artworks */\n    tag_5:\n      callvalue\n      dup1\n      iszero\n      tag_30\n      jumpi\n      0x00\n      dup1\n      revert\n    tag_30:\n      pop\n      tag_31\n      0x04\n      dup1\n      calldatasize\n      sub\n      dup2\n      add\n      swap1\n      tag_32\n      swap2\n      swap1\n      tag_33\n      jump\t// in\n    tag_32:\n      tag_34\n      jump\t// in\n    tag_31:\n      mload(0x40)\n      tag_35\n      swap3\n      swap2\n      swap1\n      tag_36\n      jump\t// in\n    tag_35:\n      mload(0x40)\n      dup1\n      swap2\n      sub\n      swap1\n      return\n        /* \"contracts/solidright.sol\":2347:2473  function ownerOf(uint256 _tokenId) external view override returns (address) {... */\n    tag_6:\n      callvalue\n      dup1\n      iszero\n      tag_37\n      jumpi\n      0x00\n      dup1\n      revert\n    tag_37:\n      pop\n      tag_38\n      0x04\n      dup1\n      calldatasize\n      sub\n      dup2\n      add\n      swap1\n      tag_39\n      swap2\n      swap1\n      tag_33\n      jump\t// in\n    tag_39:\n      tag_40\n      jump\t// in\n    tag_38:\n      mload(0x40)\n      tag_41\n      swap2\n      swap1\n      tag_42\n      jump\t// in\n    tag_41:\n      mload(0x40)\n      dup1\n      swap2\n      sub\n      swap1\n      return\n        /* \"contracts/solidright.sol\":2219:2341  function balanceOf(address _owner) external view override returns (uint256) {... */\n    tag_7:\n      callvalue\n      dup1\n      iszero\n      tag_43\n      jumpi\n      0x00\n      dup1\n      revert\n    tag_43:\n      pop\n      tag_44\n      0x04\n      dup1\n      calldatasize\n      sub\n      dup2\n      add\n      swap1\n      tag_45\n      swap2\n      swap1\n      tag_18\n      jump\t// in\n    tag_45:\n      tag_46\n      jump\t// in\n    tag_44:\n      mload(0x40)\n      tag_47\n      swap2\n      swap1\n      tag_48\n      jump\t// in\n    tag_47:\n      mload(0x40)\n      dup1\n      swap2\n      sub\n      swap1\n      return\n        /* \"https://github.com/OpenZeppelin/openzeppelin-contracts/blob/master/contracts/access/Ownable.sol\":1668:1769  function renounceOwnership() public virtual onlyOwner {... */\n    tag_8:\n      callvalue\n      dup1\n      iszero\n      tag_49\n      jumpi\n      0x00\n      dup1\n      revert\n    tag_49:\n      pop\n      tag_50\n      tag_51\n      jump\t// in\n    tag_50:\n      stop\n        /* \"https://github.com/OpenZeppelin/openzeppelin-contracts/blob/master/contracts/access/Ownable.sol\":1036:1121  function owner() public view virtual returns (address) {... */\n    tag_9:\n      callvalue\n      dup1\n      iszero\n      tag_52\n      jumpi\n      0x00\n      dup1\n      revert\n    tag_52:\n      pop\n      tag_53\n      tag_54\n      jump\t// in\n    tag_53:\n      mload(0x40)\n      tag_55\n      swap2\n      swap1\n      tag_42\n      jump\t// in\n    tag_55:\n      mload(0x40)\n      dup1\n      swap2\n      sub\n      swap1\n      return\n        /* \"contracts/solidright.sol\":928:1455  function createArtwork(string memory _name, uint256 _price, bytes32[] memory _fileHashes) external {... */\n    tag_10:\n      callvalue\n      dup1\n      iszero\n      tag_56\n      jumpi\n      0x00\n      dup1\n      revert\n    tag_56:\n      pop\n      tag_57\n      0x04\n      dup1\n      calldatasize\n      sub\n      dup2\n      add\n      swap1\n      tag_58\n      swap2\n      swap1\n      tag_59\n      jump\t// in\n    tag_58:\n      tag_60\n      jump\t// in\n    tag_57:\n      stop\n        /* \"contracts/solidright.sol\":1461:1618  function changeNameArtwork(uint _artworkId, string memory _newName) public onlyArtworkOwner(_artworkId) {... */\n    tag_11:\n      callvalue\n      dup1\n      iszero\n      tag_61\n      jumpi\n      0x00\n      dup1\n      revert\n    tag_61:\n      pop\n      tag_62\n      0x04\n      dup1\n      calldatasize\n      sub\n      dup2\n      add\n      swap1\n      tag_63\n      swap2\n      swap1\n      tag_64\n      jump\t// in\n    tag_63:\n      tag_65\n      jump\t// in\n    tag_62:\n      stop\n        /* \"https://github.com/OpenZeppelin/openzeppelin-contracts/blob/master/contracts/access/Ownable.sol\":1918:2116  function transferOwnership(address newOwner) public virtual onlyOwner {... */\n    tag_12:\n      callvalue\n      dup1\n      iszero\n      tag_66\n      jumpi\n      0x00\n      dup1\n      revert\n    tag_66:\n      pop\n      tag_67\n      0x04\n      dup1\n      calldatasize\n      sub\n      dup2\n      add\n      swap1\n      tag_68\n      swap2\n      swap1\n      tag_18\n      jump\t// in\n    tag_68:\n      tag_69\n      jump\t// in\n    tag_67:\n      stop\n        /* \"contracts/solidright.sol\":1624:1776  function changeNamePrice(uint _artworkId, uint256 _newPrice) public onlyArtworkOwner(_artworkId) {... */\n    tag_13:\n      callvalue\n      dup1\n      iszero\n      tag_70\n      jumpi\n      0x00\n      dup1\n      revert\n    tag_70:\n      pop\n      tag_71\n      0x04\n      dup1\n      calldatasize\n      sub\n      dup2\n      add\n      swap1\n      tag_72\n      swap2\n      swap1\n      tag_73\n      jump\t// in\n    tag_72:\n      tag_74\n      jump\t// in\n    tag_71:\n      stop\n        /* \"contracts/solidright.sol\":1782:2213  function listArtworksByOwner(address _artworkOwner) external view returns(uint[] memory) {... */\n    tag_19:\n        /* \"contracts/solidright.sol\":1856:1869  uint[] memory */\n      0x60\n        /* \"contracts/solidright.sol\":1881:1901  uint[] memory result */\n      0x00\n        /* \"contracts/solidright.sol\":1915:1929  artworkCounter */\n      0x03\n        /* \"contracts/solidright.sol\":1915:1944  artworkCounter[_artworkOwner] */\n      0x00\n        /* \"contracts/solidright.sol\":1930:1943  _artworkOwner */\n      dup5\n        /* \"contracts/solidright.sol\":1915:1944  artworkCounter[_artworkOwner] */\n      0xffffffffffffffffffffffffffffffffffffffff\n      and\n      0xffffffffffffffffffffffffffffffffffffffff\n      and\n      dup2\n      mstore\n      0x20\n      add\n      swap1\n      dup2\n      mstore\n      0x20\n      add\n      0x00\n      keccak256\n      sload\n        /* \"contracts/solidright.sol\":1904:1945  new uint[](artworkCounter[_artworkOwner]) */\n      0xffffffffffffffff\n      dup2\n      gt\n      iszero\n      tag_76\n      jumpi\n      tag_77\n      tag_78\n      jump\t// in\n    tag_77:\n    tag_76:\n      mload(0x40)\n      swap1\n      dup1\n      dup3\n      mstore\n      dup1\n      0x20\n      mul\n      0x20\n      add\n      dup3\n      add\n      0x40\n      mstore\n      dup1\n      iszero\n      tag_79\n      jumpi\n      dup2\n      0x20\n      add\n      0x20\n      dup3\n      mul\n      dup1\n      calldatasize\n      dup4\n      calldatacopy\n      dup1\n      dup3\n      add\n      swap2\n      pop\n      pop\n      swap1\n      pop\n    tag_79:\n      pop\n        /* \"contracts/solidright.sol\":1881:1945  uint[] memory result = new uint[](artworkCounter[_artworkOwner]) */\n      swap1\n      pop\n        /* \"contracts/solidright.sol\":1955:1967  uint counter */\n      0x00\n        /* \"contracts/solidright.sol\":1986:1992  uint i */\n      dup1\n        /* \"contracts/solidright.sol\":1981:2184  for (uint i = 0; i < artworks.length; i++) {... */\n    tag_80:\n        /* \"contracts/solidright.sol\":2002:2010  artworks */\n      0x01\n        /* \"contracts/solidright.sol\":2002:2017  artworks.length */\n      dup1\n      sload\n      swap1\n      pop\n        /* \"contracts/solidright.sol\":1998:1999  i */\n      dup2\n        /* \"contracts/solidright.sol\":1998:2017  i < artworks.length */\n      lt\n        /* \"contracts/solidright.sol\":1981:2184  for (uint i = 0; i < artworks.length; i++) {... */\n      iszero\n      tag_81\n      jumpi\n        /* \"contracts/solidright.sol\":2065:2078  _artworkOwner */\n      dup5\n        /* \"contracts/solidright.sol\":2042:2078  artworkOwnership[i] == _artworkOwner */\n      0xffffffffffffffffffffffffffffffffffffffff\n      and\n        /* \"contracts/solidright.sol\":2042:2058  artworkOwnership */\n      0x02\n        /* \"contracts/solidright.sol\":2042:2061  artworkOwnership[i] */\n      0x00\n        /* \"contracts/solidright.sol\":2059:2060  i */\n      dup4\n        /* \"contracts/solidright.sol\":2042:2061  artworkOwnership[i] */\n      dup2\n      mstore\n      0x20\n      add\n      swap1\n      dup2\n      mstore\n      0x20\n      add\n      0x00\n      keccak256\n      0x00\n      swap1\n      sload\n      swap1\n      0x0100\n      exp\n      swap1\n      div\n      0xffffffffffffffffffffffffffffffffffffffff\n      and\n        /* \"contracts/solidright.sol\":2042:2078  artworkOwnership[i] == _artworkOwner */\n      0xffffffffffffffffffffffffffffffffffffffff\n      and\n      eq\n        /* \"contracts/solidright.sol\":2038:2174  if (artworkOwnership[i] == _artworkOwner) {... */\n      iszero\n      tag_83\n      jumpi\n        /* \"contracts/solidright.sol\":2116:2117  i */\n      dup1\n        /* \"contracts/solidright.sol\":2098:2104  result */\n      dup4\n        /* \"contracts/solidright.sol\":2105:2112  counter */\n      dup4\n        /* \"contracts/solidright.sol\":2098:2113  result[counter] */\n      dup2\n      mload\n      dup2\n      lt\n      tag_84\n      jumpi\n      tag_85\n      tag_86\n      jump\t// in\n    tag_85:\n    tag_84:\n      0x20\n      mul\n      0x20\n      add\n      add\n        /* \"contracts/solidright.sol\":2098:2117  result[counter] = i */\n      dup2\n      dup2\n      mstore\n      pop\n      pop\n        /* \"contracts/solidright.sol\":2145:2159  counter.add(1) */\n      tag_87\n        /* \"contracts/solidright.sol\":2157:2158  1 */\n      0x01\n        /* \"contracts/solidright.sol\":2145:2152  counter */\n      dup4\n        /* \"contracts/solidright.sol\":2145:2156  counter.add */\n      tag_88\n      swap1\n        /* \"contracts/solidright.sol\":2145:2159  counter.add(1) */\n      swap2\n      swap1\n      0xffffffff\n      and\n      jump\t// in\n    tag_87:\n        /* \"contracts/solidright.sol\":2135:2159  counter = counter.add(1) */\n      swap2\n      pop\n        /* \"contracts/solidright.sol\":2038:2174  if (artworkOwnership[i] == _artworkOwner) {... */\n    tag_83:\n        /* \"contracts/solidright.sol\":2019:2022  i++ */\n      dup1\n      dup1\n      tag_89\n      swap1\n      tag_90\n      jump\t// in\n    tag_89:\n      swap2\n      pop\n      pop\n        /* \"contracts/solidright.sol\":1981:2184  for (uint i = 0; i < artworks.length; i++) {... */\n      jump(tag_80)\n    tag_81:\n      pop\n        /* \"contracts/solidright.sol\":2200:2206  result */\n      dup2\n        /* \"contracts/solidright.sol\":2193:2206  return result */\n      swap3\n      pop\n      pop\n      pop\n        /* \"contracts/solidright.sol\":1782:2213  function listArtworksByOwner(address _artworkOwner) external view returns(uint[] memory) {... */\n      swap2\n      swap1\n      pop\n      jump\t// out\n        /* \"contracts/solidright.sol\":3017:3099  function approve(address _approved, uint256 _tokenId) external payable override {} */\n    tag_25:\n      pop\n      pop\n      jump\t// out\n        /* \"contracts/solidright.sol\":2479:2720  function transferFrom(address _from, address _to, uint256 _tokenId) external payable override {... */\n    tag_29:\n        /* \"contracts/solidright.sol\":2621:2631  msg.sender */\n      caller\n        /* \"contracts/solidright.sol\":2591:2631  artworkOwnership[_tokenId] == msg.sender */\n      0xffffffffffffffffffffffffffffffffffffffff\n      and\n        /* \"contracts/solidright.sol\":2591:2607  artworkOwnership */\n      0x02\n        /* \"contracts/solidright.sol\":2591:2617  artworkOwnership[_tokenId] */\n      0x00\n        /* \"contracts/solidright.sol\":2608:2616  _tokenId */\n      dup4\n        /* \"contracts/solidright.sol\":2591:2617  artworkOwnership[_tokenId] */\n      dup2\n      mstore\n      0x20\n      add\n      swap1\n      dup2\n      mstore\n      0x20\n      add\n      0x00\n      keccak256\n      0x00\n      swap1\n      sload\n      swap1\n      0x0100\n      exp\n      swap1\n      div\n      0xffffffffffffffffffffffffffffffffffffffff\n      and\n        /* \"contracts/solidright.sol\":2591:2631  artworkOwnership[_tokenId] == msg.sender */\n      0xffffffffffffffffffffffffffffffffffffffff\n      and\n      eq\n        /* \"contracts/solidright.sol\":2591:2675  artworkOwnership[_tokenId] == msg.sender || artworkApprovals[_tokenId] == msg.sender */\n      dup1\n      tag_93\n      jumpi\n      pop\n        /* \"contracts/solidright.sol\":2665:2675  msg.sender */\n      caller\n        /* \"contracts/solidright.sol\":2635:2675  artworkApprovals[_tokenId] == msg.sender */\n      0xffffffffffffffffffffffffffffffffffffffff\n      and\n        /* \"contracts/solidright.sol\":2635:2651  artworkApprovals */\n      0x04\n        /* \"contracts/solidright.sol\":2635:2661  artworkApprovals[_tokenId] */\n      0x00\n        /* \"contracts/solidright.sol\":2652:2660  _tokenId */\n      dup4\n        /* \"contracts/solidright.sol\":2635:2661  artworkApprovals[_tokenId] */\n      dup2\n      mstore\n      0x20\n      add\n      swap1\n      dup2\n      mstore\n      0x20\n      add\n      0x00\n      keccak256\n      0x00\n      swap1\n      sload\n      swap1\n      0x0100\n      exp\n      swap1\n      div\n      0xffffffffffffffffffffffffffffffffffffffff\n      and\n        /* \"contracts/solidright.sol\":2635:2675  artworkApprovals[_tokenId] == msg.sender */\n      0xffffffffffffffffffffffffffffffffffffffff\n      and\n      eq\n        /* \"contracts/solidright.sol\":2591:2675  artworkOwnership[_tokenId] == msg.sender || artworkApprovals[_tokenId] == msg.sender */\n    tag_93:\n        /* \"contracts/solidright.sol\":2582:2676  require (artworkOwnership[_tokenId] == msg.sender || artworkApprovals[_tokenId] == msg.sender) */\n      tag_94\n      jumpi\n      0x00\n      dup1\n      revert\n    tag_94:\n        /* \"contracts/solidright.sol\":2682:2713  _transfer(_from, _to, _tokenId) */\n      tag_95\n        /* \"contracts/solidright.sol\":2692:2697  _from */\n      dup4\n        /* \"contracts/solidright.sol\":2699:2702  _to */\n      dup4\n        /* \"contracts/solidright.sol\":2704:2712  _tokenId */\n      dup4\n        /* \"contracts/solidright.sol\":2682:2691  _transfer */\n      tag_96\n        /* \"contracts/solidright.sol\":2682:2713  _transfer(_from, _to, _tokenId) */\n      jump\t// in\n    tag_95:\n        /* \"contracts/solidright.sol\":2479:2720  function transferFrom(address _from, address _to, uint256 _tokenId) external payable override {... */\n      pop\n      pop\n      pop\n      jump\t// out\n        /* \"contracts/solidright.sol\":521:546  Artwork[] public artworks */\n    tag_34:\n      0x01\n      dup2\n      dup2\n      sload\n      dup2\n      lt\n      tag_97\n      jumpi\n      0x00\n      dup1\n      revert\n    tag_97:\n      swap1\n      0x00\n      mstore\n      keccak256(0x00, 0x20)\n      swap1\n      0x03\n      mul\n      add\n      0x00\n      swap2\n      pop\n      swap1\n      pop\n      dup1\n      0x00\n      add\n      dup1\n      sload\n      tag_99\n      swap1\n      tag_100\n      jump\t// in\n    tag_99:\n      dup1\n      0x1f\n      add\n      0x20\n      dup1\n      swap2\n      div\n      mul\n      0x20\n      add\n      mload(0x40)\n      swap1\n      dup2\n      add\n      0x40\n      mstore\n      dup1\n      swap3\n      swap2\n      swap1\n      dup2\n      dup2\n      mstore\n      0x20\n      add\n      dup3\n      dup1\n      sload\n      tag_101\n      swap1\n      tag_100\n      jump\t// in\n    tag_101:\n      dup1\n      iszero\n      tag_102\n      jumpi\n      dup1\n      0x1f\n      lt\n      tag_103\n      jumpi\n      0x0100\n      dup1\n      dup4\n      sload\n      div\n      mul\n      dup4\n      mstore\n      swap2\n      0x20\n      add\n      swap2\n      jump(tag_102)\n    tag_103:\n      dup3\n      add\n      swap2\n      swap1\n      0x00\n      mstore\n      keccak256(0x00, 0x20)\n      swap1\n    tag_104:\n      dup2\n      sload\n      dup2\n      mstore\n      swap1\n      0x01\n      add\n      swap1\n      0x20\n      add\n      dup1\n      dup4\n      gt\n      tag_104\n      jumpi\n      dup3\n      swap1\n      sub\n      0x1f\n      and\n      dup3\n      add\n      swap2\n    tag_102:\n      pop\n      pop\n      pop\n      pop\n      pop\n      swap1\n      dup1\n      0x01\n      add\n      sload\n      swap1\n      pop\n      dup3\n      jump\t// out\n        /* \"contracts/solidright.sol\":2347:2473  function ownerOf(uint256 _tokenId) external view override returns (address) {... */\n    tag_40:\n        /* \"contracts/solidright.sol\":2414:2421  address */\n      0x00\n        /* \"contracts/solidright.sol\":2440:2456  artworkOwnership */\n      0x02\n        /* \"contracts/solidright.sol\":2440:2466  artworkOwnership[_tokenId] */\n      0x00\n        /* \"contracts/solidright.sol\":2457:2465  _tokenId */\n      dup4\n        /* \"contracts/solidright.sol\":2440:2466  artworkOwnership[_tokenId] */\n      dup2\n      mstore\n      0x20\n      add\n      swap1\n      dup2\n      mstore\n      0x20\n      add\n      0x00\n      keccak256\n      0x00\n      swap1\n      sload\n      swap1\n      0x0100\n      exp\n      swap1\n      div\n      0xffffffffffffffffffffffffffffffffffffffff\n      and\n        /* \"contracts/solidright.sol\":2433:2466  return artworkOwnership[_tokenId] */\n      swap1\n      pop\n        /* \"contracts/solidright.sol\":2347:2473  function ownerOf(uint256 _tokenId) external view override returns (address) {... */\n      swap2\n      swap1\n      pop\n      jump\t// out\n        /* \"contracts/solidright.sol\":2219:2341  function balanceOf(address _owner) external view override returns (uint256) {... */\n    tag_46:\n        /* \"contracts/solidright.sol\":2286:2293  uint256 */\n      0x00\n        /* \"contracts/solidright.sol\":2312:2326  artworkCounter */\n      0x03\n        /* \"contracts/solidright.sol\":2312:2334  artworkCounter[_owner] */\n      0x00\n        /* \"contracts/solidright.sol\":2327:2333  _owner */\n      dup4\n        /* \"contracts/solidright.sol\":2312:2334  artworkCounter[_owner] */\n      0xffffffffffffffffffffffffffffffffffffffff\n      and\n      0xffffffffffffffffffffffffffffffffffffffff\n      and\n      dup2\n      mstore\n      0x20\n      add\n      swap1\n      dup2\n      mstore\n      0x20\n      add\n      0x00\n      keccak256\n      sload\n        /* \"contracts/solidright.sol\":2305:2334  return artworkCounter[_owner] */\n      swap1\n      pop\n        /* \"contracts/solidright.sol\":2219:2341  function balanceOf(address _owner) external view override returns (uint256) {... */\n      swap2\n      swap1\n      pop\n      jump\t// out\n        /* \"https://github.com/OpenZeppelin/openzeppelin-contracts/blob/master/contracts/access/Ownable.sol\":1668:1769  function renounceOwnership() public virtual onlyOwner {... */\n    tag_51:\n        /* \"https://github.com/OpenZeppelin/openzeppelin-contracts/blob/master/contracts/access/Ownable.sol\":1259:1271  _msgSender() */\n      tag_108\n        /* \"https://github.com/OpenZeppelin/openzeppelin-contracts/blob/master/contracts/access/Ownable.sol\":1259:1269  _msgSender */\n      tag_109\n        /* \"https://github.com/OpenZeppelin/openzeppelin-contracts/blob/master/contracts/access/Ownable.sol\":1259:1271  _msgSender() */\n      jump\t// in\n    tag_108:\n        /* \"https://github.com/OpenZeppelin/openzeppelin-contracts/blob/master/contracts/access/Ownable.sol\":1248:1271  owner() == _msgSender() */\n      0xffffffffffffffffffffffffffffffffffffffff\n      and\n        /* \"https://github.com/OpenZeppelin/openzeppelin-contracts/blob/master/contracts/access/Ownable.sol\":1248:1255  owner() */\n      tag_110\n        /* \"https://github.com/OpenZeppelin/openzeppelin-contracts/blob/master/contracts/access/Ownable.sol\":1248:1253  owner */\n      tag_54\n        /* \"https://github.com/OpenZeppelin/openzeppelin-contracts/blob/master/contracts/access/Ownable.sol\":1248:1255  owner() */\n      jump\t// in\n    tag_110:\n        /* \"https://github.com/OpenZeppelin/openzeppelin-contracts/blob/master/contracts/access/Ownable.sol\":1248:1271  owner() == _msgSender() */\n      0xffffffffffffffffffffffffffffffffffffffff\n      and\n      eq\n        /* \"https://github.com/OpenZeppelin/openzeppelin-contracts/blob/master/contracts/access/Ownable.sol\":1240:1308  require(owner() == _msgSender(), \"Ownable: caller is not the owner\") */\n      tag_111\n      jumpi\n      mload(0x40)\n      0x08c379a000000000000000000000000000000000000000000000000000000000\n      dup2\n      mstore\n      0x04\n      add\n      tag_112\n      swap1\n      tag_113\n      jump\t// in\n    tag_112:\n      mload(0x40)\n      dup1\n      swap2\n      sub\n      swap1\n      revert\n    tag_111:\n        /* \"https://github.com/OpenZeppelin/openzeppelin-contracts/blob/master/contracts/access/Ownable.sol\":1732:1762  _transferOwnership(address(0)) */\n      tag_115\n        /* \"https://github.com/OpenZeppelin/openzeppelin-contracts/blob/master/contracts/access/Ownable.sol\":1759:1760  0 */\n      0x00\n        /* \"https://github.com/OpenZeppelin/openzeppelin-contracts/blob/master/contracts/access/Ownable.sol\":1732:1750  _transferOwnership */\n      tag_116\n        /* \"https://github.com/OpenZeppelin/openzeppelin-contracts/blob/master/contracts/access/Ownable.sol\":1732:1762  _transferOwnership(address(0)) */\n      jump\t// in\n    tag_115:\n        /* \"https://github.com/OpenZeppelin/openzeppelin-contracts/blob/master/contracts/access/Ownable.sol\":1668:1769  function renounceOwnership() public virtual onlyOwner {... */\n      jump\t// out\n        /* \"https://github.com/OpenZeppelin/openzeppelin-contracts/blob/master/contracts/access/Ownable.sol\":1036:1121  function owner() public view virtual returns (address) {... */\n    tag_54:\n        /* \"https://github.com/OpenZeppelin/openzeppelin-contracts/blob/master/contracts/access/Ownable.sol\":1082:1089  address */\n      0x00\n        /* \"https://github.com/OpenZeppelin/openzeppelin-contracts/blob/master/contracts/access/Ownable.sol\":1108:1114  _owner */\n      dup1\n      0x00\n      swap1\n      sload\n      swap1\n      0x0100\n      exp\n      swap1\n      div\n      0xffffffffffffffffffffffffffffffffffffffff\n      and\n        /* \"https://github.com/OpenZeppelin/openzeppelin-contracts/blob/master/contracts/access/Ownable.sol\":1101:1114  return _owner */\n      swap1\n      pop\n        /* \"https://github.com/OpenZeppelin/openzeppelin-contracts/blob/master/contracts/access/Ownable.sol\":1036:1121  function owner() public view virtual returns (address) {... */\n      swap1\n      jump\t// out\n        /* \"contracts/solidright.sol\":928:1455  function createArtwork(string memory _name, uint256 _price, bytes32[] memory _fileHashes) external {... */\n    tag_60:\n        /* \"contracts/solidright.sol\":1091:1099  artworks */\n      0x01\n        /* \"contracts/solidright.sol\":1105:1140  Artwork(_name, _price, _fileHashes) */\n      mload(0x40)\n      dup1\n      0x60\n      add\n      0x40\n      mstore\n      dup1\n        /* \"contracts/solidright.sol\":1113:1118  _name */\n      dup6\n        /* \"contracts/solidright.sol\":1105:1140  Artwork(_name, _price, _fileHashes) */\n      dup2\n      mstore\n      0x20\n      add\n        /* \"contracts/solidright.sol\":1120:1126  _price */\n      dup5\n        /* \"contracts/solidright.sol\":1105:1140  Artwork(_name, _price, _fileHashes) */\n      dup2\n      mstore\n      0x20\n      add\n        /* \"contracts/solidright.sol\":1128:1139  _fileHashes */\n      dup4\n        /* \"contracts/solidright.sol\":1105:1140  Artwork(_name, _price, _fileHashes) */\n      dup2\n      mstore\n      pop\n        /* \"contracts/solidright.sol\":1091:1141  artworks.push(Artwork(_name, _price, _fileHashes)) */\n      swap1\n      dup1\n      0x01\n      dup2\n      sload\n      add\n      dup1\n      dup3\n      sstore\n      dup1\n      swap2\n      pop\n      pop\n      0x01\n      swap1\n      sub\n      swap1\n      0x00\n      mstore\n      keccak256(0x00, 0x20)\n      swap1\n      0x03\n      mul\n      add\n      0x00\n      swap1\n      swap2\n      swap1\n      swap2\n      swap1\n      swap2\n      pop\n      0x00\n      dup3\n      add\n      mload\n      dup2\n      0x00\n      add\n      swap1\n      dup1\n      mload\n      swap1\n      0x20\n      add\n      swap1\n      tag_120\n      swap3\n      swap2\n      swap1\n      tag_121\n      jump\t// in\n    tag_120:\n      pop\n      0x20\n      dup3\n      add\n      mload\n      dup2\n      0x01\n      add\n      sstore\n      0x40\n      dup3\n      add\n      mload\n      dup2\n      0x02\n      add\n      swap1\n      dup1\n      mload\n      swap1\n      0x20\n      add\n      swap1\n      tag_122\n      swap3\n      swap2\n      swap1\n      tag_123\n      jump\t// in\n    tag_122:\n      pop\n      pop\n      pop\n        /* \"contracts/solidright.sol\":1255:1265  uint256 id */\n      0x00\n        /* \"contracts/solidright.sol\":1268:1290  artworks.length.sub(1) */\n      tag_124\n        /* \"contracts/solidright.sol\":1288:1289  1 */\n      0x01\n        /* \"contracts/solidright.sol\":1268:1276  artworks */\n      dup1\n        /* \"contracts/solidright.sol\":1268:1283  artworks.length */\n      dup1\n      sload\n      swap1\n      pop\n        /* \"contracts/solidright.sol\":1268:1287  artworks.length.sub */\n      tag_125\n      swap1\n        /* \"contracts/solidright.sol\":1268:1290  artworks.length.sub(1) */\n      swap2\n      swap1\n      0xffffffff\n      and\n      jump\t// in\n    tag_124:\n        /* \"contracts/solidright.sol\":1255:1290  uint256 id = artworks.length.sub(1) */\n      swap1\n      pop\n        /* \"contracts/solidright.sol\":1323:1333  msg.sender */\n      caller\n        /* \"contracts/solidright.sol\":1300:1316  artworkOwnership */\n      0x02\n        /* \"contracts/solidright.sol\":1300:1320  artworkOwnership[id] */\n      0x00\n        /* \"contracts/solidright.sol\":1317:1319  id */\n      dup4\n        /* \"contracts/solidright.sol\":1300:1320  artworkOwnership[id] */\n      dup2\n      mstore\n      0x20\n      add\n      swap1\n      dup2\n      mstore\n      0x20\n      add\n      0x00\n      keccak256\n      0x00\n        /* \"contracts/solidright.sol\":1300:1333  artworkOwnership[id] = msg.sender */\n      0x0100\n      exp\n      dup2\n      sload\n      dup2\n      0xffffffffffffffffffffffffffffffffffffffff\n      mul\n      not\n      and\n      swap1\n      dup4\n      0xffffffffffffffffffffffffffffffffffffffff\n      and\n      mul\n      or\n      swap1\n      sstore\n      pop\n        /* \"contracts/solidright.sol\":1372:1405  artworkCounter[msg.sender].add(1) */\n      tag_126\n        /* \"contracts/solidright.sol\":1403:1404  1 */\n      0x01\n        /* \"contracts/solidright.sol\":1372:1386  artworkCounter */\n      0x03\n        /* \"contracts/solidright.sol\":1372:1398  artworkCounter[msg.sender] */\n      0x00\n        /* \"contracts/solidright.sol\":1387:1397  msg.sender */\n      caller\n        /* \"contracts/solidright.sol\":1372:1398  artworkCounter[msg.sender] */\n      0xffffffffffffffffffffffffffffffffffffffff\n      and\n      0xffffffffffffffffffffffffffffffffffffffff\n      and\n      dup2\n      mstore\n      0x20\n      add\n      swap1\n      dup2\n      mstore\n      0x20\n      add\n      0x00\n      keccak256\n      sload\n        /* \"contracts/solidright.sol\":1372:1402  artworkCounter[msg.sender].add */\n      tag_88\n      swap1\n        /* \"contracts/solidright.sol\":1372:1405  artworkCounter[msg.sender].add(1) */\n      swap2\n      swap1\n      0xffffffff\n      and\n      jump\t// in\n    tag_126:\n        /* \"contracts/solidright.sol\":1343:1357  artworkCounter */\n      0x03\n        /* \"contracts/solidright.sol\":1343:1369  artworkCounter[msg.sender] */\n      0x00\n        /* \"contracts/solidright.sol\":1358:1368  msg.sender */\n      caller\n        /* \"contracts/solidright.sol\":1343:1369  artworkCounter[msg.sender] */\n      0xffffffffffffffffffffffffffffffffffffffff\n      and\n      0xffffffffffffffffffffffffffffffffffffffff\n      and\n      dup2\n      mstore\n      0x20\n      add\n      swap1\n      dup2\n      mstore\n      0x20\n      add\n      0x00\n      keccak256\n        /* \"contracts/solidright.sol\":1343:1405  artworkCounter[msg.sender] = artworkCounter[msg.sender].add(1) */\n      dup2\n      swap1\n      sstore\n      pop\n        /* \"contracts/solidright.sol\":1420:1448  newArtworkCreated(id, _name) */\n      0x8e5131164fd8ab4ef05922255f67a7171cfd6ed4bd4a7c18dce461606a54ff5e\n        /* \"contracts/solidright.sol\":1438:1440  id */\n      dup2\n        /* \"contracts/solidright.sol\":1442:1447  _name */\n      dup6\n        /* \"contracts/solidright.sol\":1420:1448  newArtworkCreated(id, _name) */\n      mload(0x40)\n      tag_127\n      swap3\n      swap2\n      swap1\n      tag_128\n      jump\t// in\n    tag_127:\n      mload(0x40)\n      dup1\n      swap2\n      sub\n      swap1\n      log1\n        /* \"contracts/solidright.sol\":1027:1455  {... */\n      pop\n        /* \"contracts/solidright.sol\":928:1455  function createArtwork(string memory _name, uint256 _price, bytes32[] memory _fileHashes) external {... */\n      pop\n      pop\n      pop\n      jump\t// out\n        /* \"contracts/solidright.sol\":1461:1618  function changeNameArtwork(uint _artworkId, string memory _newName) public onlyArtworkOwner(_artworkId) {... */\n    tag_65:\n        /* \"contracts/solidright.sol\":1553:1563  _artworkId */\n      dup2\n        /* \"contracts/solidright.sol\":889:899  msg.sender */\n      caller\n        /* \"contracts/solidright.sol\":857:899  artworkOwnership[_artworkId] == msg.sender */\n      0xffffffffffffffffffffffffffffffffffffffff\n      and\n        /* \"contracts/solidright.sol\":857:873  artworkOwnership */\n      0x02\n        /* \"contracts/solidright.sol\":857:885  artworkOwnership[_artworkId] */\n      0x00\n        /* \"contracts/solidright.sol\":874:884  _artworkId */\n      dup4\n        /* \"contracts/solidright.sol\":857:885  artworkOwnership[_artworkId] */\n      dup2\n      mstore\n      0x20\n      add\n      swap1\n      dup2\n      mstore\n      0x20\n      add\n      0x00\n      keccak256\n      0x00\n      swap1\n      sload\n      swap1\n      0x0100\n      exp\n      swap1\n      div\n      0xffffffffffffffffffffffffffffffffffffffff\n      and\n        /* \"contracts/solidright.sol\":857:899  artworkOwnership[_artworkId] == msg.sender */\n      0xffffffffffffffffffffffffffffffffffffffff\n      and\n      eq\n        /* \"contracts/solidright.sol\":849:900  require(artworkOwnership[_artworkId] == msg.sender) */\n      tag_130\n      jumpi\n      0x00\n      dup1\n      revert\n    tag_130:\n        /* \"contracts/solidright.sol\":1603:1611  _newName */\n      dup2\n        /* \"contracts/solidright.sol\":1575:1583  artworks */\n      0x01\n        /* \"contracts/solidright.sol\":1584:1594  _artworkId */\n      dup5\n        /* \"contracts/solidright.sol\":1575:1595  artworks[_artworkId] */\n      dup2\n      sload\n      dup2\n      lt\n      tag_132\n      jumpi\n      tag_133\n      tag_86\n      jump\t// in\n    tag_133:\n    tag_132:\n      swap1\n      0x00\n      mstore\n      keccak256(0x00, 0x20)\n      swap1\n      0x03\n      mul\n      add\n        /* \"contracts/solidright.sol\":1575:1600  artworks[_artworkId].name */\n      0x00\n      add\n        /* \"contracts/solidright.sol\":1575:1611  artworks[_artworkId].name = _newName */\n      swap1\n      dup1\n      mload\n      swap1\n      0x20\n      add\n      swap1\n      tag_135\n      swap3\n      swap2\n      swap1\n      tag_121\n      jump\t// in\n    tag_135:\n      pop\n        /* \"contracts/solidright.sol\":1461:1618  function changeNameArtwork(uint _artworkId, string memory _newName) public onlyArtworkOwner(_artworkId) {... */\n      pop\n      pop\n      pop\n      jump\t// out\n        /* \"https://github.com/OpenZeppelin/openzeppelin-contracts/blob/master/contracts/access/Ownable.sol\":1918:2116  function transferOwnership(address newOwner) public virtual onlyOwner {... */\n    tag_69:\n        /* \"https://github.com/OpenZeppelin/openzeppelin-contracts/blob/master/contracts/access/Ownable.sol\":1259:1271  _msgSender() */\n      tag_137\n        /* \"https://github.com/OpenZeppelin/openzeppelin-contracts/blob/master/contracts/access/Ownable.sol\":1259:1269  _msgSender */\n      tag_109\n        /* \"https://github.com/OpenZeppelin/openzeppelin-contracts/blob/master/contracts/access/Ownable.sol\":1259:1271  _msgSender() */\n      jump\t// in\n    tag_137:\n        /* \"https://github.com/OpenZeppelin/openzeppelin-contracts/blob/master/contracts/access/Ownable.sol\":1248:1271  owner() == _msgSender() */\n      0xffffffffffffffffffffffffffffffffffffffff\n      and\n        /* \"https://github.com/OpenZeppelin/openzeppelin-contracts/blob/master/contracts/access/Ownable.sol\":1248:1255  owner() */\n      tag_138\n        /* \"https://github.com/OpenZeppelin/openzeppelin-contracts/blob/master/contracts/access/Ownable.sol\":1248:1253  owner */\n      tag_54\n        /* \"https://github.com/OpenZeppelin/openzeppelin-contracts/blob/master/contracts/access/Ownable.sol\":1248:1255  owner() */\n      jump\t// in\n    tag_138:\n        /* \"https://github.com/OpenZeppelin/openzeppelin-contracts/blob/master/contracts/access/Ownable.sol\":1248:1271  owner() == _msgSender() */\n      0xffffffffffffffffffffffffffffffffffffffff\n      and\n      eq\n        /* \"https://github.com/OpenZeppelin/openzeppelin-contracts/blob/master/contracts/access/Ownable.sol\":1240:1308  require(owner() == _msgSender(), \"Ownable: caller is not the owner\") */\n      tag_139\n      jumpi\n      mload(0x40)\n      0x08c379a000000000000000000000000000000000000000000000000000000000\n      dup2\n      mstore\n      0x04\n      add\n      tag_140\n      swap1\n      tag_113\n      jump\t// in\n    tag_140:\n      mload(0x40)\n      dup1\n      swap2\n      sub\n      swap1\n      revert\n    tag_139:\n        /* \"https://github.com/OpenZeppelin/openzeppelin-contracts/blob/master/contracts/access/Ownable.sol\":2026:2027  0 */\n      0x00\n        /* \"https://github.com/OpenZeppelin/openzeppelin-contracts/blob/master/contracts/access/Ownable.sol\":2006:2028  newOwner != address(0) */\n      0xffffffffffffffffffffffffffffffffffffffff\n      and\n        /* \"https://github.com/OpenZeppelin/openzeppelin-contracts/blob/master/contracts/access/Ownable.sol\":2006:2014  newOwner */\n      dup2\n        /* \"https://github.com/OpenZeppelin/openzeppelin-contracts/blob/master/contracts/access/Ownable.sol\":2006:2028  newOwner != address(0) */\n      0xffffffffffffffffffffffffffffffffffffffff\n      and\n      eq\n      iszero\n        /* \"https://github.com/OpenZeppelin/openzeppelin-contracts/blob/master/contracts/access/Ownable.sol\":1998:2071  require(newOwner != address(0), \"Ownable: new owner is the zero address\") */\n      tag_142\n      jumpi\n      mload(0x40)\n      0x08c379a000000000000000000000000000000000000000000000000000000000\n      dup2\n      mstore\n      0x04\n      add\n      tag_143\n      swap1\n      tag_144\n      jump\t// in\n    tag_143:\n      mload(0x40)\n      dup1\n      swap2\n      sub\n      swap1\n      revert\n    tag_142:\n        /* \"https://github.com/OpenZeppelin/openzeppelin-contracts/blob/master/contracts/access/Ownable.sol\":2081:2109  _transferOwnership(newOwner) */\n      tag_145\n        /* \"https://github.com/OpenZeppelin/openzeppelin-contracts/blob/master/contracts/access/Ownable.sol\":2100:2108  newOwner */\n      dup2\n        /* \"https://github.com/OpenZeppelin/openzeppelin-contracts/blob/master/contracts/access/Ownable.sol\":2081:2099  _transferOwnership */\n      tag_116\n        /* \"https://github.com/OpenZeppelin/openzeppelin-contracts/blob/master/contracts/access/Ownable.sol\":2081:2109  _transferOwnership(newOwner) */\n      jump\t// in\n    tag_145:\n        /* \"https://github.com/OpenZeppelin/openzeppelin-contracts/blob/master/contracts/access/Ownable.sol\":1918:2116  function transferOwnership(address newOwner) public virtual onlyOwner {... */\n      pop\n      jump\t// out\n        /* \"contracts/solidright.sol\":1624:1776  function changeNamePrice(uint _artworkId, uint256 _newPrice) public onlyArtworkOwner(_artworkId) {... */\n    tag_74:\n        /* \"contracts/solidright.sol\":1709:1719  _artworkId */\n      dup2\n        /* \"contracts/solidright.sol\":889:899  msg.sender */\n      caller\n        /* \"contracts/solidright.sol\":857:899  artworkOwnership[_artworkId] == msg.sender */\n      0xffffffffffffffffffffffffffffffffffffffff\n      and\n        /* \"contracts/solidright.sol\":857:873  artworkOwnership */\n      0x02\n        /* \"contracts/solidright.sol\":857:885  artworkOwnership[_artworkId] */\n      0x00\n        /* \"contracts/solidright.sol\":874:884  _artworkId */\n      dup4\n        /* \"contracts/solidright.sol\":857:885  artworkOwnership[_artworkId] */\n      dup2\n      mstore\n      0x20\n      add\n      swap1\n      dup2\n      mstore\n      0x20\n      add\n      0x00\n      keccak256\n      0x00\n      swap1\n      sload\n      swap1\n      0x0100\n      exp\n      swap1\n      div\n      0xffffffffffffffffffffffffffffffffffffffff\n      and\n        /* \"contracts/solidright.sol\":857:899  artworkOwnership[_artworkId] == msg.sender */\n      0xffffffffffffffffffffffffffffffffffffffff\n      and\n      eq\n        /* \"contracts/solidright.sol\":849:900  require(artworkOwnership[_artworkId] == msg.sender) */\n      tag_147\n      jumpi\n      0x00\n      dup1\n      revert\n    tag_147:\n        /* \"contracts/solidright.sol\":1760:1769  _newPrice */\n      dup2\n        /* \"contracts/solidright.sol\":1731:1739  artworks */\n      0x01\n        /* \"contracts/solidright.sol\":1740:1750  _artworkId */\n      dup5\n        /* \"contracts/solidright.sol\":1731:1751  artworks[_artworkId] */\n      dup2\n      sload\n      dup2\n      lt\n      tag_149\n      jumpi\n      tag_150\n      tag_86\n      jump\t// in\n    tag_150:\n    tag_149:\n      swap1\n      0x00\n      mstore\n      keccak256(0x00, 0x20)\n      swap1\n      0x03\n      mul\n      add\n        /* \"contracts/solidright.sol\":1731:1757  artworks[_artworkId].price */\n      0x01\n      add\n        /* \"contracts/solidright.sol\":1731:1769  artworks[_artworkId].price = _newPrice */\n      dup2\n      swap1\n      sstore\n      pop\n        /* \"contracts/solidright.sol\":1624:1776  function changeNamePrice(uint _artworkId, uint256 _newPrice) public onlyArtworkOwner(_artworkId) {... */\n      pop\n      pop\n      pop\n      jump\t// out\n        /* \"https://github.com/OpenZeppelin/openzeppelin-contracts/blob/master/contracts/utils/math/SafeMath.sol\":2740:2836  function add(uint256 a, uint256 b) internal pure returns (uint256) {... */\n    tag_88:\n        /* \"https://github.com/OpenZeppelin/openzeppelin-contracts/blob/master/contracts/utils/math/SafeMath.sol\":2798:2805  uint256 */\n      0x00\n        /* \"https://github.com/OpenZeppelin/openzeppelin-contracts/blob/master/contracts/utils/math/SafeMath.sol\":2828:2829  b */\n      dup2\n        /* \"https://github.com/OpenZeppelin/openzeppelin-contracts/blob/master/contracts/utils/math/SafeMath.sol\":2824:2825  a */\n      dup4\n        /* \"https://github.com/OpenZeppelin/openzeppelin-contracts/blob/master/contracts/utils/math/SafeMath.sol\":2824:2829  a + b */\n      tag_153\n      swap2\n      swap1\n      tag_154\n      jump\t// in\n    tag_153:\n        /* \"https://github.com/OpenZeppelin/openzeppelin-contracts/blob/master/contracts/utils/math/SafeMath.sol\":2817:2829  return a + b */\n      swap1\n      pop\n        /* \"https://github.com/OpenZeppelin/openzeppelin-contracts/blob/master/contracts/utils/math/SafeMath.sol\":2740:2836  function add(uint256 a, uint256 b) internal pure returns (uint256) {... */\n      swap3\n      swap2\n      pop\n      pop\n      jump\t// out\n        /* \"contracts/solidright.sol\":2725:3009  function _transfer(address _from, address _to, uint256 _tokenId) private {... */\n    tag_96:\n        /* \"contracts/solidright.sol\":2808:2822  artworkCounter */\n      0x03\n        /* \"contracts/solidright.sol\":2808:2827  artworkCounter[_to] */\n      0x00\n        /* \"contracts/solidright.sol\":2823:2826  _to */\n      dup4\n        /* \"contracts/solidright.sol\":2808:2827  artworkCounter[_to] */\n      0xffffffffffffffffffffffffffffffffffffffff\n      and\n      0xffffffffffffffffffffffffffffffffffffffff\n      and\n      dup2\n      mstore\n      0x20\n      add\n      swap1\n      dup2\n      mstore\n      0x20\n      add\n      0x00\n      keccak256\n      0x00\n        /* \"contracts/solidright.sol\":2808:2829  artworkCounter[_to]++ */\n      dup2\n      sload\n      dup1\n      swap3\n      swap2\n      swap1\n      tag_156\n      swap1\n      tag_90\n      jump\t// in\n    tag_156:\n      swap2\n      swap1\n      pop\n      sstore\n      pop\n        /* \"contracts/solidright.sol\":2839:2853  artworkCounter */\n      0x03\n        /* \"contracts/solidright.sol\":2839:2860  artworkCounter[_from] */\n      0x00\n        /* \"contracts/solidright.sol\":2854:2859  _from */\n      dup5\n        /* \"contracts/solidright.sol\":2839:2860  artworkCounter[_from] */\n      0xffffffffffffffffffffffffffffffffffffffff\n      and\n      0xffffffffffffffffffffffffffffffffffffffff\n      and\n      dup2\n      mstore\n      0x20\n      add\n      swap1\n      dup2\n      mstore\n      0x20\n      add\n      0x00\n      keccak256\n      0x00\n        /* \"contracts/solidright.sol\":2839:2862  artworkCounter[_from]-- */\n      dup2\n      sload\n      dup1\n      swap3\n      swap2\n      swap1\n      tag_157\n      swap1\n      tag_158\n      jump\t// in\n    tag_157:\n      swap2\n      swap1\n      pop\n      sstore\n      pop\n        /* \"contracts/solidright.sol\":2901:2904  _to */\n      dup2\n        /* \"contracts/solidright.sol\":2872:2888  artworkOwnership */\n      0x02\n        /* \"contracts/solidright.sol\":2872:2898  artworkOwnership[_tokenId] */\n      0x00\n        /* \"contracts/solidright.sol\":2889:2897  _tokenId */\n      dup4\n        /* \"contracts/solidright.sol\":2872:2898  artworkOwnership[_tokenId] */\n      dup2\n      mstore\n      0x20\n      add\n      swap1\n      dup2\n      mstore\n      0x20\n      add\n      0x00\n      keccak256\n      0x00\n        /* \"contracts/solidright.sol\":2872:2904  artworkOwnership[_tokenId] = _to */\n      0x0100\n      exp\n      dup2\n      sload\n      dup2\n      0xffffffffffffffffffffffffffffffffffffffff\n      mul\n      not\n      and\n      swap1\n      dup4\n      0xffffffffffffffffffffffffffffffffffffffff\n      and\n      mul\n      or\n      swap1\n      sstore\n      pop\n        /* \"contracts/solidright.sol\":2993:3001  _tokenId */\n      dup1\n        /* \"contracts/solidright.sol\":2988:2991  _to */\n      dup3\n        /* \"contracts/solidright.sol\":2972:3002  Transfer(_from, _to, _tokenId) */\n      0xffffffffffffffffffffffffffffffffffffffff\n      and\n        /* \"contracts/solidright.sol\":2981:2986  _from */\n      dup5\n        /* \"contracts/solidright.sol\":2972:3002  Transfer(_from, _to, _tokenId) */\n      0xffffffffffffffffffffffffffffffffffffffff\n      and\n      0xddf252ad1be2c89b69c2b068fc378daa952ba7f163c4a11628f55a4df523b3ef\n      mload(0x40)\n      mload(0x40)\n      dup1\n      swap2\n      sub\n      swap1\n      log4\n        /* \"contracts/solidright.sol\":2725:3009  function _transfer(address _from, address _to, uint256 _tokenId) private {... */\n      pop\n      pop\n      pop\n      jump\t// out\n        /* \"https://github.com/OpenZeppelin/openzeppelin-contracts/blob/master/contracts/utils/Context.sol\":640:736  function _msgSender() internal view virtual returns (address) {... */\n    tag_109:\n        /* \"https://github.com/OpenZeppelin/openzeppelin-contracts/blob/master/contracts/utils/Context.sol\":693:700  address */\n      0x00\n        /* \"https://github.com/OpenZeppelin/openzeppelin-contracts/blob/master/contracts/utils/Context.sol\":719:729  msg.sender */\n      caller\n        /* \"https://github.com/OpenZeppelin/openzeppelin-contracts/blob/master/contracts/utils/Context.sol\":712:729  return msg.sender */\n      swap1\n      pop\n        /* \"https://github.com/OpenZeppelin/openzeppelin-contracts/blob/master/contracts/utils/Context.sol\":640:736  function _msgSender() internal view virtual returns (address) {... */\n      swap1\n      jump\t// out\n        /* \"https://github.com/OpenZeppelin/openzeppelin-contracts/blob/master/contracts/access/Ownable.sol\":2270:2457  function _transferOwnership(address newOwner) internal virtual {... */\n    tag_116:\n        /* \"https://github.com/OpenZeppelin/openzeppelin-contracts/blob/master/contracts/access/Ownable.sol\":2343:2359  address oldOwner */\n      0x00\n        /* \"https://github.com/OpenZeppelin/openzeppelin-contracts/blob/master/contracts/access/Ownable.sol\":2362:2368  _owner */\n      dup1\n      0x00\n      swap1\n      sload\n      swap1\n      0x0100\n      exp\n      swap1\n      div\n      0xffffffffffffffffffffffffffffffffffffffff\n      and\n        /* \"https://github.com/OpenZeppelin/openzeppelin-contracts/blob/master/contracts/access/Ownable.sol\":2343:2368  address oldOwner = _owner */\n      swap1\n      pop\n        /* \"https://github.com/OpenZeppelin/openzeppelin-contracts/blob/master/contracts/access/Ownable.sol\":2387:2395  newOwner */\n      dup2\n        /* \"https://github.com/OpenZeppelin/openzeppelin-contracts/blob/master/contracts/access/Ownable.sol\":2378:2384  _owner */\n      0x00\n      dup1\n        /* \"https://github.com/OpenZeppelin/openzeppelin-contracts/blob/master/contracts/access/Ownable.sol\":2378:2395  _owner = newOwner */\n      0x0100\n      exp\n      dup2\n      sload\n      dup2\n      0xffffffffffffffffffffffffffffffffffffffff\n      mul\n      not\n      and\n      swap1\n      dup4\n      0xffffffffffffffffffffffffffffffffffffffff\n      and\n      mul\n      or\n      swap1\n      sstore\n      pop\n        /* \"https://github.com/OpenZeppelin/openzeppelin-contracts/blob/master/contracts/access/Ownable.sol\":2441:2449  newOwner */\n      dup2\n        /* \"https://github.com/OpenZeppelin/openzeppelin-contracts/blob/master/contracts/access/Ownable.sol\":2410:2450  OwnershipTransferred(oldOwner, newOwner) */\n      0xffffffffffffffffffffffffffffffffffffffff\n      and\n        /* \"https://github.com/OpenZeppelin/openzeppelin-contracts/blob/master/contracts/access/Ownable.sol\":2431:2439  oldOwner */\n      dup2\n        /* \"https://github.com/OpenZeppelin/openzeppelin-contracts/blob/master/contracts/access/Ownable.sol\":2410:2450  OwnershipTransferred(oldOwner, newOwner) */\n      0xffffffffffffffffffffffffffffffffffffffff\n      and\n      0x8be0079c531659141344cd1fd0a4f28419497f9722a3daafe3b4186f6b6457e0\n      mload(0x40)\n      mload(0x40)\n      dup1\n      swap2\n      sub\n      swap1\n      log3\n        /* \"https://github.com/OpenZeppelin/openzeppelin-contracts/blob/master/contracts/access/Ownable.sol\":2333:2457  {... */\n      pop\n        /* \"https://github.com/OpenZeppelin/openzeppelin-contracts/blob/master/contracts/access/Ownable.sol\":2270:2457  function _transferOwnership(address newOwner) internal virtual {... */\n      pop\n      jump\t// out\n        /* \"https://github.com/OpenZeppelin/openzeppelin-contracts/blob/master/contracts/utils/math/SafeMath.sol\":3107:3203  function sub(uint256 a, uint256 b) internal pure returns (uint256) {... */\n    tag_125:\n        /* \"https://github.com/OpenZeppelin/openzeppelin-contracts/blob/master/contracts/utils/math/SafeMath.sol\":3165:3172  uint256 */\n      0x00\n        /* \"https://github.com/OpenZeppelin/openzeppelin-contracts/blob/master/contracts/utils/math/SafeMath.sol\":3195:3196  b */\n      dup2\n        /* \"https://github.com/OpenZeppelin/openzeppelin-contracts/blob/master/contracts/utils/math/SafeMath.sol\":3191:3192  a */\n      dup4\n        /* \"https://github.com/OpenZeppelin/openzeppelin-contracts/blob/master/contracts/utils/math/SafeMath.sol\":3191:3196  a - b */\n      tag_162\n      swap2\n      swap1\n      tag_163\n      jump\t// in\n    tag_162:\n        /* \"https://github.com/OpenZeppelin/openzeppelin-contracts/blob/master/contracts/utils/math/SafeMath.sol\":3184:3196  return a - b */\n      swap1\n      pop\n        /* \"https://github.com/OpenZeppelin/openzeppelin-contracts/blob/master/contracts/utils/math/SafeMath.sol\":3107:3203  function sub(uint256 a, uint256 b) internal pure returns (uint256) {... */\n      swap3\n      swap2\n      pop\n      pop\n      jump\t// out\n    tag_121:\n      dup3\n      dup1\n      sload\n      tag_164\n      swap1\n      tag_100\n      jump\t// in\n    tag_164:\n      swap1\n      0x00\n      mstore\n      keccak256(0x00, 0x20)\n      swap1\n      0x1f\n      add\n      0x20\n      swap1\n      div\n      dup2\n      add\n      swap3\n      dup3\n      tag_166\n      jumpi\n      0x00\n      dup6\n      sstore\n      jump(tag_165)\n    tag_166:\n      dup3\n      0x1f\n      lt\n      tag_167\n      jumpi\n      dup1\n      mload\n      not(0xff)\n      and\n      dup4\n      dup1\n      add\n      or\n      dup6\n      sstore\n      jump(tag_165)\n    tag_167:\n      dup3\n      dup1\n      add\n      0x01\n      add\n      dup6\n      sstore\n      dup3\n      iszero\n      tag_165\n      jumpi\n      swap2\n      dup3\n      add\n    tag_168:\n      dup3\n      dup2\n      gt\n      iszero\n      tag_169\n      jumpi\n      dup3\n      mload\n      dup3\n      sstore\n      swap2\n      0x20\n      add\n      swap2\n      swap1\n      0x01\n      add\n      swap1\n      jump(tag_168)\n    tag_169:\n    tag_165:\n      pop\n      swap1\n      pop\n      tag_170\n      swap2\n      swap1\n      tag_171\n      jump\t// in\n    tag_170:\n      pop\n      swap1\n      jump\t// out\n    tag_123:\n      dup3\n      dup1\n      sload\n      dup3\n      dup3\n      sstore\n      swap1\n      0x00\n      mstore\n      keccak256(0x00, 0x20)\n      swap1\n      dup2\n      add\n      swap3\n      dup3\n      iszero\n      tag_172\n      jumpi\n      swap2\n      0x20\n      mul\n      dup3\n      add\n    tag_173:\n      dup3\n      dup2\n      gt\n      iszero\n      tag_174\n      jumpi\n      dup3\n      mload\n      dup3\n      sstore\n      swap2\n      0x20\n      add\n      swap2\n      swap1\n      0x01\n      add\n      swap1\n      jump(tag_173)\n    tag_174:\n    tag_172:\n      pop\n      swap1\n      pop\n      tag_175\n      swap2\n      swap1\n      tag_176\n      jump\t// in\n    tag_175:\n      pop\n      swap1\n      jump\t// out\n    tag_171:\n    tag_177:\n      dup1\n      dup3\n      gt\n      iszero\n      tag_178\n      jumpi\n      0x00\n      dup2\n      0x00\n      swap1\n      sstore\n      pop\n      0x01\n      add\n      jump(tag_177)\n    tag_178:\n      pop\n      swap1\n      jump\t// out\n    tag_176:\n    tag_179:\n      dup1\n      dup3\n      gt\n      iszero\n      tag_180\n      jumpi\n      0x00\n      dup2\n      0x00\n      swap1\n      sstore\n      pop\n      0x01\n      add\n      jump(tag_179)\n    tag_180:\n      pop\n      swap1\n      jump\t// out\n        /* \"#utility.yul\":24:746   */\n    tag_182:\n        /* \"#utility.yul\":120:125   */\n      0x00\n        /* \"#utility.yul\":145:226   */\n      tag_184\n        /* \"#utility.yul\":161:225   */\n      tag_185\n        /* \"#utility.yul\":218:224   */\n      dup5\n        /* \"#utility.yul\":161:225   */\n      tag_186\n      jump\t// in\n    tag_185:\n        /* \"#utility.yul\":145:226   */\n      tag_187\n      jump\t// in\n    tag_184:\n        /* \"#utility.yul\":136:226   */\n      swap1\n      pop\n        /* \"#utility.yul\":246:251   */\n      dup1\n        /* \"#utility.yul\":275:281   */\n      dup4\n        /* \"#utility.yul\":268:273   */\n      dup3\n        /* \"#utility.yul\":261:282   */\n      mstore\n        /* \"#utility.yul\":309:313   */\n      0x20\n        /* \"#utility.yul\":302:307   */\n      dup3\n        /* \"#utility.yul\":298:314   */\n      add\n        /* \"#utility.yul\":291:314   */\n      swap1\n      pop\n        /* \"#utility.yul\":335:341   */\n      dup3\n        /* \"#utility.yul\":385:388   */\n      dup6\n        /* \"#utility.yul\":377:381   */\n      0x20\n        /* \"#utility.yul\":369:375   */\n      dup7\n        /* \"#utility.yul\":365:382   */\n      mul\n        /* \"#utility.yul\":360:363   */\n      dup3\n        /* \"#utility.yul\":356:383   */\n      add\n        /* \"#utility.yul\":353:389   */\n      gt\n        /* \"#utility.yul\":350:493   */\n      iszero\n      tag_188\n      jumpi\n        /* \"#utility.yul\":404:483   */\n      tag_189\n      tag_190\n      jump\t// in\n    tag_189:\n        /* \"#utility.yul\":350:493   */\n    tag_188:\n        /* \"#utility.yul\":517:518   */\n      0x00\n        /* \"#utility.yul\":502:740   */\n    tag_191:\n        /* \"#utility.yul\":527:533   */\n      dup6\n        /* \"#utility.yul\":524:525   */\n      dup2\n        /* \"#utility.yul\":521:534   */\n      lt\n        /* \"#utility.yul\":502:740   */\n      iszero\n      tag_193\n      jumpi\n        /* \"#utility.yul\":595:598   */\n      dup2\n        /* \"#utility.yul\":624:661   */\n      tag_194\n        /* \"#utility.yul\":657:660   */\n      dup9\n        /* \"#utility.yul\":645:655   */\n      dup3\n        /* \"#utility.yul\":624:661   */\n      tag_195\n      jump\t// in\n    tag_194:\n        /* \"#utility.yul\":619:622   */\n      dup5\n        /* \"#utility.yul\":612:662   */\n      mstore\n        /* \"#utility.yul\":691:695   */\n      0x20\n        /* \"#utility.yul\":686:689   */\n      dup5\n        /* \"#utility.yul\":682:696   */\n      add\n        /* \"#utility.yul\":675:696   */\n      swap4\n      pop\n        /* \"#utility.yul\":725:729   */\n      0x20\n        /* \"#utility.yul\":720:723   */\n      dup4\n        /* \"#utility.yul\":716:730   */\n      add\n        /* \"#utility.yul\":709:730   */\n      swap3\n      pop\n        /* \"#utility.yul\":562:740   */\n      pop\n        /* \"#utility.yul\":549:550   */\n      0x01\n        /* \"#utility.yul\":546:547   */\n      dup2\n        /* \"#utility.yul\":542:551   */\n      add\n        /* \"#utility.yul\":537:551   */\n      swap1\n      pop\n        /* \"#utility.yul\":502:740   */\n      jump(tag_191)\n    tag_193:\n        /* \"#utility.yul\":506:520   */\n      pop\n        /* \"#utility.yul\":126:746   */\n      pop\n      pop\n        /* \"#utility.yul\":24:746   */\n      swap4\n      swap3\n      pop\n      pop\n      pop\n      jump\t// out\n        /* \"#utility.yul\":752:1164   */\n    tag_196:\n        /* \"#utility.yul\":830:835   */\n      0x00\n        /* \"#utility.yul\":855:921   */\n      tag_198\n        /* \"#utility.yul\":871:920   */\n      tag_199\n        /* \"#utility.yul\":913:919   */\n      dup5\n        /* \"#utility.yul\":871:920   */\n      tag_200\n      jump\t// in\n    tag_199:\n        /* \"#utility.yul\":855:921   */\n      tag_187\n      jump\t// in\n    tag_198:\n        /* \"#utility.yul\":846:921   */\n      swap1\n      pop\n        /* \"#utility.yul\":944:950   */\n      dup3\n        /* \"#utility.yul\":937:942   */\n      dup2\n        /* \"#utility.yul\":930:951   */\n      mstore\n        /* \"#utility.yul\":982:986   */\n      0x20\n        /* \"#utility.yul\":975:980   */\n      dup2\n        /* \"#utility.yul\":971:987   */\n      add\n        /* \"#utility.yul\":1020:1023   */\n      dup5\n        /* \"#utility.yul\":1011:1017   */\n      dup5\n        /* \"#utility.yul\":1006:1009   */\n      dup5\n        /* \"#utility.yul\":1002:1018   */\n      add\n        /* \"#utility.yul\":999:1024   */\n      gt\n        /* \"#utility.yul\":996:1108   */\n      iszero\n      tag_201\n      jumpi\n        /* \"#utility.yul\":1027:1106   */\n      tag_202\n      tag_203\n      jump\t// in\n    tag_202:\n        /* \"#utility.yul\":996:1108   */\n    tag_201:\n        /* \"#utility.yul\":1117:1158   */\n      tag_204\n        /* \"#utility.yul\":1151:1157   */\n      dup5\n        /* \"#utility.yul\":1146:1149   */\n      dup3\n        /* \"#utility.yul\":1141:1144   */\n      dup6\n        /* \"#utility.yul\":1117:1158   */\n      tag_205\n      jump\t// in\n    tag_204:\n        /* \"#utility.yul\":836:1164   */\n      pop\n        /* \"#utility.yul\":752:1164   */\n      swap4\n      swap3\n      pop\n      pop\n      pop\n      jump\t// out\n        /* \"#utility.yul\":1170:1309   */\n    tag_206:\n        /* \"#utility.yul\":1216:1221   */\n      0x00\n        /* \"#utility.yul\":1254:1260   */\n      dup2\n        /* \"#utility.yul\":1241:1261   */\n      calldataload\n        /* \"#utility.yul\":1232:1261   */\n      swap1\n      pop\n        /* \"#utility.yul\":1270:1303   */\n      tag_208\n        /* \"#utility.yul\":1297:1302   */\n      dup2\n        /* \"#utility.yul\":1270:1303   */\n      tag_209\n      jump\t// in\n    tag_208:\n        /* \"#utility.yul\":1170:1309   */\n      swap3\n      swap2\n      pop\n      pop\n      jump\t// out\n        /* \"#utility.yul\":1332:1702   */\n    tag_210:\n        /* \"#utility.yul\":1403:1408   */\n      0x00\n        /* \"#utility.yul\":1452:1455   */\n      dup3\n        /* \"#utility.yul\":1445:1449   */\n      0x1f\n        /* \"#utility.yul\":1437:1443   */\n      dup4\n        /* \"#utility.yul\":1433:1450   */\n      add\n        /* \"#utility.yul\":1429:1456   */\n      slt\n        /* \"#utility.yul\":1419:1541   */\n      tag_212\n      jumpi\n        /* \"#utility.yul\":1460:1539   */\n      tag_213\n      tag_214\n      jump\t// in\n    tag_213:\n        /* \"#utility.yul\":1419:1541   */\n    tag_212:\n        /* \"#utility.yul\":1577:1583   */\n      dup2\n        /* \"#utility.yul\":1564:1584   */\n      calldataload\n        /* \"#utility.yul\":1602:1696   */\n      tag_215\n        /* \"#utility.yul\":1692:1695   */\n      dup5\n        /* \"#utility.yul\":1684:1690   */\n      dup3\n        /* \"#utility.yul\":1677:1681   */\n      0x20\n        /* \"#utility.yul\":1669:1675   */\n      dup7\n        /* \"#utility.yul\":1665:1682   */\n      add\n        /* \"#utility.yul\":1602:1696   */\n      tag_182\n      jump\t// in\n    tag_215:\n        /* \"#utility.yul\":1593:1696   */\n      swap2\n      pop\n        /* \"#utility.yul\":1409:1702   */\n      pop\n        /* \"#utility.yul\":1332:1702   */\n      swap3\n      swap2\n      pop\n      pop\n      jump\t// out\n        /* \"#utility.yul\":1708:1847   */\n    tag_195:\n        /* \"#utility.yul\":1754:1759   */\n      0x00\n        /* \"#utility.yul\":1792:1798   */\n      dup2\n        /* \"#utility.yul\":1779:1799   */\n      calldataload\n        /* \"#utility.yul\":1770:1799   */\n      swap1\n      pop\n        /* \"#utility.yul\":1808:1841   */\n      tag_217\n        /* \"#utility.yul\":1835:1840   */\n      dup2\n        /* \"#utility.yul\":1808:1841   */\n      tag_218\n      jump\t// in\n    tag_217:\n        /* \"#utility.yul\":1708:1847   */\n      swap3\n      swap2\n      pop\n      pop\n      jump\t// out\n        /* \"#utility.yul\":1867:2207   */\n    tag_219:\n        /* \"#utility.yul\":1923:1928   */\n      0x00\n        /* \"#utility.yul\":1972:1975   */\n      dup3\n        /* \"#utility.yul\":1965:1969   */\n      0x1f\n        /* \"#utility.yul\":1957:1963   */\n      dup4\n        /* \"#utility.yul\":1953:1970   */\n      add\n        /* \"#utility.yul\":1949:1976   */\n      slt\n        /* \"#utility.yul\":1939:2061   */\n      tag_221\n      jumpi\n        /* \"#utility.yul\":1980:2059   */\n      tag_222\n      tag_214\n      jump\t// in\n    tag_222:\n        /* \"#utility.yul\":1939:2061   */\n    tag_221:\n        /* \"#utility.yul\":2097:2103   */\n      dup2\n        /* \"#utility.yul\":2084:2104   */\n      calldataload\n        /* \"#utility.yul\":2122:2201   */\n      tag_223\n        /* \"#utility.yul\":2197:2200   */\n      dup5\n        /* \"#utility.yul\":2189:2195   */\n      dup3\n        /* \"#utility.yul\":2182:2186   */\n      0x20\n        /* \"#utility.yul\":2174:2180   */\n      dup7\n        /* \"#utility.yul\":2170:2187   */\n      add\n        /* \"#utility.yul\":2122:2201   */\n      tag_196\n      jump\t// in\n    tag_223:\n        /* \"#utility.yul\":2113:2201   */\n      swap2\n      pop\n        /* \"#utility.yul\":1929:2207   */\n      pop\n        /* \"#utility.yul\":1867:2207   */\n      swap3\n      swap2\n      pop\n      pop\n      jump\t// out\n        /* \"#utility.yul\":2213:2352   */\n    tag_224:\n        /* \"#utility.yul\":2259:2264   */\n      0x00\n        /* \"#utility.yul\":2297:2303   */\n      dup2\n        /* \"#utility.yul\":2284:2304   */\n      calldataload\n        /* \"#utility.yul\":2275:2304   */\n      swap1\n      pop\n        /* \"#utility.yul\":2313:2346   */\n      tag_226\n        /* \"#utility.yul\":2340:2345   */\n      dup2\n        /* \"#utility.yul\":2313:2346   */\n      tag_227\n      jump\t// in\n    tag_226:\n        /* \"#utility.yul\":2213:2352   */\n      swap3\n      swap2\n      pop\n      pop\n      jump\t// out\n        /* \"#utility.yul\":2358:2687   */\n    tag_18:\n        /* \"#utility.yul\":2417:2423   */\n      0x00\n        /* \"#utility.yul\":2466:2468   */\n      0x20\n        /* \"#utility.yul\":2454:2463   */\n      dup3\n        /* \"#utility.yul\":2445:2452   */\n      dup5\n        /* \"#utility.yul\":2441:2464   */\n      sub\n        /* \"#utility.yul\":2437:2469   */\n      slt\n        /* \"#utility.yul\":2434:2553   */\n      iszero\n      tag_229\n      jumpi\n        /* \"#utility.yul\":2472:2551   */\n      tag_230\n      tag_231\n      jump\t// in\n    tag_230:\n        /* \"#utility.yul\":2434:2553   */\n    tag_229:\n        /* \"#utility.yul\":2592:2593   */\n      0x00\n        /* \"#utility.yul\":2617:2670   */\n      tag_232\n        /* \"#utility.yul\":2662:2669   */\n      dup5\n        /* \"#utility.yul\":2653:2659   */\n      dup3\n        /* \"#utility.yul\":2642:2651   */\n      dup6\n        /* \"#utility.yul\":2638:2660   */\n      add\n        /* \"#utility.yul\":2617:2670   */\n      tag_206\n      jump\t// in\n    tag_232:\n        /* \"#utility.yul\":2607:2670   */\n      swap2\n      pop\n        /* \"#utility.yul\":2563:2680   */\n      pop\n        /* \"#utility.yul\":2358:2687   */\n      swap3\n      swap2\n      pop\n      pop\n      jump\t// out\n        /* \"#utility.yul\":2693:3312   */\n    tag_28:\n        /* \"#utility.yul\":2770:2776   */\n      0x00\n        /* \"#utility.yul\":2778:2784   */\n      dup1\n        /* \"#utility.yul\":2786:2792   */\n      0x00\n        /* \"#utility.yul\":2835:2837   */\n      0x60\n        /* \"#utility.yul\":2823:2832   */\n      dup5\n        /* \"#utility.yul\":2814:2821   */\n      dup7\n        /* \"#utility.yul\":2810:2833   */\n      sub\n        /* \"#utility.yul\":2806:2838   */\n      slt\n        /* \"#utility.yul\":2803:2922   */\n      iszero\n      tag_234\n      jumpi\n        /* \"#utility.yul\":2841:2920   */\n      tag_235\n      tag_231\n      jump\t// in\n    tag_235:\n        /* \"#utility.yul\":2803:2922   */\n    tag_234:\n        /* \"#utility.yul\":2961:2962   */\n      0x00\n        /* \"#utility.yul\":2986:3039   */\n      tag_236\n        /* \"#utility.yul\":3031:3038   */\n      dup7\n        /* \"#utility.yul\":3022:3028   */\n      dup3\n        /* \"#utility.yul\":3011:3020   */\n      dup8\n        /* \"#utility.yul\":3007:3029   */\n      add\n        /* \"#utility.yul\":2986:3039   */\n      tag_206\n      jump\t// in\n    tag_236:\n        /* \"#utility.yul\":2976:3039   */\n      swap4\n      pop\n        /* \"#utility.yul\":2932:3049   */\n      pop\n        /* \"#utility.yul\":3088:3090   */\n      0x20\n        /* \"#utility.yul\":3114:3167   */\n      tag_237\n        /* \"#utility.yul\":3159:3166   */\n      dup7\n        /* \"#utility.yul\":3150:3156   */\n      dup3\n        /* \"#utility.yul\":3139:3148   */\n      dup8\n        /* \"#utility.yul\":3135:3157   */\n      add\n        /* \"#utility.yul\":3114:3167   */\n      tag_206\n      jump\t// in\n    tag_237:\n        /* \"#utility.yul\":3104:3167   */\n      swap3\n      pop\n        /* \"#utility.yul\":3059:3177   */\n      pop\n        /* \"#utility.yul\":3216:3218   */\n      0x40\n        /* \"#utility.yul\":3242:3295   */\n      tag_238\n        /* \"#utility.yul\":3287:3294   */\n      dup7\n        /* \"#utility.yul\":3278:3284   */\n      dup3\n        /* \"#utility.yul\":3267:3276   */\n      dup8\n        /* \"#utility.yul\":3263:3285   */\n      add\n        /* \"#utility.yul\":3242:3295   */\n      tag_224\n      jump\t// in\n    tag_238:\n        /* \"#utility.yul\":3232:3295   */\n      swap2\n      pop\n        /* \"#utility.yul\":3187:3305   */\n      pop\n        /* \"#utility.yul\":2693:3312   */\n      swap3\n      pop\n      swap3\n      pop\n      swap3\n      jump\t// out\n        /* \"#utility.yul\":3318:3792   */\n    tag_24:\n        /* \"#utility.yul\":3386:3392   */\n      0x00\n        /* \"#utility.yul\":3394:3400   */\n      dup1\n        /* \"#utility.yul\":3443:3445   */\n      0x40\n        /* \"#utility.yul\":3431:3440   */\n      dup4\n        /* \"#utility.yul\":3422:3429   */\n      dup6\n        /* \"#utility.yul\":3418:3441   */\n      sub\n        /* \"#utility.yul\":3414:3446   */\n      slt\n        /* \"#utility.yul\":3411:3530   */\n      iszero\n      tag_240\n      jumpi\n        /* \"#utility.yul\":3449:3528   */\n      tag_241\n      tag_231\n      jump\t// in\n    tag_241:\n        /* \"#utility.yul\":3411:3530   */\n    tag_240:\n        /* \"#utility.yul\":3569:3570   */\n      0x00\n        /* \"#utility.yul\":3594:3647   */\n      tag_242\n        /* \"#utility.yul\":3639:3646   */\n      dup6\n        /* \"#utility.yul\":3630:3636   */\n      dup3\n        /* \"#utility.yul\":3619:3628   */\n      dup7\n        /* \"#utility.yul\":3615:3637   */\n      add\n        /* \"#utility.yul\":3594:3647   */\n      tag_206\n      jump\t// in\n    tag_242:\n        /* \"#utility.yul\":3584:3647   */\n      swap3\n      pop\n        /* \"#utility.yul\":3540:3657   */\n      pop\n        /* \"#utility.yul\":3696:3698   */\n      0x20\n        /* \"#utility.yul\":3722:3775   */\n      tag_243\n        /* \"#utility.yul\":3767:3774   */\n      dup6\n        /* \"#utility.yul\":3758:3764   */\n      dup3\n        /* \"#utility.yul\":3747:3756   */\n      dup7\n        /* \"#utility.yul\":3743:3765   */\n      add\n        /* \"#utility.yul\":3722:3775   */\n      tag_224\n      jump\t// in\n    tag_243:\n        /* \"#utility.yul\":3712:3775   */\n      swap2\n      pop\n        /* \"#utility.yul\":3667:3785   */\n      pop\n        /* \"#utility.yul\":3318:3792   */\n      swap3\n      pop\n      swap3\n      swap1\n      pop\n      jump\t// out\n        /* \"#utility.yul\":3798:4807   */\n    tag_59:\n        /* \"#utility.yul\":3910:3916   */\n      0x00\n        /* \"#utility.yul\":3918:3924   */\n      dup1\n        /* \"#utility.yul\":3926:3932   */\n      0x00\n        /* \"#utility.yul\":3975:3977   */\n      0x60\n        /* \"#utility.yul\":3963:3972   */\n      dup5\n        /* \"#utility.yul\":3954:3961   */\n      dup7\n        /* \"#utility.yul\":3950:3973   */\n      sub\n        /* \"#utility.yul\":3946:3978   */\n      slt\n        /* \"#utility.yul\":3943:4062   */\n      iszero\n      tag_245\n      jumpi\n        /* \"#utility.yul\":3981:4060   */\n      tag_246\n      tag_231\n      jump\t// in\n    tag_246:\n        /* \"#utility.yul\":3943:4062   */\n    tag_245:\n        /* \"#utility.yul\":4129:4130   */\n      0x00\n        /* \"#utility.yul\":4118:4127   */\n      dup5\n        /* \"#utility.yul\":4114:4131   */\n      add\n        /* \"#utility.yul\":4101:4132   */\n      calldataload\n        /* \"#utility.yul\":4159:4177   */\n      0xffffffffffffffff\n        /* \"#utility.yul\":4151:4157   */\n      dup2\n        /* \"#utility.yul\":4148:4178   */\n      gt\n        /* \"#utility.yul\":4145:4262   */\n      iszero\n      tag_247\n      jumpi\n        /* \"#utility.yul\":4181:4260   */\n      tag_248\n      tag_249\n      jump\t// in\n    tag_248:\n        /* \"#utility.yul\":4145:4262   */\n    tag_247:\n        /* \"#utility.yul\":4286:4349   */\n      tag_250\n        /* \"#utility.yul\":4341:4348   */\n      dup7\n        /* \"#utility.yul\":4332:4338   */\n      dup3\n        /* \"#utility.yul\":4321:4330   */\n      dup8\n        /* \"#utility.yul\":4317:4339   */\n      add\n        /* \"#utility.yul\":4286:4349   */\n      tag_219\n      jump\t// in\n    tag_250:\n        /* \"#utility.yul\":4276:4349   */\n      swap4\n      pop\n        /* \"#utility.yul\":4072:4359   */\n      pop\n        /* \"#utility.yul\":4398:4400   */\n      0x20\n        /* \"#utility.yul\":4424:4477   */\n      tag_251\n        /* \"#utility.yul\":4469:4476   */\n      dup7\n        /* \"#utility.yul\":4460:4466   */\n      dup3\n        /* \"#utility.yul\":4449:4458   */\n      dup8\n        /* \"#utility.yul\":4445:4467   */\n      add\n        /* \"#utility.yul\":4424:4477   */\n      tag_224\n      jump\t// in\n    tag_251:\n        /* \"#utility.yul\":4414:4477   */\n      swap3\n      pop\n        /* \"#utility.yul\":4369:4487   */\n      pop\n        /* \"#utility.yul\":4554:4556   */\n      0x40\n        /* \"#utility.yul\":4543:4552   */\n      dup5\n        /* \"#utility.yul\":4539:4557   */\n      add\n        /* \"#utility.yul\":4526:4558   */\n      calldataload\n        /* \"#utility.yul\":4585:4603   */\n      0xffffffffffffffff\n        /* \"#utility.yul\":4577:4583   */\n      dup2\n        /* \"#utility.yul\":4574:4604   */\n      gt\n        /* \"#utility.yul\":4571:4688   */\n      iszero\n      tag_252\n      jumpi\n        /* \"#utility.yul\":4607:4686   */\n      tag_253\n      tag_249\n      jump\t// in\n    tag_253:\n        /* \"#utility.yul\":4571:4688   */\n    tag_252:\n        /* \"#utility.yul\":4712:4790   */\n      tag_254\n        /* \"#utility.yul\":4782:4789   */\n      dup7\n        /* \"#utility.yul\":4773:4779   */\n      dup3\n        /* \"#utility.yul\":4762:4771   */\n      dup8\n        /* \"#utility.yul\":4758:4780   */\n      add\n        /* \"#utility.yul\":4712:4790   */\n      tag_210\n      jump\t// in\n    tag_254:\n        /* \"#utility.yul\":4702:4790   */\n      swap2\n      pop\n        /* \"#utility.yul\":4497:4800   */\n      pop\n        /* \"#utility.yul\":3798:4807   */\n      swap3\n      pop\n      swap3\n      pop\n      swap3\n      jump\t// out\n        /* \"#utility.yul\":4813:5142   */\n    tag_33:\n        /* \"#utility.yul\":4872:4878   */\n      0x00\n        /* \"#utility.yul\":4921:4923   */\n      0x20\n        /* \"#utility.yul\":4909:4918   */\n      dup3\n        /* \"#utility.yul\":4900:4907   */\n      dup5\n        /* \"#utility.yul\":4896:4919   */\n      sub\n        /* \"#utility.yul\":4892:4924   */\n      slt\n        /* \"#utility.yul\":4889:5008   */\n      iszero\n      tag_256\n      jumpi\n        /* \"#utility.yul\":4927:5006   */\n      tag_257\n      tag_231\n      jump\t// in\n    tag_257:\n        /* \"#utility.yul\":4889:5008   */\n    tag_256:\n        /* \"#utility.yul\":5047:5048   */\n      0x00\n        /* \"#utility.yul\":5072:5125   */\n      tag_258\n        /* \"#utility.yul\":5117:5124   */\n      dup5\n        /* \"#utility.yul\":5108:5114   */\n      dup3\n        /* \"#utility.yul\":5097:5106   */\n      dup6\n        /* \"#utility.yul\":5093:5115   */\n      add\n        /* \"#utility.yul\":5072:5125   */\n      tag_224\n      jump\t// in\n    tag_258:\n        /* \"#utility.yul\":5062:5125   */\n      swap2\n      pop\n        /* \"#utility.yul\":5018:5135   */\n      pop\n        /* \"#utility.yul\":4813:5142   */\n      swap3\n      swap2\n      pop\n      pop\n      jump\t// out\n        /* \"#utility.yul\":5148:5802   */\n    tag_64:\n        /* \"#utility.yul\":5226:5232   */\n      0x00\n        /* \"#utility.yul\":5234:5240   */\n      dup1\n        /* \"#utility.yul\":5283:5285   */\n      0x40\n        /* \"#utility.yul\":5271:5280   */\n      dup4\n        /* \"#utility.yul\":5262:5269   */\n      dup6\n        /* \"#utility.yul\":5258:5281   */\n      sub\n        /* \"#utility.yul\":5254:5286   */\n      slt\n        /* \"#utility.yul\":5251:5370   */\n      iszero\n      tag_260\n      jumpi\n        /* \"#utility.yul\":5289:5368   */\n      tag_261\n      tag_231\n      jump\t// in\n    tag_261:\n        /* \"#utility.yul\":5251:5370   */\n    tag_260:\n        /* \"#utility.yul\":5409:5410   */\n      0x00\n        /* \"#utility.yul\":5434:5487   */\n      tag_262\n        /* \"#utility.yul\":5479:5486   */\n      dup6\n        /* \"#utility.yul\":5470:5476   */\n      dup3\n        /* \"#utility.yul\":5459:5468   */\n      dup7\n        /* \"#utility.yul\":5455:5477   */\n      add\n        /* \"#utility.yul\":5434:5487   */\n      tag_224\n      jump\t// in\n    tag_262:\n        /* \"#utility.yul\":5424:5487   */\n      swap3\n      pop\n        /* \"#utility.yul\":5380:5497   */\n      pop\n        /* \"#utility.yul\":5564:5566   */\n      0x20\n        /* \"#utility.yul\":5553:5562   */\n      dup4\n        /* \"#utility.yul\":5549:5567   */\n      add\n        /* \"#utility.yul\":5536:5568   */\n      calldataload\n        /* \"#utility.yul\":5595:5613   */\n      0xffffffffffffffff\n        /* \"#utility.yul\":5587:5593   */\n      dup2\n        /* \"#utility.yul\":5584:5614   */\n      gt\n        /* \"#utility.yul\":5581:5698   */\n      iszero\n      tag_263\n      jumpi\n        /* \"#utility.yul\":5617:5696   */\n      tag_264\n      tag_249\n      jump\t// in\n    tag_264:\n        /* \"#utility.yul\":5581:5698   */\n    tag_263:\n        /* \"#utility.yul\":5722:5785   */\n      tag_265\n        /* \"#utility.yul\":5777:5784   */\n      dup6\n        /* \"#utility.yul\":5768:5774   */\n      dup3\n        /* \"#utility.yul\":5757:5766   */\n      dup7\n        /* \"#utility.yul\":5753:5775   */\n      add\n        /* \"#utility.yul\":5722:5785   */\n      tag_219\n      jump\t// in\n    tag_265:\n        /* \"#utility.yul\":5712:5785   */\n      swap2\n      pop\n        /* \"#utility.yul\":5507:5795   */\n      pop\n        /* \"#utility.yul\":5148:5802   */\n      swap3\n      pop\n      swap3\n      swap1\n      pop\n      jump\t// out\n        /* \"#utility.yul\":5808:6282   */\n    tag_73:\n        /* \"#utility.yul\":5876:5882   */\n      0x00\n        /* \"#utility.yul\":5884:5890   */\n      dup1\n        /* \"#utility.yul\":5933:5935   */\n      0x40\n        /* \"#utility.yul\":5921:5930   */\n      dup4\n        /* \"#utility.yul\":5912:5919   */\n      dup6\n        /* \"#utility.yul\":5908:5931   */\n      sub\n        /* \"#utility.yul\":5904:5936   */\n      slt\n        /* \"#utility.yul\":5901:6020   */\n      iszero\n      tag_267\n      jumpi\n        /* \"#utility.yul\":5939:6018   */\n      tag_268\n      tag_231\n      jump\t// in\n    tag_268:\n        /* \"#utility.yul\":5901:6020   */\n    tag_267:\n        /* \"#utility.yul\":6059:6060   */\n      0x00\n        /* \"#utility.yul\":6084:6137   */\n      tag_269\n        /* \"#utility.yul\":6129:6136   */\n      dup6\n        /* \"#utility.yul\":6120:6126   */\n      dup3\n        /* \"#utility.yul\":6109:6118   */\n      dup7\n        /* \"#utility.yul\":6105:6127   */\n      add\n        /* \"#utility.yul\":6084:6137   */\n      tag_224\n      jump\t// in\n    tag_269:\n        /* \"#utility.yul\":6074:6137   */\n      swap3\n      pop\n        /* \"#utility.yul\":6030:6147   */\n      pop\n        /* \"#utility.yul\":6186:6188   */\n      0x20\n        /* \"#utility.yul\":6212:6265   */\n      tag_270\n        /* \"#utility.yul\":6257:6264   */\n      dup6\n        /* \"#utility.yul\":6248:6254   */\n      dup3\n        /* \"#utility.yul\":6237:6246   */\n      dup7\n        /* \"#utility.yul\":6233:6255   */\n      add\n        /* \"#utility.yul\":6212:6265   */\n      tag_224\n      jump\t// in\n    tag_270:\n        /* \"#utility.yul\":6202:6265   */\n      swap2\n      pop\n        /* \"#utility.yul\":6157:6275   */\n      pop\n        /* \"#utility.yul\":5808:6282   */\n      swap3\n      pop\n      swap3\n      swap1\n      pop\n      jump\t// out\n        /* \"#utility.yul\":6288:6467   */\n    tag_271:\n        /* \"#utility.yul\":6357:6367   */\n      0x00\n        /* \"#utility.yul\":6378:6424   */\n      tag_273\n        /* \"#utility.yul\":6420:6423   */\n      dup4\n        /* \"#utility.yul\":6412:6418   */\n      dup4\n        /* \"#utility.yul\":6378:6424   */\n      tag_274\n      jump\t// in\n    tag_273:\n        /* \"#utility.yul\":6456:6460   */\n      0x20\n        /* \"#utility.yul\":6451:6454   */\n      dup4\n        /* \"#utility.yul\":6447:6461   */\n      add\n        /* \"#utility.yul\":6433:6461   */\n      swap1\n      pop\n        /* \"#utility.yul\":6288:6467   */\n      swap3\n      swap2\n      pop\n      pop\n      jump\t// out\n        /* \"#utility.yul\":6473:6591   */\n    tag_275:\n        /* \"#utility.yul\":6560:6584   */\n      tag_277\n        /* \"#utility.yul\":6578:6583   */\n      dup2\n        /* \"#utility.yul\":6560:6584   */\n      tag_278\n      jump\t// in\n    tag_277:\n        /* \"#utility.yul\":6555:6558   */\n      dup3\n        /* \"#utility.yul\":6548:6585   */\n      mstore\n        /* \"#utility.yul\":6473:6591   */\n      pop\n      pop\n      jump\t// out\n        /* \"#utility.yul\":6627:7359   */\n    tag_279:\n        /* \"#utility.yul\":6746:6749   */\n      0x00\n        /* \"#utility.yul\":6775:6829   */\n      tag_281\n        /* \"#utility.yul\":6823:6828   */\n      dup3\n        /* \"#utility.yul\":6775:6829   */\n      tag_282\n      jump\t// in\n    tag_281:\n        /* \"#utility.yul\":6845:6931   */\n      tag_283\n        /* \"#utility.yul\":6924:6930   */\n      dup2\n        /* \"#utility.yul\":6919:6922   */\n      dup6\n        /* \"#utility.yul\":6845:6931   */\n      tag_284\n      jump\t// in\n    tag_283:\n        /* \"#utility.yul\":6838:6931   */\n      swap4\n      pop\n        /* \"#utility.yul\":6955:7011   */\n      tag_285\n        /* \"#utility.yul\":7005:7010   */\n      dup4\n        /* \"#utility.yul\":6955:7011   */\n      tag_286\n      jump\t// in\n    tag_285:\n        /* \"#utility.yul\":7034:7041   */\n      dup1\n        /* \"#utility.yul\":7065:7066   */\n      0x00\n        /* \"#utility.yul\":7050:7334   */\n    tag_287:\n        /* \"#utility.yul\":7075:7081   */\n      dup4\n        /* \"#utility.yul\":7072:7073   */\n      dup2\n        /* \"#utility.yul\":7069:7082   */\n      lt\n        /* \"#utility.yul\":7050:7334   */\n      iszero\n      tag_289\n      jumpi\n        /* \"#utility.yul\":7151:7157   */\n      dup2\n        /* \"#utility.yul\":7145:7158   */\n      mload\n        /* \"#utility.yul\":7178:7241   */\n      tag_290\n        /* \"#utility.yul\":7237:7240   */\n      dup9\n        /* \"#utility.yul\":7222:7235   */\n      dup3\n        /* \"#utility.yul\":7178:7241   */\n      tag_271\n      jump\t// in\n    tag_290:\n        /* \"#utility.yul\":7171:7241   */\n      swap8\n      pop\n        /* \"#utility.yul\":7264:7324   */\n      tag_291\n        /* \"#utility.yul\":7317:7323   */\n      dup4\n        /* \"#utility.yul\":7264:7324   */\n      tag_292\n      jump\t// in\n    tag_291:\n        /* \"#utility.yul\":7254:7324   */\n      swap3\n      pop\n        /* \"#utility.yul\":7110:7334   */\n      pop\n        /* \"#utility.yul\":7097:7098   */\n      0x01\n        /* \"#utility.yul\":7094:7095   */\n      dup2\n        /* \"#utility.yul\":7090:7099   */\n      add\n        /* \"#utility.yul\":7085:7099   */\n      swap1\n      pop\n        /* \"#utility.yul\":7050:7334   */\n      jump(tag_287)\n    tag_289:\n        /* \"#utility.yul\":7054:7068   */\n      pop\n        /* \"#utility.yul\":7350:7353   */\n      dup6\n        /* \"#utility.yul\":7343:7353   */\n      swap4\n      pop\n        /* \"#utility.yul\":6751:7359   */\n      pop\n      pop\n      pop\n        /* \"#utility.yul\":6627:7359   */\n      swap3\n      swap2\n      pop\n      pop\n      jump\t// out\n        /* \"#utility.yul\":7365:7729   */\n    tag_293:\n        /* \"#utility.yul\":7453:7456   */\n      0x00\n        /* \"#utility.yul\":7481:7520   */\n      tag_295\n        /* \"#utility.yul\":7514:7519   */\n      dup3\n        /* \"#utility.yul\":7481:7520   */\n      tag_296\n      jump\t// in\n    tag_295:\n        /* \"#utility.yul\":7536:7607   */\n      tag_297\n        /* \"#utility.yul\":7600:7606   */\n      dup2\n        /* \"#utility.yul\":7595:7598   */\n      dup6\n        /* \"#utility.yul\":7536:7607   */\n      tag_298\n      jump\t// in\n    tag_297:\n        /* \"#utility.yul\":7529:7607   */\n      swap4\n      pop\n        /* \"#utility.yul\":7616:7668   */\n      tag_299\n        /* \"#utility.yul\":7661:7667   */\n      dup2\n        /* \"#utility.yul\":7656:7659   */\n      dup6\n        /* \"#utility.yul\":7649:7653   */\n      0x20\n        /* \"#utility.yul\":7642:7647   */\n      dup7\n        /* \"#utility.yul\":7638:7654   */\n      add\n        /* \"#utility.yul\":7616:7668   */\n      tag_300\n      jump\t// in\n    tag_299:\n        /* \"#utility.yul\":7693:7722   */\n      tag_301\n        /* \"#utility.yul\":7715:7721   */\n      dup2\n        /* \"#utility.yul\":7693:7722   */\n      tag_302\n      jump\t// in\n    tag_301:\n        /* \"#utility.yul\":7688:7691   */\n      dup5\n        /* \"#utility.yul\":7684:7723   */\n      add\n        /* \"#utility.yul\":7677:7723   */\n      swap2\n      pop\n        /* \"#utility.yul\":7457:7729   */\n      pop\n        /* \"#utility.yul\":7365:7729   */\n      swap3\n      swap2\n      pop\n      pop\n      jump\t// out\n        /* \"#utility.yul\":7735:8101   */\n    tag_303:\n        /* \"#utility.yul\":7877:7880   */\n      0x00\n        /* \"#utility.yul\":7898:7965   */\n      tag_305\n        /* \"#utility.yul\":7962:7964   */\n      0x26\n        /* \"#utility.yul\":7957:7960   */\n      dup4\n        /* \"#utility.yul\":7898:7965   */\n      tag_298\n      jump\t// in\n    tag_305:\n        /* \"#utility.yul\":7891:7965   */\n      swap2\n      pop\n        /* \"#utility.yul\":7974:8067   */\n      tag_306\n        /* \"#utility.yul\":8063:8066   */\n      dup3\n        /* \"#utility.yul\":7974:8067   */\n      tag_307\n      jump\t// in\n    tag_306:\n        /* \"#utility.yul\":8092:8094   */\n      0x40\n        /* \"#utility.yul\":8087:8090   */\n      dup3\n        /* \"#utility.yul\":8083:8095   */\n      add\n        /* \"#utility.yul\":8076:8095   */\n      swap1\n      pop\n        /* \"#utility.yul\":7735:8101   */\n      swap2\n      swap1\n      pop\n      jump\t// out\n        /* \"#utility.yul\":8107:8473   */\n    tag_308:\n        /* \"#utility.yul\":8249:8252   */\n      0x00\n        /* \"#utility.yul\":8270:8337   */\n      tag_310\n        /* \"#utility.yul\":8334:8336   */\n      0x20\n        /* \"#utility.yul\":8329:8332   */\n      dup4\n        /* \"#utility.yul\":8270:8337   */\n      tag_298\n      jump\t// in\n    tag_310:\n        /* \"#utility.yul\":8263:8337   */\n      swap2\n      pop\n        /* \"#utility.yul\":8346:8439   */\n      tag_311\n        /* \"#utility.yul\":8435:8438   */\n      dup3\n        /* \"#utility.yul\":8346:8439   */\n      tag_312\n      jump\t// in\n    tag_311:\n        /* \"#utility.yul\":8464:8466   */\n      0x20\n        /* \"#utility.yul\":8459:8462   */\n      dup3\n        /* \"#utility.yul\":8455:8467   */\n      add\n        /* \"#utility.yul\":8448:8467   */\n      swap1\n      pop\n        /* \"#utility.yul\":8107:8473   */\n      swap2\n      swap1\n      pop\n      jump\t// out\n        /* \"#utility.yul\":8479:8587   */\n    tag_274:\n        /* \"#utility.yul\":8556:8580   */\n      tag_314\n        /* \"#utility.yul\":8574:8579   */\n      dup2\n        /* \"#utility.yul\":8556:8580   */\n      tag_315\n      jump\t// in\n    tag_314:\n        /* \"#utility.yul\":8551:8554   */\n      dup3\n        /* \"#utility.yul\":8544:8581   */\n      mstore\n        /* \"#utility.yul\":8479:8587   */\n      pop\n      pop\n      jump\t// out\n        /* \"#utility.yul\":8593:8711   */\n    tag_316:\n        /* \"#utility.yul\":8680:8704   */\n      tag_318\n        /* \"#utility.yul\":8698:8703   */\n      dup2\n        /* \"#utility.yul\":8680:8704   */\n      tag_315\n      jump\t// in\n    tag_318:\n        /* \"#utility.yul\":8675:8678   */\n      dup3\n        /* \"#utility.yul\":8668:8705   */\n      mstore\n        /* \"#utility.yul\":8593:8711   */\n      pop\n      pop\n      jump\t// out\n        /* \"#utility.yul\":8717:8939   */\n    tag_42:\n        /* \"#utility.yul\":8810:8814   */\n      0x00\n        /* \"#utility.yul\":8848:8850   */\n      0x20\n        /* \"#utility.yul\":8837:8846   */\n      dup3\n        /* \"#utility.yul\":8833:8851   */\n      add\n        /* \"#utility.yul\":8825:8851   */\n      swap1\n      pop\n        /* \"#utility.yul\":8861:8932   */\n      tag_320\n        /* \"#utility.yul\":8929:8930   */\n      0x00\n        /* \"#utility.yul\":8918:8927   */\n      dup4\n        /* \"#utility.yul\":8914:8931   */\n      add\n        /* \"#utility.yul\":8905:8911   */\n      dup5\n        /* \"#utility.yul\":8861:8932   */\n      tag_275\n      jump\t// in\n    tag_320:\n        /* \"#utility.yul\":8717:8939   */\n      swap3\n      swap2\n      pop\n      pop\n      jump\t// out\n        /* \"#utility.yul\":8945:9318   */\n    tag_21:\n        /* \"#utility.yul\":9088:9092   */\n      0x00\n        /* \"#utility.yul\":9126:9128   */\n      0x20\n        /* \"#utility.yul\":9115:9124   */\n      dup3\n        /* \"#utility.yul\":9111:9129   */\n      add\n        /* \"#utility.yul\":9103:9129   */\n      swap1\n      pop\n        /* \"#utility.yul\":9175:9184   */\n      dup2\n        /* \"#utility.yul\":9169:9173   */\n      dup2\n        /* \"#utility.yul\":9165:9185   */\n      sub\n        /* \"#utility.yul\":9161:9162   */\n      0x00\n        /* \"#utility.yul\":9150:9159   */\n      dup4\n        /* \"#utility.yul\":9146:9163   */\n      add\n        /* \"#utility.yul\":9139:9186   */\n      mstore\n        /* \"#utility.yul\":9203:9311   */\n      tag_322\n        /* \"#utility.yul\":9306:9310   */\n      dup2\n        /* \"#utility.yul\":9297:9303   */\n      dup5\n        /* \"#utility.yul\":9203:9311   */\n      tag_279\n      jump\t// in\n    tag_322:\n        /* \"#utility.yul\":9195:9311   */\n      swap1\n      pop\n        /* \"#utility.yul\":8945:9318   */\n      swap3\n      swap2\n      pop\n      pop\n      jump\t// out\n        /* \"#utility.yul\":9324:9747   */\n    tag_36:\n        /* \"#utility.yul\":9465:9469   */\n      0x00\n        /* \"#utility.yul\":9503:9505   */\n      0x40\n        /* \"#utility.yul\":9492:9501   */\n      dup3\n        /* \"#utility.yul\":9488:9506   */\n      add\n        /* \"#utility.yul\":9480:9506   */\n      swap1\n      pop\n        /* \"#utility.yul\":9552:9561   */\n      dup2\n        /* \"#utility.yul\":9546:9550   */\n      dup2\n        /* \"#utility.yul\":9542:9562   */\n      sub\n        /* \"#utility.yul\":9538:9539   */\n      0x00\n        /* \"#utility.yul\":9527:9536   */\n      dup4\n        /* \"#utility.yul\":9523:9540   */\n      add\n        /* \"#utility.yul\":9516:9563   */\n      mstore\n        /* \"#utility.yul\":9580:9658   */\n      tag_324\n        /* \"#utility.yul\":9653:9657   */\n      dup2\n        /* \"#utility.yul\":9644:9650   */\n      dup6\n        /* \"#utility.yul\":9580:9658   */\n      tag_293\n      jump\t// in\n    tag_324:\n        /* \"#utility.yul\":9572:9658   */\n      swap1\n      pop\n        /* \"#utility.yul\":9668:9740   */\n      tag_325\n        /* \"#utility.yul\":9736:9738   */\n      0x20\n        /* \"#utility.yul\":9725:9734   */\n      dup4\n        /* \"#utility.yul\":9721:9739   */\n      add\n        /* \"#utility.yul\":9712:9718   */\n      dup5\n        /* \"#utility.yul\":9668:9740   */\n      tag_316\n      jump\t// in\n    tag_325:\n        /* \"#utility.yul\":9324:9747   */\n      swap4\n      swap3\n      pop\n      pop\n      pop\n      jump\t// out\n        /* \"#utility.yul\":9753:10172   */\n    tag_144:\n        /* \"#utility.yul\":9919:9923   */\n      0x00\n        /* \"#utility.yul\":9957:9959   */\n      0x20\n        /* \"#utility.yul\":9946:9955   */\n      dup3\n        /* \"#utility.yul\":9942:9960   */\n      add\n        /* \"#utility.yul\":9934:9960   */\n      swap1\n      pop\n        /* \"#utility.yul\":10006:10015   */\n      dup2\n        /* \"#utility.yul\":10000:10004   */\n      dup2\n        /* \"#utility.yul\":9996:10016   */\n      sub\n        /* \"#utility.yul\":9992:9993   */\n      0x00\n        /* \"#utility.yul\":9981:9990   */\n      dup4\n        /* \"#utility.yul\":9977:9994   */\n      add\n        /* \"#utility.yul\":9970:10017   */\n      mstore\n        /* \"#utility.yul\":10034:10165   */\n      tag_327\n        /* \"#utility.yul\":10160:10164   */\n      dup2\n        /* \"#utility.yul\":10034:10165   */\n      tag_303\n      jump\t// in\n    tag_327:\n        /* \"#utility.yul\":10026:10165   */\n      swap1\n      pop\n        /* \"#utility.yul\":9753:10172   */\n      swap2\n      swap1\n      pop\n      jump\t// out\n        /* \"#utility.yul\":10178:10597   */\n    tag_113:\n        /* \"#utility.yul\":10344:10348   */\n      0x00\n        /* \"#utility.yul\":10382:10384   */\n      0x20\n        /* \"#utility.yul\":10371:10380   */\n      dup3\n        /* \"#utility.yul\":10367:10385   */\n      add\n        /* \"#utility.yul\":10359:10385   */\n      swap1\n      pop\n        /* \"#utility.yul\":10431:10440   */\n      dup2\n        /* \"#utility.yul\":10425:10429   */\n      dup2\n        /* \"#utility.yul\":10421:10441   */\n      sub\n        /* \"#utility.yul\":10417:10418   */\n      0x00\n        /* \"#utility.yul\":10406:10415   */\n      dup4\n        /* \"#utility.yul\":10402:10419   */\n      add\n        /* \"#utility.yul\":10395:10442   */\n      mstore\n        /* \"#utility.yul\":10459:10590   */\n      tag_329\n        /* \"#utility.yul\":10585:10589   */\n      dup2\n        /* \"#utility.yul\":10459:10590   */\n      tag_308\n      jump\t// in\n    tag_329:\n        /* \"#utility.yul\":10451:10590   */\n      swap1\n      pop\n        /* \"#utility.yul\":10178:10597   */\n      swap2\n      swap1\n      pop\n      jump\t// out\n        /* \"#utility.yul\":10603:10825   */\n    tag_48:\n        /* \"#utility.yul\":10696:10700   */\n      0x00\n        /* \"#utility.yul\":10734:10736   */\n      0x20\n        /* \"#utility.yul\":10723:10732   */\n      dup3\n        /* \"#utility.yul\":10719:10737   */\n      add\n        /* \"#utility.yul\":10711:10737   */\n      swap1\n      pop\n        /* \"#utility.yul\":10747:10818   */\n      tag_331\n        /* \"#utility.yul\":10815:10816   */\n      0x00\n        /* \"#utility.yul\":10804:10813   */\n      dup4\n        /* \"#utility.yul\":10800:10817   */\n      add\n        /* \"#utility.yul\":10791:10797   */\n      dup5\n        /* \"#utility.yul\":10747:10818   */\n      tag_316\n      jump\t// in\n    tag_331:\n        /* \"#utility.yul\":10603:10825   */\n      swap3\n      swap2\n      pop\n      pop\n      jump\t// out\n        /* \"#utility.yul\":10831:11254   */\n    tag_128:\n        /* \"#utility.yul\":10972:10976   */\n      0x00\n        /* \"#utility.yul\":11010:11012   */\n      0x40\n        /* \"#utility.yul\":10999:11008   */\n      dup3\n        /* \"#utility.yul\":10995:11013   */\n      add\n        /* \"#utility.yul\":10987:11013   */\n      swap1\n      pop\n        /* \"#utility.yul\":11023:11094   */\n      tag_333\n        /* \"#utility.yul\":11091:11092   */\n      0x00\n        /* \"#utility.yul\":11080:11089   */\n      dup4\n        /* \"#utility.yul\":11076:11093   */\n      add\n        /* \"#utility.yul\":11067:11073   */\n      dup6\n        /* \"#utility.yul\":11023:11094   */\n      tag_316\n      jump\t// in\n    tag_333:\n        /* \"#utility.yul\":11141:11150   */\n      dup2\n        /* \"#utility.yul\":11135:11139   */\n      dup2\n        /* \"#utility.yul\":11131:11151   */\n      sub\n        /* \"#utility.yul\":11126:11128   */\n      0x20\n        /* \"#utility.yul\":11115:11124   */\n      dup4\n        /* \"#utility.yul\":11111:11129   */\n      add\n        /* \"#utility.yul\":11104:11152   */\n      mstore\n        /* \"#utility.yul\":11169:11247   */\n      tag_334\n        /* \"#utility.yul\":11242:11246   */\n      dup2\n        /* \"#utility.yul\":11233:11239   */\n      dup5\n        /* \"#utility.yul\":11169:11247   */\n      tag_293\n      jump\t// in\n    tag_334:\n        /* \"#utility.yul\":11161:11247   */\n      swap1\n      pop\n        /* \"#utility.yul\":10831:11254   */\n      swap4\n      swap3\n      pop\n      pop\n      pop\n      jump\t// out\n        /* \"#utility.yul\":11260:11389   */\n    tag_187:\n        /* \"#utility.yul\":11294:11300   */\n      0x00\n        /* \"#utility.yul\":11321:11341   */\n      tag_336\n      tag_337\n      jump\t// in\n    tag_336:\n        /* \"#utility.yul\":11311:11341   */\n      swap1\n      pop\n        /* \"#utility.yul\":11350:11383   */\n      tag_338\n        /* \"#utility.yul\":11378:11382   */\n      dup3\n        /* \"#utility.yul\":11370:11376   */\n      dup3\n        /* \"#utility.yul\":11350:11383   */\n      tag_339\n      jump\t// in\n    tag_338:\n        /* \"#utility.yul\":11260:11389   */\n      swap2\n      swap1\n      pop\n      jump\t// out\n        /* \"#utility.yul\":11395:11470   */\n    tag_337:\n        /* \"#utility.yul\":11428:11434   */\n      0x00\n        /* \"#utility.yul\":11461:11463   */\n      0x40\n        /* \"#utility.yul\":11455:11464   */\n      mload\n        /* \"#utility.yul\":11445:11464   */\n      swap1\n      pop\n        /* \"#utility.yul\":11395:11470   */\n      swap1\n      jump\t// out\n        /* \"#utility.yul\":11476:11787   */\n    tag_186:\n        /* \"#utility.yul\":11553:11557   */\n      0x00\n        /* \"#utility.yul\":11643:11661   */\n      0xffffffffffffffff\n        /* \"#utility.yul\":11635:11641   */\n      dup3\n        /* \"#utility.yul\":11632:11662   */\n      gt\n        /* \"#utility.yul\":11629:11685   */\n      iszero\n      tag_342\n      jumpi\n        /* \"#utility.yul\":11665:11683   */\n      tag_343\n      tag_78\n      jump\t// in\n    tag_343:\n        /* \"#utility.yul\":11629:11685   */\n    tag_342:\n        /* \"#utility.yul\":11715:11719   */\n      0x20\n        /* \"#utility.yul\":11707:11713   */\n      dup3\n        /* \"#utility.yul\":11703:11720   */\n      mul\n        /* \"#utility.yul\":11695:11720   */\n      swap1\n      pop\n        /* \"#utility.yul\":11775:11779   */\n      0x20\n        /* \"#utility.yul\":11769:11773   */\n      dup2\n        /* \"#utility.yul\":11765:11780   */\n      add\n        /* \"#utility.yul\":11757:11780   */\n      swap1\n      pop\n        /* \"#utility.yul\":11476:11787   */\n      swap2\n      swap1\n      pop\n      jump\t// out\n        /* \"#utility.yul\":11793:12101   */\n    tag_200:\n        /* \"#utility.yul\":11855:11859   */\n      0x00\n        /* \"#utility.yul\":11945:11963   */\n      0xffffffffffffffff\n        /* \"#utility.yul\":11937:11943   */\n      dup3\n        /* \"#utility.yul\":11934:11964   */\n      gt\n        /* \"#utility.yul\":11931:11987   */\n      iszero\n      tag_345\n      jumpi\n        /* \"#utility.yul\":11967:11985   */\n      tag_346\n      tag_78\n      jump\t// in\n    tag_346:\n        /* \"#utility.yul\":11931:11987   */\n    tag_345:\n        /* \"#utility.yul\":12005:12034   */\n      tag_347\n        /* \"#utility.yul\":12027:12033   */\n      dup3\n        /* \"#utility.yul\":12005:12034   */\n      tag_302\n      jump\t// in\n    tag_347:\n        /* \"#utility.yul\":11997:12034   */\n      swap1\n      pop\n        /* \"#utility.yul\":12089:12093   */\n      0x20\n        /* \"#utility.yul\":12083:12087   */\n      dup2\n        /* \"#utility.yul\":12079:12094   */\n      add\n        /* \"#utility.yul\":12071:12094   */\n      swap1\n      pop\n        /* \"#utility.yul\":11793:12101   */\n      swap2\n      swap1\n      pop\n      jump\t// out\n        /* \"#utility.yul\":12107:12239   */\n    tag_286:\n        /* \"#utility.yul\":12174:12178   */\n      0x00\n        /* \"#utility.yul\":12197:12200   */\n      dup2\n        /* \"#utility.yul\":12189:12200   */\n      swap1\n      pop\n        /* \"#utility.yul\":12227:12231   */\n      0x20\n        /* \"#utility.yul\":12222:12225   */\n      dup3\n        /* \"#utility.yul\":12218:12232   */\n      add\n        /* \"#utility.yul\":12210:12232   */\n      swap1\n      pop\n        /* \"#utility.yul\":12107:12239   */\n      swap2\n      swap1\n      pop\n      jump\t// out\n        /* \"#utility.yul\":12245:12359   */\n    tag_282:\n        /* \"#utility.yul\":12312:12318   */\n      0x00\n        /* \"#utility.yul\":12346:12351   */\n      dup2\n        /* \"#utility.yul\":12340:12352   */\n      mload\n        /* \"#utility.yul\":12330:12352   */\n      swap1\n      pop\n        /* \"#utility.yul\":12245:12359   */\n      swap2\n      swap1\n      pop\n      jump\t// out\n        /* \"#utility.yul\":12365:12464   */\n    tag_296:\n        /* \"#utility.yul\":12417:12423   */\n      0x00\n        /* \"#utility.yul\":12451:12456   */\n      dup2\n        /* \"#utility.yul\":12445:12457   */\n      mload\n        /* \"#utility.yul\":12435:12457   */\n      swap1\n      pop\n        /* \"#utility.yul\":12365:12464   */\n      swap2\n      swap1\n      pop\n      jump\t// out\n        /* \"#utility.yul\":12470:12583   */\n    tag_292:\n        /* \"#utility.yul\":12540:12544   */\n      0x00\n        /* \"#utility.yul\":12572:12576   */\n      0x20\n        /* \"#utility.yul\":12567:12570   */\n      dup3\n        /* \"#utility.yul\":12563:12577   */\n      add\n        /* \"#utility.yul\":12555:12577   */\n      swap1\n      pop\n        /* \"#utility.yul\":12470:12583   */\n      swap2\n      swap1\n      pop\n      jump\t// out\n        /* \"#utility.yul\":12589:12773   */\n    tag_284:\n        /* \"#utility.yul\":12688:12699   */\n      0x00\n        /* \"#utility.yul\":12722:12728   */\n      dup3\n        /* \"#utility.yul\":12717:12720   */\n      dup3\n        /* \"#utility.yul\":12710:12729   */\n      mstore\n        /* \"#utility.yul\":12762:12766   */\n      0x20\n        /* \"#utility.yul\":12757:12760   */\n      dup3\n        /* \"#utility.yul\":12753:12767   */\n      add\n        /* \"#utility.yul\":12738:12767   */\n      swap1\n      pop\n        /* \"#utility.yul\":12589:12773   */\n      swap3\n      swap2\n      pop\n      pop\n      jump\t// out\n        /* \"#utility.yul\":12779:12948   */\n    tag_298:\n        /* \"#utility.yul\":12863:12874   */\n      0x00\n        /* \"#utility.yul\":12897:12903   */\n      dup3\n        /* \"#utility.yul\":12892:12895   */\n      dup3\n        /* \"#utility.yul\":12885:12904   */\n      mstore\n        /* \"#utility.yul\":12937:12941   */\n      0x20\n        /* \"#utility.yul\":12932:12935   */\n      dup3\n        /* \"#utility.yul\":12928:12942   */\n      add\n        /* \"#utility.yul\":12913:12942   */\n      swap1\n      pop\n        /* \"#utility.yul\":12779:12948   */\n      swap3\n      swap2\n      pop\n      pop\n      jump\t// out\n        /* \"#utility.yul\":12954:13259   */\n    tag_154:\n        /* \"#utility.yul\":12994:12997   */\n      0x00\n        /* \"#utility.yul\":13013:13033   */\n      tag_355\n        /* \"#utility.yul\":13031:13032   */\n      dup3\n        /* \"#utility.yul\":13013:13033   */\n      tag_315\n      jump\t// in\n    tag_355:\n        /* \"#utility.yul\":13008:13033   */\n      swap2\n      pop\n        /* \"#utility.yul\":13047:13067   */\n      tag_356\n        /* \"#utility.yul\":13065:13066   */\n      dup4\n        /* \"#utility.yul\":13047:13067   */\n      tag_315\n      jump\t// in\n    tag_356:\n        /* \"#utility.yul\":13042:13067   */\n      swap3\n      pop\n        /* \"#utility.yul\":13201:13202   */\n      dup3\n        /* \"#utility.yul\":13133:13199   */\n      0xffffffffffffffffffffffffffffffffffffffffffffffffffffffffffffffff\n        /* \"#utility.yul\":13129:13203   */\n      sub\n        /* \"#utility.yul\":13126:13127   */\n      dup3\n        /* \"#utility.yul\":13123:13204   */\n      gt\n        /* \"#utility.yul\":13120:13227   */\n      iszero\n      tag_357\n      jumpi\n        /* \"#utility.yul\":13207:13225   */\n      tag_358\n      tag_359\n      jump\t// in\n    tag_358:\n        /* \"#utility.yul\":13120:13227   */\n    tag_357:\n        /* \"#utility.yul\":13251:13252   */\n      dup3\n        /* \"#utility.yul\":13248:13249   */\n      dup3\n        /* \"#utility.yul\":13244:13253   */\n      add\n        /* \"#utility.yul\":13237:13253   */\n      swap1\n      pop\n        /* \"#utility.yul\":12954:13259   */\n      swap3\n      swap2\n      pop\n      pop\n      jump\t// out\n        /* \"#utility.yul\":13265:13456   */\n    tag_163:\n        /* \"#utility.yul\":13305:13309   */\n      0x00\n        /* \"#utility.yul\":13325:13345   */\n      tag_361\n        /* \"#utility.yul\":13343:13344   */\n      dup3\n        /* \"#utility.yul\":13325:13345   */\n      tag_315\n      jump\t// in\n    tag_361:\n        /* \"#utility.yul\":13320:13345   */\n      swap2\n      pop\n        /* \"#utility.yul\":13359:13379   */\n      tag_362\n        /* \"#utility.yul\":13377:13378   */\n      dup4\n        /* \"#utility.yul\":13359:13379   */\n      tag_315\n      jump\t// in\n    tag_362:\n        /* \"#utility.yul\":13354:13379   */\n      swap3\n      pop\n        /* \"#utility.yul\":13398:13399   */\n      dup3\n        /* \"#utility.yul\":13395:13396   */\n      dup3\n        /* \"#utility.yul\":13392:13400   */\n      lt\n        /* \"#utility.yul\":13389:13423   */\n      iszero\n      tag_363\n      jumpi\n        /* \"#utility.yul\":13403:13421   */\n      tag_364\n      tag_359\n      jump\t// in\n    tag_364:\n        /* \"#utility.yul\":13389:13423   */\n    tag_363:\n        /* \"#utility.yul\":13448:13449   */\n      dup3\n        /* \"#utility.yul\":13445:13446   */\n      dup3\n        /* \"#utility.yul\":13441:13450   */\n      sub\n        /* \"#utility.yul\":13433:13450   */\n      swap1\n      pop\n        /* \"#utility.yul\":13265:13456   */\n      swap3\n      swap2\n      pop\n      pop\n      jump\t// out\n        /* \"#utility.yul\":13462:13558   */\n    tag_278:\n        /* \"#utility.yul\":13499:13506   */\n      0x00\n        /* \"#utility.yul\":13528:13552   */\n      tag_366\n        /* \"#utility.yul\":13546:13551   */\n      dup3\n        /* \"#utility.yul\":13528:13552   */\n      tag_367\n      jump\t// in\n    tag_366:\n        /* \"#utility.yul\":13517:13552   */\n      swap1\n      pop\n        /* \"#utility.yul\":13462:13558   */\n      swap2\n      swap1\n      pop\n      jump\t// out\n        /* \"#utility.yul\":13564:13641   */\n    tag_368:\n        /* \"#utility.yul\":13601:13608   */\n      0x00\n        /* \"#utility.yul\":13630:13635   */\n      dup2\n        /* \"#utility.yul\":13619:13635   */\n      swap1\n      pop\n        /* \"#utility.yul\":13564:13641   */\n      swap2\n      swap1\n      pop\n      jump\t// out\n        /* \"#utility.yul\":13647:13773   */\n    tag_367:\n        /* \"#utility.yul\":13684:13691   */\n      0x00\n        /* \"#utility.yul\":13724:13766   */\n      0xffffffffffffffffffffffffffffffffffffffff\n        /* \"#utility.yul\":13717:13722   */\n      dup3\n        /* \"#utility.yul\":13713:13767   */\n      and\n        /* \"#utility.yul\":13702:13767   */\n      swap1\n      pop\n        /* \"#utility.yul\":13647:13773   */\n      swap2\n      swap1\n      pop\n      jump\t// out\n        /* \"#utility.yul\":13779:13856   */\n    tag_315:\n        /* \"#utility.yul\":13816:13823   */\n      0x00\n        /* \"#utility.yul\":13845:13850   */\n      dup2\n        /* \"#utility.yul\":13834:13850   */\n      swap1\n      pop\n        /* \"#utility.yul\":13779:13856   */\n      swap2\n      swap1\n      pop\n      jump\t// out\n        /* \"#utility.yul\":13862:14016   */\n    tag_205:\n        /* \"#utility.yul\":13946:13952   */\n      dup3\n        /* \"#utility.yul\":13941:13944   */\n      dup2\n        /* \"#utility.yul\":13936:13939   */\n      dup4\n        /* \"#utility.yul\":13923:13953   */\n      calldatacopy\n        /* \"#utility.yul\":14008:14009   */\n      0x00\n        /* \"#utility.yul\":13999:14005   */\n      dup4\n        /* \"#utility.yul\":13994:13997   */\n      dup4\n        /* \"#utility.yul\":13990:14006   */\n      add\n        /* \"#utility.yul\":13983:14010   */\n      mstore\n        /* \"#utility.yul\":13862:14016   */\n      pop\n      pop\n      pop\n      jump\t// out\n        /* \"#utility.yul\":14022:14329   */\n    tag_300:\n        /* \"#utility.yul\":14090:14091   */\n      0x00\n        /* \"#utility.yul\":14100:14213   */\n    tag_374:\n        /* \"#utility.yul\":14114:14120   */\n      dup4\n        /* \"#utility.yul\":14111:14112   */\n      dup2\n        /* \"#utility.yul\":14108:14121   */\n      lt\n        /* \"#utility.yul\":14100:14213   */\n      iszero\n      tag_376\n      jumpi\n        /* \"#utility.yul\":14199:14200   */\n      dup1\n        /* \"#utility.yul\":14194:14197   */\n      dup3\n        /* \"#utility.yul\":14190:14201   */\n      add\n        /* \"#utility.yul\":14184:14202   */\n      mload\n        /* \"#utility.yul\":14180:14181   */\n      dup2\n        /* \"#utility.yul\":14175:14178   */\n      dup5\n        /* \"#utility.yul\":14171:14182   */\n      add\n        /* \"#utility.yul\":14164:14203   */\n      mstore\n        /* \"#utility.yul\":14136:14138   */\n      0x20\n        /* \"#utility.yul\":14133:14134   */\n      dup2\n        /* \"#utility.yul\":14129:14139   */\n      add\n        /* \"#utility.yul\":14124:14139   */\n      swap1\n      pop\n        /* \"#utility.yul\":14100:14213   */\n      jump(tag_374)\n    tag_376:\n        /* \"#utility.yul\":14231:14237   */\n      dup4\n        /* \"#utility.yul\":14228:14229   */\n      dup2\n        /* \"#utility.yul\":14225:14238   */\n      gt\n        /* \"#utility.yul\":14222:14323   */\n      iszero\n      tag_377\n      jumpi\n        /* \"#utility.yul\":14311:14312   */\n      0x00\n        /* \"#utility.yul\":14302:14308   */\n      dup5\n        /* \"#utility.yul\":14297:14300   */\n      dup5\n        /* \"#utility.yul\":14293:14309   */\n      add\n        /* \"#utility.yul\":14286:14313   */\n      mstore\n        /* \"#utility.yul\":14222:14323   */\n    tag_377:\n        /* \"#utility.yul\":14071:14329   */\n      pop\n        /* \"#utility.yul\":14022:14329   */\n      pop\n      pop\n      pop\n      jump\t// out\n        /* \"#utility.yul\":14335:14506   */\n    tag_158:\n        /* \"#utility.yul\":14374:14377   */\n      0x00\n        /* \"#utility.yul\":14397:14421   */\n      tag_379\n        /* \"#utility.yul\":14415:14420   */\n      dup3\n        /* \"#utility.yul\":14397:14421   */\n      tag_315\n      jump\t// in\n    tag_379:\n        /* \"#utility.yul\":14388:14421   */\n      swap2\n      pop\n        /* \"#utility.yul\":14443:14447   */\n      0x00\n        /* \"#utility.yul\":14436:14441   */\n      dup3\n        /* \"#utility.yul\":14433:14448   */\n      eq\n        /* \"#utility.yul\":14430:14471   */\n      iszero\n      tag_380\n      jumpi\n        /* \"#utility.yul\":14451:14469   */\n      tag_381\n      tag_359\n      jump\t// in\n    tag_381:\n        /* \"#utility.yul\":14430:14471   */\n    tag_380:\n        /* \"#utility.yul\":14498:14499   */\n      0x01\n        /* \"#utility.yul\":14491:14496   */\n      dup3\n        /* \"#utility.yul\":14487:14500   */\n      sub\n        /* \"#utility.yul\":14480:14500   */\n      swap1\n      pop\n        /* \"#utility.yul\":14335:14506   */\n      swap2\n      swap1\n      pop\n      jump\t// out\n        /* \"#utility.yul\":14512:14832   */\n    tag_100:\n        /* \"#utility.yul\":14556:14562   */\n      0x00\n        /* \"#utility.yul\":14593:14594   */\n      0x02\n        /* \"#utility.yul\":14587:14591   */\n      dup3\n        /* \"#utility.yul\":14583:14595   */\n      div\n        /* \"#utility.yul\":14573:14595   */\n      swap1\n      pop\n        /* \"#utility.yul\":14640:14641   */\n      0x01\n        /* \"#utility.yul\":14634:14638   */\n      dup3\n        /* \"#utility.yul\":14630:14642   */\n      and\n        /* \"#utility.yul\":14661:14679   */\n      dup1\n        /* \"#utility.yul\":14651:14732   */\n      tag_383\n      jumpi\n        /* \"#utility.yul\":14717:14721   */\n      0x7f\n        /* \"#utility.yul\":14709:14715   */\n      dup3\n        /* \"#utility.yul\":14705:14722   */\n      and\n        /* \"#utility.yul\":14695:14722   */\n      swap2\n      pop\n        /* \"#utility.yul\":14651:14732   */\n    tag_383:\n        /* \"#utility.yul\":14779:14781   */\n      0x20\n        /* \"#utility.yul\":14771:14777   */\n      dup3\n        /* \"#utility.yul\":14768:14782   */\n      lt\n        /* \"#utility.yul\":14748:14766   */\n      dup2\n        /* \"#utility.yul\":14745:14783   */\n      eq\n        /* \"#utility.yul\":14742:14826   */\n      iszero\n      tag_384\n      jumpi\n        /* \"#utility.yul\":14798:14816   */\n      tag_385\n      tag_386\n      jump\t// in\n    tag_385:\n        /* \"#utility.yul\":14742:14826   */\n    tag_384:\n        /* \"#utility.yul\":14563:14832   */\n      pop\n        /* \"#utility.yul\":14512:14832   */\n      swap2\n      swap1\n      pop\n      jump\t// out\n        /* \"#utility.yul\":14838:15119   */\n    tag_339:\n        /* \"#utility.yul\":14921:14948   */\n      tag_388\n        /* \"#utility.yul\":14943:14947   */\n      dup3\n        /* \"#utility.yul\":14921:14948   */\n      tag_302\n      jump\t// in\n    tag_388:\n        /* \"#utility.yul\":14913:14919   */\n      dup2\n        /* \"#utility.yul\":14909:14949   */\n      add\n        /* \"#utility.yul\":15051:15057   */\n      dup2\n        /* \"#utility.yul\":15039:15049   */\n      dup2\n        /* \"#utility.yul\":15036:15058   */\n      lt\n        /* \"#utility.yul\":15015:15033   */\n      0xffffffffffffffff\n        /* \"#utility.yul\":15003:15013   */\n      dup3\n        /* \"#utility.yul\":15000:15034   */\n      gt\n        /* \"#utility.yul\":14997:15059   */\n      or\n        /* \"#utility.yul\":14994:15082   */\n      iszero\n      tag_389\n      jumpi\n        /* \"#utility.yul\":15062:15080   */\n      tag_390\n      tag_78\n      jump\t// in\n    tag_390:\n        /* \"#utility.yul\":14994:15082   */\n    tag_389:\n        /* \"#utility.yul\":15102:15112   */\n      dup1\n        /* \"#utility.yul\":15098:15100   */\n      0x40\n        /* \"#utility.yul\":15091:15113   */\n      mstore\n        /* \"#utility.yul\":14881:15119   */\n      pop\n        /* \"#utility.yul\":14838:15119   */\n      pop\n      pop\n      jump\t// out\n        /* \"#utility.yul\":15125:15358   */\n    tag_90:\n        /* \"#utility.yul\":15164:15167   */\n      0x00\n        /* \"#utility.yul\":15187:15211   */\n      tag_392\n        /* \"#utility.yul\":15205:15210   */\n      dup3\n        /* \"#utility.yul\":15187:15211   */\n      tag_315\n      jump\t// in\n    tag_392:\n        /* \"#utility.yul\":15178:15211   */\n      swap2\n      pop\n        /* \"#utility.yul\":15233:15299   */\n      0xffffffffffffffffffffffffffffffffffffffffffffffffffffffffffffffff\n        /* \"#utility.yul\":15226:15231   */\n      dup3\n        /* \"#utility.yul\":15223:15300   */\n      eq\n        /* \"#utility.yul\":15220:15323   */\n      iszero\n      tag_393\n      jumpi\n        /* \"#utility.yul\":15303:15321   */\n      tag_394\n      tag_359\n      jump\t// in\n    tag_394:\n        /* \"#utility.yul\":15220:15323   */\n    tag_393:\n        /* \"#utility.yul\":15350:15351   */\n      0x01\n        /* \"#utility.yul\":15343:15348   */\n      dup3\n        /* \"#utility.yul\":15339:15352   */\n      add\n        /* \"#utility.yul\":15332:15352   */\n      swap1\n      pop\n        /* \"#utility.yul\":15125:15358   */\n      swap2\n      swap1\n      pop\n      jump\t// out\n        /* \"#utility.yul\":15364:15544   */\n    tag_359:\n        /* \"#utility.yul\":15412:15489   */\n      0x4e487b7100000000000000000000000000000000000000000000000000000000\n        /* \"#utility.yul\":15409:15410   */\n      0x00\n        /* \"#utility.yul\":15402:15490   */\n      mstore\n        /* \"#utility.yul\":15509:15513   */\n      0x11\n        /* \"#utility.yul\":15506:15507   */\n      0x04\n        /* \"#utility.yul\":15499:15514   */\n      mstore\n        /* \"#utility.yul\":15533:15537   */\n      0x24\n        /* \"#utility.yul\":15530:15531   */\n      0x00\n        /* \"#utility.yul\":15523:15538   */\n      revert\n        /* \"#utility.yul\":15550:15730   */\n    tag_386:\n        /* \"#utility.yul\":15598:15675   */\n      0x4e487b7100000000000000000000000000000000000000000000000000000000\n        /* \"#utility.yul\":15595:15596   */\n      0x00\n        /* \"#utility.yul\":15588:15676   */\n      mstore\n        /* \"#utility.yul\":15695:15699   */\n      0x22\n        /* \"#utility.yul\":15692:15693   */\n      0x04\n        /* \"#utility.yul\":15685:15700   */\n      mstore\n        /* \"#utility.yul\":15719:15723   */\n      0x24\n        /* \"#utility.yul\":15716:15717   */\n      0x00\n        /* \"#utility.yul\":15709:15724   */\n      revert\n        /* \"#utility.yul\":15736:15916   */\n    tag_86:\n        /* \"#utility.yul\":15784:15861   */\n      0x4e487b7100000000000000000000000000000000000000000000000000000000\n        /* \"#utility.yul\":15781:15782   */\n      0x00\n        /* \"#utility.yul\":15774:15862   */\n      mstore\n        /* \"#utility.yul\":15881:15885   */\n      0x32\n        /* \"#utility.yul\":15878:15879   */\n      0x04\n        /* \"#utility.yul\":15871:15886   */\n      mstore\n        /* \"#utility.yul\":15905:15909   */\n      0x24\n        /* \"#utility.yul\":15902:15903   */\n      0x00\n        /* \"#utility.yul\":15895:15910   */\n      revert\n        /* \"#utility.yul\":15922:16102   */\n    tag_78:\n        /* \"#utility.yul\":15970:16047   */\n      0x4e487b7100000000000000000000000000000000000000000000000000000000\n        /* \"#utility.yul\":15967:15968   */\n      0x00\n        /* \"#utility.yul\":15960:16048   */\n      mstore\n        /* \"#utility.yul\":16067:16071   */\n      0x41\n        /* \"#utility.yul\":16064:16065   */\n      0x04\n        /* \"#utility.yul\":16057:16072   */\n      mstore\n        /* \"#utility.yul\":16091:16095   */\n      0x24\n        /* \"#utility.yul\":16088:16089   */\n      0x00\n        /* \"#utility.yul\":16081:16096   */\n      revert\n        /* \"#utility.yul\":16108:16225   */\n    tag_214:\n        /* \"#utility.yul\":16217:16218   */\n      0x00\n        /* \"#utility.yul\":16214:16215   */\n      dup1\n        /* \"#utility.yul\":16207:16219   */\n      revert\n        /* \"#utility.yul\":16231:16348   */\n    tag_190:\n        /* \"#utility.yul\":16340:16341   */\n      0x00\n        /* \"#utility.yul\":16337:16338   */\n      dup1\n        /* \"#utility.yul\":16330:16342   */\n      revert\n        /* \"#utility.yul\":16354:16471   */\n    tag_203:\n        /* \"#utility.yul\":16463:16464   */\n      0x00\n        /* \"#utility.yul\":16460:16461   */\n      dup1\n        /* \"#utility.yul\":16453:16465   */\n      revert\n        /* \"#utility.yul\":16477:16594   */\n    tag_249:\n        /* \"#utility.yul\":16586:16587   */\n      0x00\n        /* \"#utility.yul\":16583:16584   */\n      dup1\n        /* \"#utility.yul\":16576:16588   */\n      revert\n        /* \"#utility.yul\":16600:16717   */\n    tag_231:\n        /* \"#utility.yul\":16709:16710   */\n      0x00\n        /* \"#utility.yul\":16706:16707   */\n      dup1\n        /* \"#utility.yul\":16699:16711   */\n      revert\n        /* \"#utility.yul\":16723:16825   */\n    tag_302:\n        /* \"#utility.yul\":16764:16770   */\n      0x00\n        /* \"#utility.yul\":16815:16817   */\n      0x1f\n        /* \"#utility.yul\":16811:16818   */\n      not\n        /* \"#utility.yul\":16806:16808   */\n      0x1f\n        /* \"#utility.yul\":16799:16804   */\n      dup4\n        /* \"#utility.yul\":16795:16809   */\n      add\n        /* \"#utility.yul\":16791:16819   */\n      and\n        /* \"#utility.yul\":16781:16819   */\n      swap1\n      pop\n        /* \"#utility.yul\":16723:16825   */\n      swap2\n      swap1\n      pop\n      jump\t// out\n        /* \"#utility.yul\":16831:17056   */\n    tag_307:\n        /* \"#utility.yul\":16971:17005   */\n      0x4f776e61626c653a206e6577206f776e657220697320746865207a65726f2061\n        /* \"#utility.yul\":16967:16968   */\n      0x00\n        /* \"#utility.yul\":16959:16965   */\n      dup3\n        /* \"#utility.yul\":16955:16969   */\n      add\n        /* \"#utility.yul\":16948:17006   */\n      mstore\n        /* \"#utility.yul\":17040:17048   */\n      0x6464726573730000000000000000000000000000000000000000000000000000\n        /* \"#utility.yul\":17035:17037   */\n      0x20\n        /* \"#utility.yul\":17027:17033   */\n      dup3\n        /* \"#utility.yul\":17023:17038   */\n      add\n        /* \"#utility.yul\":17016:17049   */\n      mstore\n        /* \"#utility.yul\":16831:17056   */\n      pop\n      jump\t// out\n        /* \"#utility.yul\":17062:17244   */\n    tag_312:\n        /* \"#utility.yul\":17202:17236   */\n      0x4f776e61626c653a2063616c6c6572206973206e6f7420746865206f776e6572\n        /* \"#utility.yul\":17198:17199   */\n      0x00\n        /* \"#utility.yul\":17190:17196   */\n      dup3\n        /* \"#utility.yul\":17186:17200   */\n      add\n        /* \"#utility.yul\":17179:17237   */\n      mstore\n        /* \"#utility.yul\":17062:17244   */\n      pop\n      jump\t// out\n        /* \"#utility.yul\":17250:17372   */\n    tag_209:\n        /* \"#utility.yul\":17323:17347   */\n      tag_408\n        /* \"#utility.yul\":17341:17346   */\n      dup2\n        /* \"#utility.yul\":17323:17347   */\n      tag_278\n      jump\t// in\n    tag_408:\n        /* \"#utility.yul\":17316:17321   */\n      dup2\n        /* \"#utility.yul\":17313:17348   */\n      eq\n        /* \"#utility.yul\":17303:17366   */\n      tag_409\n      jumpi\n        /* \"#utility.yul\":17362:17363   */\n      0x00\n        /* \"#utility.yul\":17359:17360   */\n      dup1\n        /* \"#utility.yul\":17352:17364   */\n      revert\n        /* \"#utility.yul\":17303:17366   */\n    tag_409:\n        /* \"#utility.yul\":17250:17372   */\n      pop\n      jump\t// out\n        /* \"#utility.yul\":17378:17500   */\n    tag_218:\n        /* \"#utility.yul\":17451:17475   */\n      tag_411\n        /* \"#utility.yul\":17469:17474   */\n      dup2\n        /* \"#utility.yul\":17451:17475   */\n      tag_368\n      jump\t// in\n    tag_411:\n        /* \"#utility.yul\":17444:17449   */\n      dup2\n        /* \"#utility.yul\":17441:17476   */\n      eq\n        /* \"#utility.yul\":17431:17494   */\n      tag_412\n      jumpi\n        /* \"#utility.yul\":17490:17491   */\n      0x00\n        /* \"#utility.yul\":17487:17488   */\n      dup1\n        /* \"#utility.yul\":17480:17492   */\n      revert\n        /* \"#utility.yul\":17431:17494   */\n    tag_412:\n        /* \"#utility.yul\":17378:17500   */\n      pop\n      jump\t// out\n        /* \"#utility.yul\":17506:17628   */\n    tag_227:\n        /* \"#utility.yul\":17579:17603   */\n      tag_414\n        /* \"#utility.yul\":17597:17602   */\n      dup2\n        /* \"#utility.yul\":17579:17603   */\n      tag_315\n      jump\t// in\n    tag_414:\n        /* \"#utility.yul\":17572:17577   */\n      dup2\n        /* \"#utility.yul\":17569:17604   */\n      eq\n        /* \"#utility.yul\":17559:17622   */\n      tag_415\n      jumpi\n        /* \"#utility.yul\":17618:17619   */\n      0x00\n        /* \"#utility.yul\":17615:17616   */\n      dup1\n        /* \"#utility.yul\":17608:17620   */\n      revert\n        /* \"#utility.yul\":17559:17622   */\n    tag_415:\n        /* \"#utility.yul\":17506:17628   */\n      pop\n      jump\t// out\n\n    auxdata: 0xa264697066735822122084d9f5292f908c8c37622e8a15d6e9b964f42645c5ce1bd7cdf996d58ceef37264736f6c63430008070033\n}\n",
				"bytecode": {
					"linkReferences": {},
					"object": "608060405234801561001057600080fd5b5061002d61002261003260201b60201c565b61003a60201b60201c565b6100fe565b600033905090565b60008060009054906101000a900473ffffffffffffffffffffffffffffffffffffffff169050816000806101000a81548173ffffffffffffffffffffffffffffffffffffffff021916908373ffffffffffffffffffffffffffffffffffffffff1602179055508173ffffffffffffffffffffffffffffffffffffffff168173ffffffffffffffffffffffffffffffffffffffff167f8be0079c531659141344cd1fd0a4f28419497f9722a3daafe3b4186f6b6457e060405160405180910390a35050565b6118758061010d6000396000f3fe6080604052600436106100a65760003560e01c8063715018a611610064578063715018a6146101d85780638da5cb5b146101ef578063970ad3281461021a578063acf3788614610243578063f2fde38b1461026c578063f70ff88014610295576100a6565b80625e9046146100ab578063095ea7b3146100e857806323b872dd146101045780634b602673146101205780636352211e1461015e57806370a082311461019b575b600080fd5b3480156100b757600080fd5b506100d260048036038101906100cd9190610faf565b6102be565b6040516100df9190611300565b60405180910390f35b61010260048036038101906100fd919061102f565b610419565b005b61011e60048036038101906101199190610fdc565b61041d565b005b34801561012c57600080fd5b50610147600480360381019061014291906110fa565b610501565b604051610155929190611322565b60405180910390f35b34801561016a57600080fd5b50610185600480360381019061018091906110fa565b6105bd565b60405161019291906112e5565b60405180910390f35b3480156101a757600080fd5b506101c260048036038101906101bd9190610faf565b6105fa565b6040516101cf9190611392565b60405180910390f35b3480156101e457600080fd5b506101ed610643565b005b3480156101fb57600080fd5b506102046106cb565b60405161021191906112e5565b60405180910390f35b34801561022657600080fd5b50610241600480360381019061023c919061106f565b6106f4565b005b34801561024f57600080fd5b5061026a60048036038101906102659190611127565b6108c3565b005b34801561027857600080fd5b50610293600480360381019061028e9190610faf565b61096e565b005b3480156102a157600080fd5b506102bc60048036038101906102b79190611183565b610a66565b005b60606000600360008473ffffffffffffffffffffffffffffffffffffffff1673ffffffffffffffffffffffffffffffffffffffff1681526020019081526020016000205467ffffffffffffffff81111561031b5761031a611729565b5b6040519080825280602002602001820160405280156103495781602001602082028036833780820191505090505b5090506000805b60018054905081101561040e578473ffffffffffffffffffffffffffffffffffffffff166002600083815260200190815260200160002060009054906101000a900473ffffffffffffffffffffffffffffffffffffffff1673ffffffffffffffffffffffffffffffffffffffff1614156103fb57808383815181106103d8576103d76116fa565b5b6020026020010181815250506103f8600183610b0190919063ffffffff16565b91505b808061040690611653565b915050610350565b508192505050919050565b5050565b3373ffffffffffffffffffffffffffffffffffffffff166002600083815260200190815260200160002060009054906101000a900473ffffffffffffffffffffffffffffffffffffffff1673ffffffffffffffffffffffffffffffffffffffff1614806104e857503373ffffffffffffffffffffffffffffffffffffffff166004600083815260200190815260200160002060009054906101000a900473ffffffffffffffffffffffffffffffffffffffff1673ffffffffffffffffffffffffffffffffffffffff16145b6104f157600080fd5b6104fc838383610b17565b505050565b6001818154811061051157600080fd5b9060005260206000209060030201600091509050806000018054610534906115f0565b80601f0160208091040260200160405190810160405280929190818152602001828054610560906115f0565b80156105ad5780601f10610582576101008083540402835291602001916105ad565b820191906000526020600020905b81548152906001019060200180831161059057829003601f168201915b5050505050908060010154905082565b60006002600083815260200190815260200160002060009054906101000a900473ffffffffffffffffffffffffffffffffffffffff169050919050565b6000600360008373ffffffffffffffffffffffffffffffffffffffff1673ffffffffffffffffffffffffffffffffffffffff168152602001908152602001600020549050919050565b61064b610c73565b73ffffffffffffffffffffffffffffffffffffffff166106696106cb565b73ffffffffffffffffffffffffffffffffffffffff16146106bf576040517f08c379a00000000000000000000000000000000000000000000000000000000081526004016106b690611372565b60405180910390fd5b6106c96000610c7b565b565b60008060009054906101000a900473ffffffffffffffffffffffffffffffffffffffff16905090565b600160405180606001604052808581526020018481526020018381525090806001815401808255809150506001900390600052602060002090600302016000909190919091506000820151816000019080519060200190610756929190610d55565b5060208201518160010155604082015181600201908051906020019061077d929190610ddb565b505050600061079a60018080549050610d3f90919063ffffffff16565b9050336002600083815260200190815260200160002060006101000a81548173ffffffffffffffffffffffffffffffffffffffff021916908373ffffffffffffffffffffffffffffffffffffffff1602179055506108416001600360003373ffffffffffffffffffffffffffffffffffffffff1673ffffffffffffffffffffffffffffffffffffffff16815260200190815260200160002054610b0190919063ffffffff16565b600360003373ffffffffffffffffffffffffffffffffffffffff1673ffffffffffffffffffffffffffffffffffffffff168152602001908152602001600020819055507f8e5131164fd8ab4ef05922255f67a7171cfd6ed4bd4a7c18dce461606a54ff5e81856040516108b59291906113ad565b60405180910390a150505050565b813373ffffffffffffffffffffffffffffffffffffffff166002600083815260200190815260200160002060009054906101000a900473ffffffffffffffffffffffffffffffffffffffff1673ffffffffffffffffffffffffffffffffffffffff161461092f57600080fd5b8160018481548110610944576109436116fa565b5b90600052602060002090600302016000019080519060200190610968929190610d55565b50505050565b610976610c73565b73ffffffffffffffffffffffffffffffffffffffff166109946106cb565b73ffffffffffffffffffffffffffffffffffffffff16146109ea576040517f08c379a00000000000000000000000000000000000000000000000000000000081526004016109e190611372565b60405180910390fd5b600073ffffffffffffffffffffffffffffffffffffffff168173ffffffffffffffffffffffffffffffffffffffff161415610a5a576040517f08c379a0000000000000000000000000000000000000000000000000000000008152600401610a5190611352565b60405180910390fd5b610a6381610c7b565b50565b813373ffffffffffffffffffffffffffffffffffffffff166002600083815260200190815260200160002060009054906101000a900473ffffffffffffffffffffffffffffffffffffffff1673ffffffffffffffffffffffffffffffffffffffff1614610ad257600080fd5b8160018481548110610ae757610ae66116fa565b5b906000526020600020906003020160010181905550505050565b60008183610b0f91906114b4565b905092915050565b600360008373ffffffffffffffffffffffffffffffffffffffff1673ffffffffffffffffffffffffffffffffffffffff1681526020019081526020016000206000815480929190610b6790611653565b9190505550600360008473ffffffffffffffffffffffffffffffffffffffff1673ffffffffffffffffffffffffffffffffffffffff1681526020019081526020016000206000815480929190610bbc906115c6565b9190505550816002600083815260200190815260200160002060006101000a81548173ffffffffffffffffffffffffffffffffffffffff021916908373ffffffffffffffffffffffffffffffffffffffff160217905550808273ffffffffffffffffffffffffffffffffffffffff168473ffffffffffffffffffffffffffffffffffffffff167fddf252ad1be2c89b69c2b068fc378daa952ba7f163c4a11628f55a4df523b3ef60405160405180910390a4505050565b600033905090565b60008060009054906101000a900473ffffffffffffffffffffffffffffffffffffffff169050816000806101000a81548173ffffffffffffffffffffffffffffffffffffffff021916908373ffffffffffffffffffffffffffffffffffffffff1602179055508173ffffffffffffffffffffffffffffffffffffffff168173ffffffffffffffffffffffffffffffffffffffff167f8be0079c531659141344cd1fd0a4f28419497f9722a3daafe3b4186f6b6457e060405160405180910390a35050565b60008183610d4d919061150a565b905092915050565b828054610d61906115f0565b90600052602060002090601f016020900481019282610d835760008555610dca565b82601f10610d9c57805160ff1916838001178555610dca565b82800160010185558215610dca579182015b82811115610dc9578251825591602001919060010190610dae565b5b509050610dd79190610e28565b5090565b828054828255906000526020600020908101928215610e17579160200282015b82811115610e16578251825591602001919060010190610dfb565b5b509050610e249190610e45565b5090565b5b80821115610e41576000816000905550600101610e29565b5090565b5b80821115610e5e576000816000905550600101610e46565b5090565b6000610e75610e7084611402565b6113dd565b90508083825260208201905082856020860282011115610e9857610e9761175d565b5b60005b85811015610ec85781610eae8882610f57565b845260208401935060208301925050600181019050610e9b565b5050509392505050565b6000610ee5610ee08461142e565b6113dd565b905082815260208101848484011115610f0157610f00611762565b5b610f0c848285611584565b509392505050565b600081359050610f23816117fa565b92915050565b600082601f830112610f3e57610f3d611758565b5b8135610f4e848260208601610e62565b91505092915050565b600081359050610f6681611811565b92915050565b600082601f830112610f8157610f80611758565b5b8135610f91848260208601610ed2565b91505092915050565b600081359050610fa981611828565b92915050565b600060208284031215610fc557610fc461176c565b5b6000610fd384828501610f14565b91505092915050565b600080600060608486031215610ff557610ff461176c565b5b600061100386828701610f14565b935050602061101486828701610f14565b925050604061102586828701610f9a565b9150509250925092565b600080604083850312156110465761104561176c565b5b600061105485828601610f14565b925050602061106585828601610f9a565b9150509250929050565b6000806000606084860312156110885761108761176c565b5b600084013567ffffffffffffffff8111156110a6576110a5611767565b5b6110b286828701610f6c565b93505060206110c386828701610f9a565b925050604084013567ffffffffffffffff8111156110e4576110e3611767565b5b6110f086828701610f29565b9150509250925092565b6000602082840312156111105761110f61176c565b5b600061111e84828501610f9a565b91505092915050565b6000806040838503121561113e5761113d61176c565b5b600061114c85828601610f9a565b925050602083013567ffffffffffffffff81111561116d5761116c611767565b5b61117985828601610f6c565b9150509250929050565b6000806040838503121561119a5761119961176c565b5b60006111a885828601610f9a565b92505060206111b985828601610f9a565b9150509250929050565b60006111cf83836112c7565b60208301905092915050565b6111e48161153e565b82525050565b60006111f58261146f565b6111ff8185611492565b935061120a8361145f565b8060005b8381101561123b57815161122288826111c3565b975061122d83611485565b92505060018101905061120e565b5085935050505092915050565b60006112538261147a565b61125d81856114a3565b935061126d818560208601611593565b61127681611771565b840191505092915050565b600061128e6026836114a3565b915061129982611782565b604082019050919050565b60006112b16020836114a3565b91506112bc826117d1565b602082019050919050565b6112d08161157a565b82525050565b6112df8161157a565b82525050565b60006020820190506112fa60008301846111db565b92915050565b6000602082019050818103600083015261131a81846111ea565b905092915050565b6000604082019050818103600083015261133c8185611248565b905061134b60208301846112d6565b9392505050565b6000602082019050818103600083015261136b81611281565b9050919050565b6000602082019050818103600083015261138b816112a4565b9050919050565b60006020820190506113a760008301846112d6565b92915050565b60006040820190506113c260008301856112d6565b81810360208301526113d48184611248565b90509392505050565b60006113e76113f8565b90506113f38282611622565b919050565b6000604051905090565b600067ffffffffffffffff82111561141d5761141c611729565b5b602082029050602081019050919050565b600067ffffffffffffffff82111561144957611448611729565b5b61145282611771565b9050602081019050919050565b6000819050602082019050919050565b600081519050919050565b600081519050919050565b6000602082019050919050565b600082825260208201905092915050565b600082825260208201905092915050565b60006114bf8261157a565b91506114ca8361157a565b9250827fffffffffffffffffffffffffffffffffffffffffffffffffffffffffffffffff038211156114ff576114fe61169c565b5b828201905092915050565b60006115158261157a565b91506115208361157a565b9250828210156115335761153261169c565b5b828203905092915050565b60006115498261155a565b9050919050565b6000819050919050565b600073ffffffffffffffffffffffffffffffffffffffff82169050919050565b6000819050919050565b82818337600083830152505050565b60005b838110156115b1578082015181840152602081019050611596565b838111156115c0576000848401525b50505050565b60006115d18261157a565b915060008214156115e5576115e461169c565b5b600182039050919050565b6000600282049050600182168061160857607f821691505b6020821081141561161c5761161b6116cb565b5b50919050565b61162b82611771565b810181811067ffffffffffffffff8211171561164a57611649611729565b5b80604052505050565b600061165e8261157a565b91507fffffffffffffffffffffffffffffffffffffffffffffffffffffffffffffffff8214156116915761169061169c565b5b600182019050919050565b7f4e487b7100000000000000000000000000000000000000000000000000000000600052601160045260246000fd5b7f4e487b7100000000000000000000000000000000000000000000000000000000600052602260045260246000fd5b7f4e487b7100000000000000000000000000000000000000000000000000000000600052603260045260246000fd5b7f4e487b7100000000000000000000000000000000000000000000000000000000600052604160045260246000fd5b600080fd5b600080fd5b600080fd5b600080fd5b600080fd5b6000601f19601f8301169050919050565b7f4f776e61626c653a206e6577206f776e657220697320746865207a65726f206160008201527f6464726573730000000000000000000000000000000000000000000000000000602082015250565b7f4f776e61626c653a2063616c6c6572206973206e6f7420746865206f776e6572600082015250565b6118038161153e565b811461180e57600080fd5b50565b61181a81611550565b811461182557600080fd5b50565b6118318161157a565b811461183c57600080fd5b5056fea264697066735822122084d9f5292f908c8c37622e8a15d6e9b964f42645c5ce1bd7cdf996d58ceef37264736f6c63430008070033",
					"opcodes": "PUSH1 0x80 PUSH1 0x40 MSTORE CALLVALUE DUP1 ISZERO PUSH2 0x10 JUMPI PUSH1 0x0 DUP1 REVERT JUMPDEST POP PUSH2 0x2D PUSH2 0x22 PUSH2 0x32 PUSH1 0x20 SHL PUSH1 0x20 SHR JUMP JUMPDEST PUSH2 0x3A PUSH1 0x20 SHL PUSH1 0x20 SHR JUMP JUMPDEST PUSH2 0xFE JUMP JUMPDEST PUSH1 0x0 CALLER SWAP1 POP SWAP1 JUMP JUMPDEST PUSH1 0x0 DUP1 PUSH1 0x0 SWAP1 SLOAD SWAP1 PUSH2 0x100 EXP SWAP1 DIV PUSH20 0xFFFFFFFFFFFFFFFFFFFFFFFFFFFFFFFFFFFFFFFF AND SWAP1 POP DUP2 PUSH1 0x0 DUP1 PUSH2 0x100 EXP DUP2 SLOAD DUP2 PUSH20 0xFFFFFFFFFFFFFFFFFFFFFFFFFFFFFFFFFFFFFFFF MUL NOT AND SWAP1 DUP4 PUSH20 0xFFFFFFFFFFFFFFFFFFFFFFFFFFFFFFFFFFFFFFFF AND MUL OR SWAP1 SSTORE POP DUP2 PUSH20 0xFFFFFFFFFFFFFFFFFFFFFFFFFFFFFFFFFFFFFFFF AND DUP2 PUSH20 0xFFFFFFFFFFFFFFFFFFFFFFFFFFFFFFFFFFFFFFFF AND PUSH32 0x8BE0079C531659141344CD1FD0A4F28419497F9722A3DAAFE3B4186F6B6457E0 PUSH1 0x40 MLOAD PUSH1 0x40 MLOAD DUP1 SWAP2 SUB SWAP1 LOG3 POP POP JUMP JUMPDEST PUSH2 0x1875 DUP1 PUSH2 0x10D PUSH1 0x0 CODECOPY PUSH1 0x0 RETURN INVALID PUSH1 0x80 PUSH1 0x40 MSTORE PUSH1 0x4 CALLDATASIZE LT PUSH2 0xA6 JUMPI PUSH1 0x0 CALLDATALOAD PUSH1 0xE0 SHR DUP1 PUSH4 0x715018A6 GT PUSH2 0x64 JUMPI DUP1 PUSH4 0x715018A6 EQ PUSH2 0x1D8 JUMPI DUP1 PUSH4 0x8DA5CB5B EQ PUSH2 0x1EF JUMPI DUP1 PUSH4 0x970AD328 EQ PUSH2 0x21A JUMPI DUP1 PUSH4 0xACF37886 EQ PUSH2 0x243 JUMPI DUP1 PUSH4 0xF2FDE38B EQ PUSH2 0x26C JUMPI DUP1 PUSH4 0xF70FF880 EQ PUSH2 0x295 JUMPI PUSH2 0xA6 JUMP JUMPDEST DUP1 PUSH3 0x5E9046 EQ PUSH2 0xAB JUMPI DUP1 PUSH4 0x95EA7B3 EQ PUSH2 0xE8 JUMPI DUP1 PUSH4 0x23B872DD EQ PUSH2 0x104 JUMPI DUP1 PUSH4 0x4B602673 EQ PUSH2 0x120 JUMPI DUP1 PUSH4 0x6352211E EQ PUSH2 0x15E JUMPI DUP1 PUSH4 0x70A08231 EQ PUSH2 0x19B JUMPI JUMPDEST PUSH1 0x0 DUP1 REVERT JUMPDEST CALLVALUE DUP1 ISZERO PUSH2 0xB7 JUMPI PUSH1 0x0 DUP1 REVERT JUMPDEST POP PUSH2 0xD2 PUSH1 0x4 DUP1 CALLDATASIZE SUB DUP2 ADD SWAP1 PUSH2 0xCD SWAP2 SWAP1 PUSH2 0xFAF JUMP JUMPDEST PUSH2 0x2BE JUMP JUMPDEST PUSH1 0x40 MLOAD PUSH2 0xDF SWAP2 SWAP1 PUSH2 0x1300 JUMP JUMPDEST PUSH1 0x40 MLOAD DUP1 SWAP2 SUB SWAP1 RETURN JUMPDEST PUSH2 0x102 PUSH1 0x4 DUP1 CALLDATASIZE SUB DUP2 ADD SWAP1 PUSH2 0xFD SWAP2 SWAP1 PUSH2 0x102F JUMP JUMPDEST PUSH2 0x419 JUMP JUMPDEST STOP JUMPDEST PUSH2 0x11E PUSH1 0x4 DUP1 CALLDATASIZE SUB DUP2 ADD SWAP1 PUSH2 0x119 SWAP2 SWAP1 PUSH2 0xFDC JUMP JUMPDEST PUSH2 0x41D JUMP JUMPDEST STOP JUMPDEST CALLVALUE DUP1 ISZERO PUSH2 0x12C JUMPI PUSH1 0x0 DUP1 REVERT JUMPDEST POP PUSH2 0x147 PUSH1 0x4 DUP1 CALLDATASIZE SUB DUP2 ADD SWAP1 PUSH2 0x142 SWAP2 SWAP1 PUSH2 0x10FA JUMP JUMPDEST PUSH2 0x501 JUMP JUMPDEST PUSH1 0x40 MLOAD PUSH2 0x155 SWAP3 SWAP2 SWAP1 PUSH2 0x1322 JUMP JUMPDEST PUSH1 0x40 MLOAD DUP1 SWAP2 SUB SWAP1 RETURN JUMPDEST CALLVALUE DUP1 ISZERO PUSH2 0x16A JUMPI PUSH1 0x0 DUP1 REVERT JUMPDEST POP PUSH2 0x185 PUSH1 0x4 DUP1 CALLDATASIZE SUB DUP2 ADD SWAP1 PUSH2 0x180 SWAP2 SWAP1 PUSH2 0x10FA JUMP JUMPDEST PUSH2 0x5BD JUMP JUMPDEST PUSH1 0x40 MLOAD PUSH2 0x192 SWAP2 SWAP1 PUSH2 0x12E5 JUMP JUMPDEST PUSH1 0x40 MLOAD DUP1 SWAP2 SUB SWAP1 RETURN JUMPDEST CALLVALUE DUP1 ISZERO PUSH2 0x1A7 JUMPI PUSH1 0x0 DUP1 REVERT JUMPDEST POP PUSH2 0x1C2 PUSH1 0x4 DUP1 CALLDATASIZE SUB DUP2 ADD SWAP1 PUSH2 0x1BD SWAP2 SWAP1 PUSH2 0xFAF JUMP JUMPDEST PUSH2 0x5FA JUMP JUMPDEST PUSH1 0x40 MLOAD PUSH2 0x1CF SWAP2 SWAP1 PUSH2 0x1392 JUMP JUMPDEST PUSH1 0x40 MLOAD DUP1 SWAP2 SUB SWAP1 RETURN JUMPDEST CALLVALUE DUP1 ISZERO PUSH2 0x1E4 JUMPI PUSH1 0x0 DUP1 REVERT JUMPDEST POP PUSH2 0x1ED PUSH2 0x643 JUMP JUMPDEST STOP JUMPDEST CALLVALUE DUP1 ISZERO PUSH2 0x1FB JUMPI PUSH1 0x0 DUP1 REVERT JUMPDEST POP PUSH2 0x204 PUSH2 0x6CB JUMP JUMPDEST PUSH1 0x40 MLOAD PUSH2 0x211 SWAP2 SWAP1 PUSH2 0x12E5 JUMP JUMPDEST PUSH1 0x40 MLOAD DUP1 SWAP2 SUB SWAP1 RETURN JUMPDEST CALLVALUE DUP1 ISZERO PUSH2 0x226 JUMPI PUSH1 0x0 DUP1 REVERT JUMPDEST POP PUSH2 0x241 PUSH1 0x4 DUP1 CALLDATASIZE SUB DUP2 ADD SWAP1 PUSH2 0x23C SWAP2 SWAP1 PUSH2 0x106F JUMP JUMPDEST PUSH2 0x6F4 JUMP JUMPDEST STOP JUMPDEST CALLVALUE DUP1 ISZERO PUSH2 0x24F JUMPI PUSH1 0x0 DUP1 REVERT JUMPDEST POP PUSH2 0x26A PUSH1 0x4 DUP1 CALLDATASIZE SUB DUP2 ADD SWAP1 PUSH2 0x265 SWAP2 SWAP1 PUSH2 0x1127 JUMP JUMPDEST PUSH2 0x8C3 JUMP JUMPDEST STOP JUMPDEST CALLVALUE DUP1 ISZERO PUSH2 0x278 JUMPI PUSH1 0x0 DUP1 REVERT JUMPDEST POP PUSH2 0x293 PUSH1 0x4 DUP1 CALLDATASIZE SUB DUP2 ADD SWAP1 PUSH2 0x28E SWAP2 SWAP1 PUSH2 0xFAF JUMP JUMPDEST PUSH2 0x96E JUMP JUMPDEST STOP JUMPDEST CALLVALUE DUP1 ISZERO PUSH2 0x2A1 JUMPI PUSH1 0x0 DUP1 REVERT JUMPDEST POP PUSH2 0x2BC PUSH1 0x4 DUP1 CALLDATASIZE SUB DUP2 ADD SWAP1 PUSH2 0x2B7 SWAP2 SWAP1 PUSH2 0x1183 JUMP JUMPDEST PUSH2 0xA66 JUMP JUMPDEST STOP JUMPDEST PUSH1 0x60 PUSH1 0x0 PUSH1 0x3 PUSH1 0x0 DUP5 PUSH20 0xFFFFFFFFFFFFFFFFFFFFFFFFFFFFFFFFFFFFFFFF AND PUSH20 0xFFFFFFFFFFFFFFFFFFFFFFFFFFFFFFFFFFFFFFFF AND DUP2 MSTORE PUSH1 0x20 ADD SWAP1 DUP2 MSTORE PUSH1 0x20 ADD PUSH1 0x0 KECCAK256 SLOAD PUSH8 0xFFFFFFFFFFFFFFFF DUP2 GT ISZERO PUSH2 0x31B JUMPI PUSH2 0x31A PUSH2 0x1729 JUMP JUMPDEST JUMPDEST PUSH1 0x40 MLOAD SWAP1 DUP1 DUP3 MSTORE DUP1 PUSH1 0x20 MUL PUSH1 0x20 ADD DUP3 ADD PUSH1 0x40 MSTORE DUP1 ISZERO PUSH2 0x349 JUMPI DUP2 PUSH1 0x20 ADD PUSH1 0x20 DUP3 MUL DUP1 CALLDATASIZE DUP4 CALLDATACOPY DUP1 DUP3 ADD SWAP2 POP POP SWAP1 POP JUMPDEST POP SWAP1 POP PUSH1 0x0 DUP1 JUMPDEST PUSH1 0x1 DUP1 SLOAD SWAP1 POP DUP2 LT ISZERO PUSH2 0x40E JUMPI DUP5 PUSH20 0xFFFFFFFFFFFFFFFFFFFFFFFFFFFFFFFFFFFFFFFF AND PUSH1 0x2 PUSH1 0x0 DUP4 DUP2 MSTORE PUSH1 0x20 ADD SWAP1 DUP2 MSTORE PUSH1 0x20 ADD PUSH1 0x0 KECCAK256 PUSH1 0x0 SWAP1 SLOAD SWAP1 PUSH2 0x100 EXP SWAP1 DIV PUSH20 0xFFFFFFFFFFFFFFFFFFFFFFFFFFFFFFFFFFFFFFFF AND PUSH20 0xFFFFFFFFFFFFFFFFFFFFFFFFFFFFFFFFFFFFFFFF AND EQ ISZERO PUSH2 0x3FB JUMPI DUP1 DUP4 DUP4 DUP2 MLOAD DUP2 LT PUSH2 0x3D8 JUMPI PUSH2 0x3D7 PUSH2 0x16FA JUMP JUMPDEST JUMPDEST PUSH1 0x20 MUL PUSH1 0x20 ADD ADD DUP2 DUP2 MSTORE POP POP PUSH2 0x3F8 PUSH1 0x1 DUP4 PUSH2 0xB01 SWAP1 SWAP2 SWAP1 PUSH4 0xFFFFFFFF AND JUMP JUMPDEST SWAP2 POP JUMPDEST DUP1 DUP1 PUSH2 0x406 SWAP1 PUSH2 0x1653 JUMP JUMPDEST SWAP2 POP POP PUSH2 0x350 JUMP JUMPDEST POP DUP2 SWAP3 POP POP POP SWAP2 SWAP1 POP JUMP JUMPDEST POP POP JUMP JUMPDEST CALLER PUSH20 0xFFFFFFFFFFFFFFFFFFFFFFFFFFFFFFFFFFFFFFFF AND PUSH1 0x2 PUSH1 0x0 DUP4 DUP2 MSTORE PUSH1 0x20 ADD SWAP1 DUP2 MSTORE PUSH1 0x20 ADD PUSH1 0x0 KECCAK256 PUSH1 0x0 SWAP1 SLOAD SWAP1 PUSH2 0x100 EXP SWAP1 DIV PUSH20 0xFFFFFFFFFFFFFFFFFFFFFFFFFFFFFFFFFFFFFFFF AND PUSH20 0xFFFFFFFFFFFFFFFFFFFFFFFFFFFFFFFFFFFFFFFF AND EQ DUP1 PUSH2 0x4E8 JUMPI POP CALLER PUSH20 0xFFFFFFFFFFFFFFFFFFFFFFFFFFFFFFFFFFFFFFFF AND PUSH1 0x4 PUSH1 0x0 DUP4 DUP2 MSTORE PUSH1 0x20 ADD SWAP1 DUP2 MSTORE PUSH1 0x20 ADD PUSH1 0x0 KECCAK256 PUSH1 0x0 SWAP1 SLOAD SWAP1 PUSH2 0x100 EXP SWAP1 DIV PUSH20 0xFFFFFFFFFFFFFFFFFFFFFFFFFFFFFFFFFFFFFFFF AND PUSH20 0xFFFFFFFFFFFFFFFFFFFFFFFFFFFFFFFFFFFFFFFF AND EQ JUMPDEST PUSH2 0x4F1 JUMPI PUSH1 0x0 DUP1 REVERT JUMPDEST PUSH2 0x4FC DUP4 DUP4 DUP4 PUSH2 0xB17 JUMP JUMPDEST POP POP POP JUMP JUMPDEST PUSH1 0x1 DUP2 DUP2 SLOAD DUP2 LT PUSH2 0x511 JUMPI PUSH1 0x0 DUP1 REVERT JUMPDEST SWAP1 PUSH1 0x0 MSTORE PUSH1 0x20 PUSH1 0x0 KECCAK256 SWAP1 PUSH1 0x3 MUL ADD PUSH1 0x0 SWAP2 POP SWAP1 POP DUP1 PUSH1 0x0 ADD DUP1 SLOAD PUSH2 0x534 SWAP1 PUSH2 0x15F0 JUMP JUMPDEST DUP1 PUSH1 0x1F ADD PUSH1 0x20 DUP1 SWAP2 DIV MUL PUSH1 0x20 ADD PUSH1 0x40 MLOAD SWAP1 DUP2 ADD PUSH1 0x40 MSTORE DUP1 SWAP3 SWAP2 SWAP1 DUP2 DUP2 MSTORE PUSH1 0x20 ADD DUP3 DUP1 SLOAD PUSH2 0x560 SWAP1 PUSH2 0x15F0 JUMP JUMPDEST DUP1 ISZERO PUSH2 0x5AD JUMPI DUP1 PUSH1 0x1F LT PUSH2 0x582 JUMPI PUSH2 0x100 DUP1 DUP4 SLOAD DIV MUL DUP4 MSTORE SWAP2 PUSH1 0x20 ADD SWAP2 PUSH2 0x5AD JUMP JUMPDEST DUP3 ADD SWAP2 SWAP1 PUSH1 0x0 MSTORE PUSH1 0x20 PUSH1 0x0 KECCAK256 SWAP1 JUMPDEST DUP2 SLOAD DUP2 MSTORE SWAP1 PUSH1 0x1 ADD SWAP1 PUSH1 0x20 ADD DUP1 DUP4 GT PUSH2 0x590 JUMPI DUP3 SWAP1 SUB PUSH1 0x1F AND DUP3 ADD SWAP2 JUMPDEST POP POP POP POP POP SWAP1 DUP1 PUSH1 0x1 ADD SLOAD SWAP1 POP DUP3 JUMP JUMPDEST PUSH1 0x0 PUSH1 0x2 PUSH1 0x0 DUP4 DUP2 MSTORE PUSH1 0x20 ADD SWAP1 DUP2 MSTORE PUSH1 0x20 ADD PUSH1 0x0 KECCAK256 PUSH1 0x0 SWAP1 SLOAD SWAP1 PUSH2 0x100 EXP SWAP1 DIV PUSH20 0xFFFFFFFFFFFFFFFFFFFFFFFFFFFFFFFFFFFFFFFF AND SWAP1 POP SWAP2 SWAP1 POP JUMP JUMPDEST PUSH1 0x0 PUSH1 0x3 PUSH1 0x0 DUP4 PUSH20 0xFFFFFFFFFFFFFFFFFFFFFFFFFFFFFFFFFFFFFFFF AND PUSH20 0xFFFFFFFFFFFFFFFFFFFFFFFFFFFFFFFFFFFFFFFF AND DUP2 MSTORE PUSH1 0x20 ADD SWAP1 DUP2 MSTORE PUSH1 0x20 ADD PUSH1 0x0 KECCAK256 SLOAD SWAP1 POP SWAP2 SWAP1 POP JUMP JUMPDEST PUSH2 0x64B PUSH2 0xC73 JUMP JUMPDEST PUSH20 0xFFFFFFFFFFFFFFFFFFFFFFFFFFFFFFFFFFFFFFFF AND PUSH2 0x669 PUSH2 0x6CB JUMP JUMPDEST PUSH20 0xFFFFFFFFFFFFFFFFFFFFFFFFFFFFFFFFFFFFFFFF AND EQ PUSH2 0x6BF JUMPI PUSH1 0x40 MLOAD PUSH32 0x8C379A000000000000000000000000000000000000000000000000000000000 DUP2 MSTORE PUSH1 0x4 ADD PUSH2 0x6B6 SWAP1 PUSH2 0x1372 JUMP JUMPDEST PUSH1 0x40 MLOAD DUP1 SWAP2 SUB SWAP1 REVERT JUMPDEST PUSH2 0x6C9 PUSH1 0x0 PUSH2 0xC7B JUMP JUMPDEST JUMP JUMPDEST PUSH1 0x0 DUP1 PUSH1 0x0 SWAP1 SLOAD SWAP1 PUSH2 0x100 EXP SWAP1 DIV PUSH20 0xFFFFFFFFFFFFFFFFFFFFFFFFFFFFFFFFFFFFFFFF AND SWAP1 POP SWAP1 JUMP JUMPDEST PUSH1 0x1 PUSH1 0x40 MLOAD DUP1 PUSH1 0x60 ADD PUSH1 0x40 MSTORE DUP1 DUP6 DUP2 MSTORE PUSH1 0x20 ADD DUP5 DUP2 MSTORE PUSH1 0x20 ADD DUP4 DUP2 MSTORE POP SWAP1 DUP1 PUSH1 0x1 DUP2 SLOAD ADD DUP1 DUP3 SSTORE DUP1 SWAP2 POP POP PUSH1 0x1 SWAP1 SUB SWAP1 PUSH1 0x0 MSTORE PUSH1 0x20 PUSH1 0x0 KECCAK256 SWAP1 PUSH1 0x3 MUL ADD PUSH1 0x0 SWAP1 SWAP2 SWAP1 SWAP2 SWAP1 SWAP2 POP PUSH1 0x0 DUP3 ADD MLOAD DUP2 PUSH1 0x0 ADD SWAP1 DUP1 MLOAD SWAP1 PUSH1 0x20 ADD SWAP1 PUSH2 0x756 SWAP3 SWAP2 SWAP1 PUSH2 0xD55 JUMP JUMPDEST POP PUSH1 0x20 DUP3 ADD MLOAD DUP2 PUSH1 0x1 ADD SSTORE PUSH1 0x40 DUP3 ADD MLOAD DUP2 PUSH1 0x2 ADD SWAP1 DUP1 MLOAD SWAP1 PUSH1 0x20 ADD SWAP1 PUSH2 0x77D SWAP3 SWAP2 SWAP1 PUSH2 0xDDB JUMP JUMPDEST POP POP POP PUSH1 0x0 PUSH2 0x79A PUSH1 0x1 DUP1 DUP1 SLOAD SWAP1 POP PUSH2 0xD3F SWAP1 SWAP2 SWAP1 PUSH4 0xFFFFFFFF AND JUMP JUMPDEST SWAP1 POP CALLER PUSH1 0x2 PUSH1 0x0 DUP4 DUP2 MSTORE PUSH1 0x20 ADD SWAP1 DUP2 MSTORE PUSH1 0x20 ADD PUSH1 0x0 KECCAK256 PUSH1 0x0 PUSH2 0x100 EXP DUP2 SLOAD DUP2 PUSH20 0xFFFFFFFFFFFFFFFFFFFFFFFFFFFFFFFFFFFFFFFF MUL NOT AND SWAP1 DUP4 PUSH20 0xFFFFFFFFFFFFFFFFFFFFFFFFFFFFFFFFFFFFFFFF AND MUL OR SWAP1 SSTORE POP PUSH2 0x841 PUSH1 0x1 PUSH1 0x3 PUSH1 0x0 CALLER PUSH20 0xFFFFFFFFFFFFFFFFFFFFFFFFFFFFFFFFFFFFFFFF AND PUSH20 0xFFFFFFFFFFFFFFFFFFFFFFFFFFFFFFFFFFFFFFFF AND DUP2 MSTORE PUSH1 0x20 ADD SWAP1 DUP2 MSTORE PUSH1 0x20 ADD PUSH1 0x0 KECCAK256 SLOAD PUSH2 0xB01 SWAP1 SWAP2 SWAP1 PUSH4 0xFFFFFFFF AND JUMP JUMPDEST PUSH1 0x3 PUSH1 0x0 CALLER PUSH20 0xFFFFFFFFFFFFFFFFFFFFFFFFFFFFFFFFFFFFFFFF AND PUSH20 0xFFFFFFFFFFFFFFFFFFFFFFFFFFFFFFFFFFFFFFFF AND DUP2 MSTORE PUSH1 0x20 ADD SWAP1 DUP2 MSTORE PUSH1 0x20 ADD PUSH1 0x0 KECCAK256 DUP2 SWAP1 SSTORE POP PUSH32 0x8E5131164FD8AB4EF05922255F67A7171CFD6ED4BD4A7C18DCE461606A54FF5E DUP2 DUP6 PUSH1 0x40 MLOAD PUSH2 0x8B5 SWAP3 SWAP2 SWAP1 PUSH2 0x13AD JUMP JUMPDEST PUSH1 0x40 MLOAD DUP1 SWAP2 SUB SWAP1 LOG1 POP POP POP POP JUMP JUMPDEST DUP2 CALLER PUSH20 0xFFFFFFFFFFFFFFFFFFFFFFFFFFFFFFFFFFFFFFFF AND PUSH1 0x2 PUSH1 0x0 DUP4 DUP2 MSTORE PUSH1 0x20 ADD SWAP1 DUP2 MSTORE PUSH1 0x20 ADD PUSH1 0x0 KECCAK256 PUSH1 0x0 SWAP1 SLOAD SWAP1 PUSH2 0x100 EXP SWAP1 DIV PUSH20 0xFFFFFFFFFFFFFFFFFFFFFFFFFFFFFFFFFFFFFFFF AND PUSH20 0xFFFFFFFFFFFFFFFFFFFFFFFFFFFFFFFFFFFFFFFF AND EQ PUSH2 0x92F JUMPI PUSH1 0x0 DUP1 REVERT JUMPDEST DUP2 PUSH1 0x1 DUP5 DUP2 SLOAD DUP2 LT PUSH2 0x944 JUMPI PUSH2 0x943 PUSH2 0x16FA JUMP JUMPDEST JUMPDEST SWAP1 PUSH1 0x0 MSTORE PUSH1 0x20 PUSH1 0x0 KECCAK256 SWAP1 PUSH1 0x3 MUL ADD PUSH1 0x0 ADD SWAP1 DUP1 MLOAD SWAP1 PUSH1 0x20 ADD SWAP1 PUSH2 0x968 SWAP3 SWAP2 SWAP1 PUSH2 0xD55 JUMP JUMPDEST POP POP POP POP JUMP JUMPDEST PUSH2 0x976 PUSH2 0xC73 JUMP JUMPDEST PUSH20 0xFFFFFFFFFFFFFFFFFFFFFFFFFFFFFFFFFFFFFFFF AND PUSH2 0x994 PUSH2 0x6CB JUMP JUMPDEST PUSH20 0xFFFFFFFFFFFFFFFFFFFFFFFFFFFFFFFFFFFFFFFF AND EQ PUSH2 0x9EA JUMPI PUSH1 0x40 MLOAD PUSH32 0x8C379A000000000000000000000000000000000000000000000000000000000 DUP2 MSTORE PUSH1 0x4 ADD PUSH2 0x9E1 SWAP1 PUSH2 0x1372 JUMP JUMPDEST PUSH1 0x40 MLOAD DUP1 SWAP2 SUB SWAP1 REVERT JUMPDEST PUSH1 0x0 PUSH20 0xFFFFFFFFFFFFFFFFFFFFFFFFFFFFFFFFFFFFFFFF AND DUP2 PUSH20 0xFFFFFFFFFFFFFFFFFFFFFFFFFFFFFFFFFFFFFFFF AND EQ ISZERO PUSH2 0xA5A JUMPI PUSH1 0x40 MLOAD PUSH32 0x8C379A000000000000000000000000000000000000000000000000000000000 DUP2 MSTORE PUSH1 0x4 ADD PUSH2 0xA51 SWAP1 PUSH2 0x1352 JUMP JUMPDEST PUSH1 0x40 MLOAD DUP1 SWAP2 SUB SWAP1 REVERT JUMPDEST PUSH2 0xA63 DUP2 PUSH2 0xC7B JUMP JUMPDEST POP JUMP JUMPDEST DUP2 CALLER PUSH20 0xFFFFFFFFFFFFFFFFFFFFFFFFFFFFFFFFFFFFFFFF AND PUSH1 0x2 PUSH1 0x0 DUP4 DUP2 MSTORE PUSH1 0x20 ADD SWAP1 DUP2 MSTORE PUSH1 0x20 ADD PUSH1 0x0 KECCAK256 PUSH1 0x0 SWAP1 SLOAD SWAP1 PUSH2 0x100 EXP SWAP1 DIV PUSH20 0xFFFFFFFFFFFFFFFFFFFFFFFFFFFFFFFFFFFFFFFF AND PUSH20 0xFFFFFFFFFFFFFFFFFFFFFFFFFFFFFFFFFFFFFFFF AND EQ PUSH2 0xAD2 JUMPI PUSH1 0x0 DUP1 REVERT JUMPDEST DUP2 PUSH1 0x1 DUP5 DUP2 SLOAD DUP2 LT PUSH2 0xAE7 JUMPI PUSH2 0xAE6 PUSH2 0x16FA JUMP JUMPDEST JUMPDEST SWAP1 PUSH1 0x0 MSTORE PUSH1 0x20 PUSH1 0x0 KECCAK256 SWAP1 PUSH1 0x3 MUL ADD PUSH1 0x1 ADD DUP2 SWAP1 SSTORE POP POP POP POP JUMP JUMPDEST PUSH1 0x0 DUP2 DUP4 PUSH2 0xB0F SWAP2 SWAP1 PUSH2 0x14B4 JUMP JUMPDEST SWAP1 POP SWAP3 SWAP2 POP POP JUMP JUMPDEST PUSH1 0x3 PUSH1 0x0 DUP4 PUSH20 0xFFFFFFFFFFFFFFFFFFFFFFFFFFFFFFFFFFFFFFFF AND PUSH20 0xFFFFFFFFFFFFFFFFFFFFFFFFFFFFFFFFFFFFFFFF AND DUP2 MSTORE PUSH1 0x20 ADD SWAP1 DUP2 MSTORE PUSH1 0x20 ADD PUSH1 0x0 KECCAK256 PUSH1 0x0 DUP2 SLOAD DUP1 SWAP3 SWAP2 SWAP1 PUSH2 0xB67 SWAP1 PUSH2 0x1653 JUMP JUMPDEST SWAP2 SWAP1 POP SSTORE POP PUSH1 0x3 PUSH1 0x0 DUP5 PUSH20 0xFFFFFFFFFFFFFFFFFFFFFFFFFFFFFFFFFFFFFFFF AND PUSH20 0xFFFFFFFFFFFFFFFFFFFFFFFFFFFFFFFFFFFFFFFF AND DUP2 MSTORE PUSH1 0x20 ADD SWAP1 DUP2 MSTORE PUSH1 0x20 ADD PUSH1 0x0 KECCAK256 PUSH1 0x0 DUP2 SLOAD DUP1 SWAP3 SWAP2 SWAP1 PUSH2 0xBBC SWAP1 PUSH2 0x15C6 JUMP JUMPDEST SWAP2 SWAP1 POP SSTORE POP DUP2 PUSH1 0x2 PUSH1 0x0 DUP4 DUP2 MSTORE PUSH1 0x20 ADD SWAP1 DUP2 MSTORE PUSH1 0x20 ADD PUSH1 0x0 KECCAK256 PUSH1 0x0 PUSH2 0x100 EXP DUP2 SLOAD DUP2 PUSH20 0xFFFFFFFFFFFFFFFFFFFFFFFFFFFFFFFFFFFFFFFF MUL NOT AND SWAP1 DUP4 PUSH20 0xFFFFFFFFFFFFFFFFFFFFFFFFFFFFFFFFFFFFFFFF AND MUL OR SWAP1 SSTORE POP DUP1 DUP3 PUSH20 0xFFFFFFFFFFFFFFFFFFFFFFFFFFFFFFFFFFFFFFFF AND DUP5 PUSH20 0xFFFFFFFFFFFFFFFFFFFFFFFFFFFFFFFFFFFFFFFF AND PUSH32 0xDDF252AD1BE2C89B69C2B068FC378DAA952BA7F163C4A11628F55A4DF523B3EF PUSH1 0x40 MLOAD PUSH1 0x40 MLOAD DUP1 SWAP2 SUB SWAP1 LOG4 POP POP POP JUMP JUMPDEST PUSH1 0x0 CALLER SWAP1 POP SWAP1 JUMP JUMPDEST PUSH1 0x0 DUP1 PUSH1 0x0 SWAP1 SLOAD SWAP1 PUSH2 0x100 EXP SWAP1 DIV PUSH20 0xFFFFFFFFFFFFFFFFFFFFFFFFFFFFFFFFFFFFFFFF AND SWAP1 POP DUP2 PUSH1 0x0 DUP1 PUSH2 0x100 EXP DUP2 SLOAD DUP2 PUSH20 0xFFFFFFFFFFFFFFFFFFFFFFFFFFFFFFFFFFFFFFFF MUL NOT AND SWAP1 DUP4 PUSH20 0xFFFFFFFFFFFFFFFFFFFFFFFFFFFFFFFFFFFFFFFF AND MUL OR SWAP1 SSTORE POP DUP2 PUSH20 0xFFFFFFFFFFFFFFFFFFFFFFFFFFFFFFFFFFFFFFFF AND DUP2 PUSH20 0xFFFFFFFFFFFFFFFFFFFFFFFFFFFFFFFFFFFFFFFF AND PUSH32 0x8BE0079C531659141344CD1FD0A4F28419497F9722A3DAAFE3B4186F6B6457E0 PUSH1 0x40 MLOAD PUSH1 0x40 MLOAD DUP1 SWAP2 SUB SWAP1 LOG3 POP POP JUMP JUMPDEST PUSH1 0x0 DUP2 DUP4 PUSH2 0xD4D SWAP2 SWAP1 PUSH2 0x150A JUMP JUMPDEST SWAP1 POP SWAP3 SWAP2 POP POP JUMP JUMPDEST DUP3 DUP1 SLOAD PUSH2 0xD61 SWAP1 PUSH2 0x15F0 JUMP JUMPDEST SWAP1 PUSH1 0x0 MSTORE PUSH1 0x20 PUSH1 0x0 KECCAK256 SWAP1 PUSH1 0x1F ADD PUSH1 0x20 SWAP1 DIV DUP2 ADD SWAP3 DUP3 PUSH2 0xD83 JUMPI PUSH1 0x0 DUP6 SSTORE PUSH2 0xDCA JUMP JUMPDEST DUP3 PUSH1 0x1F LT PUSH2 0xD9C JUMPI DUP1 MLOAD PUSH1 0xFF NOT AND DUP4 DUP1 ADD OR DUP6 SSTORE PUSH2 0xDCA JUMP JUMPDEST DUP3 DUP1 ADD PUSH1 0x1 ADD DUP6 SSTORE DUP3 ISZERO PUSH2 0xDCA JUMPI SWAP2 DUP3 ADD JUMPDEST DUP3 DUP2 GT ISZERO PUSH2 0xDC9 JUMPI DUP3 MLOAD DUP3 SSTORE SWAP2 PUSH1 0x20 ADD SWAP2 SWAP1 PUSH1 0x1 ADD SWAP1 PUSH2 0xDAE JUMP JUMPDEST JUMPDEST POP SWAP1 POP PUSH2 0xDD7 SWAP2 SWAP1 PUSH2 0xE28 JUMP JUMPDEST POP SWAP1 JUMP JUMPDEST DUP3 DUP1 SLOAD DUP3 DUP3 SSTORE SWAP1 PUSH1 0x0 MSTORE PUSH1 0x20 PUSH1 0x0 KECCAK256 SWAP1 DUP2 ADD SWAP3 DUP3 ISZERO PUSH2 0xE17 JUMPI SWAP2 PUSH1 0x20 MUL DUP3 ADD JUMPDEST DUP3 DUP2 GT ISZERO PUSH2 0xE16 JUMPI DUP3 MLOAD DUP3 SSTORE SWAP2 PUSH1 0x20 ADD SWAP2 SWAP1 PUSH1 0x1 ADD SWAP1 PUSH2 0xDFB JUMP JUMPDEST JUMPDEST POP SWAP1 POP PUSH2 0xE24 SWAP2 SWAP1 PUSH2 0xE45 JUMP JUMPDEST POP SWAP1 JUMP JUMPDEST JUMPDEST DUP1 DUP3 GT ISZERO PUSH2 0xE41 JUMPI PUSH1 0x0 DUP2 PUSH1 0x0 SWAP1 SSTORE POP PUSH1 0x1 ADD PUSH2 0xE29 JUMP JUMPDEST POP SWAP1 JUMP JUMPDEST JUMPDEST DUP1 DUP3 GT ISZERO PUSH2 0xE5E JUMPI PUSH1 0x0 DUP2 PUSH1 0x0 SWAP1 SSTORE POP PUSH1 0x1 ADD PUSH2 0xE46 JUMP JUMPDEST POP SWAP1 JUMP JUMPDEST PUSH1 0x0 PUSH2 0xE75 PUSH2 0xE70 DUP5 PUSH2 0x1402 JUMP JUMPDEST PUSH2 0x13DD JUMP JUMPDEST SWAP1 POP DUP1 DUP4 DUP3 MSTORE PUSH1 0x20 DUP3 ADD SWAP1 POP DUP3 DUP6 PUSH1 0x20 DUP7 MUL DUP3 ADD GT ISZERO PUSH2 0xE98 JUMPI PUSH2 0xE97 PUSH2 0x175D JUMP JUMPDEST JUMPDEST PUSH1 0x0 JUMPDEST DUP6 DUP2 LT ISZERO PUSH2 0xEC8 JUMPI DUP2 PUSH2 0xEAE DUP9 DUP3 PUSH2 0xF57 JUMP JUMPDEST DUP5 MSTORE PUSH1 0x20 DUP5 ADD SWAP4 POP PUSH1 0x20 DUP4 ADD SWAP3 POP POP PUSH1 0x1 DUP2 ADD SWAP1 POP PUSH2 0xE9B JUMP JUMPDEST POP POP POP SWAP4 SWAP3 POP POP POP JUMP JUMPDEST PUSH1 0x0 PUSH2 0xEE5 PUSH2 0xEE0 DUP5 PUSH2 0x142E JUMP JUMPDEST PUSH2 0x13DD JUMP JUMPDEST SWAP1 POP DUP3 DUP2 MSTORE PUSH1 0x20 DUP2 ADD DUP5 DUP5 DUP5 ADD GT ISZERO PUSH2 0xF01 JUMPI PUSH2 0xF00 PUSH2 0x1762 JUMP JUMPDEST JUMPDEST PUSH2 0xF0C DUP5 DUP3 DUP6 PUSH2 0x1584 JUMP JUMPDEST POP SWAP4 SWAP3 POP POP POP JUMP JUMPDEST PUSH1 0x0 DUP2 CALLDATALOAD SWAP1 POP PUSH2 0xF23 DUP2 PUSH2 0x17FA JUMP JUMPDEST SWAP3 SWAP2 POP POP JUMP JUMPDEST PUSH1 0x0 DUP3 PUSH1 0x1F DUP4 ADD SLT PUSH2 0xF3E JUMPI PUSH2 0xF3D PUSH2 0x1758 JUMP JUMPDEST JUMPDEST DUP2 CALLDATALOAD PUSH2 0xF4E DUP5 DUP3 PUSH1 0x20 DUP7 ADD PUSH2 0xE62 JUMP JUMPDEST SWAP2 POP POP SWAP3 SWAP2 POP POP JUMP JUMPDEST PUSH1 0x0 DUP2 CALLDATALOAD SWAP1 POP PUSH2 0xF66 DUP2 PUSH2 0x1811 JUMP JUMPDEST SWAP3 SWAP2 POP POP JUMP JUMPDEST PUSH1 0x0 DUP3 PUSH1 0x1F DUP4 ADD SLT PUSH2 0xF81 JUMPI PUSH2 0xF80 PUSH2 0x1758 JUMP JUMPDEST JUMPDEST DUP2 CALLDATALOAD PUSH2 0xF91 DUP5 DUP3 PUSH1 0x20 DUP7 ADD PUSH2 0xED2 JUMP JUMPDEST SWAP2 POP POP SWAP3 SWAP2 POP POP JUMP JUMPDEST PUSH1 0x0 DUP2 CALLDATALOAD SWAP1 POP PUSH2 0xFA9 DUP2 PUSH2 0x1828 JUMP JUMPDEST SWAP3 SWAP2 POP POP JUMP JUMPDEST PUSH1 0x0 PUSH1 0x20 DUP3 DUP5 SUB SLT ISZERO PUSH2 0xFC5 JUMPI PUSH2 0xFC4 PUSH2 0x176C JUMP JUMPDEST JUMPDEST PUSH1 0x0 PUSH2 0xFD3 DUP5 DUP3 DUP6 ADD PUSH2 0xF14 JUMP JUMPDEST SWAP2 POP POP SWAP3 SWAP2 POP POP JUMP JUMPDEST PUSH1 0x0 DUP1 PUSH1 0x0 PUSH1 0x60 DUP5 DUP7 SUB SLT ISZERO PUSH2 0xFF5 JUMPI PUSH2 0xFF4 PUSH2 0x176C JUMP JUMPDEST JUMPDEST PUSH1 0x0 PUSH2 0x1003 DUP7 DUP3 DUP8 ADD PUSH2 0xF14 JUMP JUMPDEST SWAP4 POP POP PUSH1 0x20 PUSH2 0x1014 DUP7 DUP3 DUP8 ADD PUSH2 0xF14 JUMP JUMPDEST SWAP3 POP POP PUSH1 0x40 PUSH2 0x1025 DUP7 DUP3 DUP8 ADD PUSH2 0xF9A JUMP JUMPDEST SWAP2 POP POP SWAP3 POP SWAP3 POP SWAP3 JUMP JUMPDEST PUSH1 0x0 DUP1 PUSH1 0x40 DUP4 DUP6 SUB SLT ISZERO PUSH2 0x1046 JUMPI PUSH2 0x1045 PUSH2 0x176C JUMP JUMPDEST JUMPDEST PUSH1 0x0 PUSH2 0x1054 DUP6 DUP3 DUP7 ADD PUSH2 0xF14 JUMP JUMPDEST SWAP3 POP POP PUSH1 0x20 PUSH2 0x1065 DUP6 DUP3 DUP7 ADD PUSH2 0xF9A JUMP JUMPDEST SWAP2 POP POP SWAP3 POP SWAP3 SWAP1 POP JUMP JUMPDEST PUSH1 0x0 DUP1 PUSH1 0x0 PUSH1 0x60 DUP5 DUP7 SUB SLT ISZERO PUSH2 0x1088 JUMPI PUSH2 0x1087 PUSH2 0x176C JUMP JUMPDEST JUMPDEST PUSH1 0x0 DUP5 ADD CALLDATALOAD PUSH8 0xFFFFFFFFFFFFFFFF DUP2 GT ISZERO PUSH2 0x10A6 JUMPI PUSH2 0x10A5 PUSH2 0x1767 JUMP JUMPDEST JUMPDEST PUSH2 0x10B2 DUP7 DUP3 DUP8 ADD PUSH2 0xF6C JUMP JUMPDEST SWAP4 POP POP PUSH1 0x20 PUSH2 0x10C3 DUP7 DUP3 DUP8 ADD PUSH2 0xF9A JUMP JUMPDEST SWAP3 POP POP PUSH1 0x40 DUP5 ADD CALLDATALOAD PUSH8 0xFFFFFFFFFFFFFFFF DUP2 GT ISZERO PUSH2 0x10E4 JUMPI PUSH2 0x10E3 PUSH2 0x1767 JUMP JUMPDEST JUMPDEST PUSH2 0x10F0 DUP7 DUP3 DUP8 ADD PUSH2 0xF29 JUMP JUMPDEST SWAP2 POP POP SWAP3 POP SWAP3 POP SWAP3 JUMP JUMPDEST PUSH1 0x0 PUSH1 0x20 DUP3 DUP5 SUB SLT ISZERO PUSH2 0x1110 JUMPI PUSH2 0x110F PUSH2 0x176C JUMP JUMPDEST JUMPDEST PUSH1 0x0 PUSH2 0x111E DUP5 DUP3 DUP6 ADD PUSH2 0xF9A JUMP JUMPDEST SWAP2 POP POP SWAP3 SWAP2 POP POP JUMP JUMPDEST PUSH1 0x0 DUP1 PUSH1 0x40 DUP4 DUP6 SUB SLT ISZERO PUSH2 0x113E JUMPI PUSH2 0x113D PUSH2 0x176C JUMP JUMPDEST JUMPDEST PUSH1 0x0 PUSH2 0x114C DUP6 DUP3 DUP7 ADD PUSH2 0xF9A JUMP JUMPDEST SWAP3 POP POP PUSH1 0x20 DUP4 ADD CALLDATALOAD PUSH8 0xFFFFFFFFFFFFFFFF DUP2 GT ISZERO PUSH2 0x116D JUMPI PUSH2 0x116C PUSH2 0x1767 JUMP JUMPDEST JUMPDEST PUSH2 0x1179 DUP6 DUP3 DUP7 ADD PUSH2 0xF6C JUMP JUMPDEST SWAP2 POP POP SWAP3 POP SWAP3 SWAP1 POP JUMP JUMPDEST PUSH1 0x0 DUP1 PUSH1 0x40 DUP4 DUP6 SUB SLT ISZERO PUSH2 0x119A JUMPI PUSH2 0x1199 PUSH2 0x176C JUMP JUMPDEST JUMPDEST PUSH1 0x0 PUSH2 0x11A8 DUP6 DUP3 DUP7 ADD PUSH2 0xF9A JUMP JUMPDEST SWAP3 POP POP PUSH1 0x20 PUSH2 0x11B9 DUP6 DUP3 DUP7 ADD PUSH2 0xF9A JUMP JUMPDEST SWAP2 POP POP SWAP3 POP SWAP3 SWAP1 POP JUMP JUMPDEST PUSH1 0x0 PUSH2 0x11CF DUP4 DUP4 PUSH2 0x12C7 JUMP JUMPDEST PUSH1 0x20 DUP4 ADD SWAP1 POP SWAP3 SWAP2 POP POP JUMP JUMPDEST PUSH2 0x11E4 DUP2 PUSH2 0x153E JUMP JUMPDEST DUP3 MSTORE POP POP JUMP JUMPDEST PUSH1 0x0 PUSH2 0x11F5 DUP3 PUSH2 0x146F JUMP JUMPDEST PUSH2 0x11FF DUP2 DUP6 PUSH2 0x1492 JUMP JUMPDEST SWAP4 POP PUSH2 0x120A DUP4 PUSH2 0x145F JUMP JUMPDEST DUP1 PUSH1 0x0 JUMPDEST DUP4 DUP2 LT ISZERO PUSH2 0x123B JUMPI DUP2 MLOAD PUSH2 0x1222 DUP9 DUP3 PUSH2 0x11C3 JUMP JUMPDEST SWAP8 POP PUSH2 0x122D DUP4 PUSH2 0x1485 JUMP JUMPDEST SWAP3 POP POP PUSH1 0x1 DUP2 ADD SWAP1 POP PUSH2 0x120E JUMP JUMPDEST POP DUP6 SWAP4 POP POP POP POP SWAP3 SWAP2 POP POP JUMP JUMPDEST PUSH1 0x0 PUSH2 0x1253 DUP3 PUSH2 0x147A JUMP JUMPDEST PUSH2 0x125D DUP2 DUP6 PUSH2 0x14A3 JUMP JUMPDEST SWAP4 POP PUSH2 0x126D DUP2 DUP6 PUSH1 0x20 DUP7 ADD PUSH2 0x1593 JUMP JUMPDEST PUSH2 0x1276 DUP2 PUSH2 0x1771 JUMP JUMPDEST DUP5 ADD SWAP2 POP POP SWAP3 SWAP2 POP POP JUMP JUMPDEST PUSH1 0x0 PUSH2 0x128E PUSH1 0x26 DUP4 PUSH2 0x14A3 JUMP JUMPDEST SWAP2 POP PUSH2 0x1299 DUP3 PUSH2 0x1782 JUMP JUMPDEST PUSH1 0x40 DUP3 ADD SWAP1 POP SWAP2 SWAP1 POP JUMP JUMPDEST PUSH1 0x0 PUSH2 0x12B1 PUSH1 0x20 DUP4 PUSH2 0x14A3 JUMP JUMPDEST SWAP2 POP PUSH2 0x12BC DUP3 PUSH2 0x17D1 JUMP JUMPDEST PUSH1 0x20 DUP3 ADD SWAP1 POP SWAP2 SWAP1 POP JUMP JUMPDEST PUSH2 0x12D0 DUP2 PUSH2 0x157A JUMP JUMPDEST DUP3 MSTORE POP POP JUMP JUMPDEST PUSH2 0x12DF DUP2 PUSH2 0x157A JUMP JUMPDEST DUP3 MSTORE POP POP JUMP JUMPDEST PUSH1 0x0 PUSH1 0x20 DUP3 ADD SWAP1 POP PUSH2 0x12FA PUSH1 0x0 DUP4 ADD DUP5 PUSH2 0x11DB JUMP JUMPDEST SWAP3 SWAP2 POP POP JUMP JUMPDEST PUSH1 0x0 PUSH1 0x20 DUP3 ADD SWAP1 POP DUP2 DUP2 SUB PUSH1 0x0 DUP4 ADD MSTORE PUSH2 0x131A DUP2 DUP5 PUSH2 0x11EA JUMP JUMPDEST SWAP1 POP SWAP3 SWAP2 POP POP JUMP JUMPDEST PUSH1 0x0 PUSH1 0x40 DUP3 ADD SWAP1 POP DUP2 DUP2 SUB PUSH1 0x0 DUP4 ADD MSTORE PUSH2 0x133C DUP2 DUP6 PUSH2 0x1248 JUMP JUMPDEST SWAP1 POP PUSH2 0x134B PUSH1 0x20 DUP4 ADD DUP5 PUSH2 0x12D6 JUMP JUMPDEST SWAP4 SWAP3 POP POP POP JUMP JUMPDEST PUSH1 0x0 PUSH1 0x20 DUP3 ADD SWAP1 POP DUP2 DUP2 SUB PUSH1 0x0 DUP4 ADD MSTORE PUSH2 0x136B DUP2 PUSH2 0x1281 JUMP JUMPDEST SWAP1 POP SWAP2 SWAP1 POP JUMP JUMPDEST PUSH1 0x0 PUSH1 0x20 DUP3 ADD SWAP1 POP DUP2 DUP2 SUB PUSH1 0x0 DUP4 ADD MSTORE PUSH2 0x138B DUP2 PUSH2 0x12A4 JUMP JUMPDEST SWAP1 POP SWAP2 SWAP1 POP JUMP JUMPDEST PUSH1 0x0 PUSH1 0x20 DUP3 ADD SWAP1 POP PUSH2 0x13A7 PUSH1 0x0 DUP4 ADD DUP5 PUSH2 0x12D6 JUMP JUMPDEST SWAP3 SWAP2 POP POP JUMP JUMPDEST PUSH1 0x0 PUSH1 0x40 DUP3 ADD SWAP1 POP PUSH2 0x13C2 PUSH1 0x0 DUP4 ADD DUP6 PUSH2 0x12D6 JUMP JUMPDEST DUP2 DUP2 SUB PUSH1 0x20 DUP4 ADD MSTORE PUSH2 0x13D4 DUP2 DUP5 PUSH2 0x1248 JUMP JUMPDEST SWAP1 POP SWAP4 SWAP3 POP POP POP JUMP JUMPDEST PUSH1 0x0 PUSH2 0x13E7 PUSH2 0x13F8 JUMP JUMPDEST SWAP1 POP PUSH2 0x13F3 DUP3 DUP3 PUSH2 0x1622 JUMP JUMPDEST SWAP2 SWAP1 POP JUMP JUMPDEST PUSH1 0x0 PUSH1 0x40 MLOAD SWAP1 POP SWAP1 JUMP JUMPDEST PUSH1 0x0 PUSH8 0xFFFFFFFFFFFFFFFF DUP3 GT ISZERO PUSH2 0x141D JUMPI PUSH2 0x141C PUSH2 0x1729 JUMP JUMPDEST JUMPDEST PUSH1 0x20 DUP3 MUL SWAP1 POP PUSH1 0x20 DUP2 ADD SWAP1 POP SWAP2 SWAP1 POP JUMP JUMPDEST PUSH1 0x0 PUSH8 0xFFFFFFFFFFFFFFFF DUP3 GT ISZERO PUSH2 0x1449 JUMPI PUSH2 0x1448 PUSH2 0x1729 JUMP JUMPDEST JUMPDEST PUSH2 0x1452 DUP3 PUSH2 0x1771 JUMP JUMPDEST SWAP1 POP PUSH1 0x20 DUP2 ADD SWAP1 POP SWAP2 SWAP1 POP JUMP JUMPDEST PUSH1 0x0 DUP2 SWAP1 POP PUSH1 0x20 DUP3 ADD SWAP1 POP SWAP2 SWAP1 POP JUMP JUMPDEST PUSH1 0x0 DUP2 MLOAD SWAP1 POP SWAP2 SWAP1 POP JUMP JUMPDEST PUSH1 0x0 DUP2 MLOAD SWAP1 POP SWAP2 SWAP1 POP JUMP JUMPDEST PUSH1 0x0 PUSH1 0x20 DUP3 ADD SWAP1 POP SWAP2 SWAP1 POP JUMP JUMPDEST PUSH1 0x0 DUP3 DUP3 MSTORE PUSH1 0x20 DUP3 ADD SWAP1 POP SWAP3 SWAP2 POP POP JUMP JUMPDEST PUSH1 0x0 DUP3 DUP3 MSTORE PUSH1 0x20 DUP3 ADD SWAP1 POP SWAP3 SWAP2 POP POP JUMP JUMPDEST PUSH1 0x0 PUSH2 0x14BF DUP3 PUSH2 0x157A JUMP JUMPDEST SWAP2 POP PUSH2 0x14CA DUP4 PUSH2 0x157A JUMP JUMPDEST SWAP3 POP DUP3 PUSH32 0xFFFFFFFFFFFFFFFFFFFFFFFFFFFFFFFFFFFFFFFFFFFFFFFFFFFFFFFFFFFFFFFF SUB DUP3 GT ISZERO PUSH2 0x14FF JUMPI PUSH2 0x14FE PUSH2 0x169C JUMP JUMPDEST JUMPDEST DUP3 DUP3 ADD SWAP1 POP SWAP3 SWAP2 POP POP JUMP JUMPDEST PUSH1 0x0 PUSH2 0x1515 DUP3 PUSH2 0x157A JUMP JUMPDEST SWAP2 POP PUSH2 0x1520 DUP4 PUSH2 0x157A JUMP JUMPDEST SWAP3 POP DUP3 DUP3 LT ISZERO PUSH2 0x1533 JUMPI PUSH2 0x1532 PUSH2 0x169C JUMP JUMPDEST JUMPDEST DUP3 DUP3 SUB SWAP1 POP SWAP3 SWAP2 POP POP JUMP JUMPDEST PUSH1 0x0 PUSH2 0x1549 DUP3 PUSH2 0x155A JUMP JUMPDEST SWAP1 POP SWAP2 SWAP1 POP JUMP JUMPDEST PUSH1 0x0 DUP2 SWAP1 POP SWAP2 SWAP1 POP JUMP JUMPDEST PUSH1 0x0 PUSH20 0xFFFFFFFFFFFFFFFFFFFFFFFFFFFFFFFFFFFFFFFF DUP3 AND SWAP1 POP SWAP2 SWAP1 POP JUMP JUMPDEST PUSH1 0x0 DUP2 SWAP1 POP SWAP2 SWAP1 POP JUMP JUMPDEST DUP3 DUP2 DUP4 CALLDATACOPY PUSH1 0x0 DUP4 DUP4 ADD MSTORE POP POP POP JUMP JUMPDEST PUSH1 0x0 JUMPDEST DUP4 DUP2 LT ISZERO PUSH2 0x15B1 JUMPI DUP1 DUP3 ADD MLOAD DUP2 DUP5 ADD MSTORE PUSH1 0x20 DUP2 ADD SWAP1 POP PUSH2 0x1596 JUMP JUMPDEST DUP4 DUP2 GT ISZERO PUSH2 0x15C0 JUMPI PUSH1 0x0 DUP5 DUP5 ADD MSTORE JUMPDEST POP POP POP POP JUMP JUMPDEST PUSH1 0x0 PUSH2 0x15D1 DUP3 PUSH2 0x157A JUMP JUMPDEST SWAP2 POP PUSH1 0x0 DUP3 EQ ISZERO PUSH2 0x15E5 JUMPI PUSH2 0x15E4 PUSH2 0x169C JUMP JUMPDEST JUMPDEST PUSH1 0x1 DUP3 SUB SWAP1 POP SWAP2 SWAP1 POP JUMP JUMPDEST PUSH1 0x0 PUSH1 0x2 DUP3 DIV SWAP1 POP PUSH1 0x1 DUP3 AND DUP1 PUSH2 0x1608 JUMPI PUSH1 0x7F DUP3 AND SWAP2 POP JUMPDEST PUSH1 0x20 DUP3 LT DUP2 EQ ISZERO PUSH2 0x161C JUMPI PUSH2 0x161B PUSH2 0x16CB JUMP JUMPDEST JUMPDEST POP SWAP2 SWAP1 POP JUMP JUMPDEST PUSH2 0x162B DUP3 PUSH2 0x1771 JUMP JUMPDEST DUP2 ADD DUP2 DUP2 LT PUSH8 0xFFFFFFFFFFFFFFFF DUP3 GT OR ISZERO PUSH2 0x164A JUMPI PUSH2 0x1649 PUSH2 0x1729 JUMP JUMPDEST JUMPDEST DUP1 PUSH1 0x40 MSTORE POP POP POP JUMP JUMPDEST PUSH1 0x0 PUSH2 0x165E DUP3 PUSH2 0x157A JUMP JUMPDEST SWAP2 POP PUSH32 0xFFFFFFFFFFFFFFFFFFFFFFFFFFFFFFFFFFFFFFFFFFFFFFFFFFFFFFFFFFFFFFFF DUP3 EQ ISZERO PUSH2 0x1691 JUMPI PUSH2 0x1690 PUSH2 0x169C JUMP JUMPDEST JUMPDEST PUSH1 0x1 DUP3 ADD SWAP1 POP SWAP2 SWAP1 POP JUMP JUMPDEST PUSH32 0x4E487B7100000000000000000000000000000000000000000000000000000000 PUSH1 0x0 MSTORE PUSH1 0x11 PUSH1 0x4 MSTORE PUSH1 0x24 PUSH1 0x0 REVERT JUMPDEST PUSH32 0x4E487B7100000000000000000000000000000000000000000000000000000000 PUSH1 0x0 MSTORE PUSH1 0x22 PUSH1 0x4 MSTORE PUSH1 0x24 PUSH1 0x0 REVERT JUMPDEST PUSH32 0x4E487B7100000000000000000000000000000000000000000000000000000000 PUSH1 0x0 MSTORE PUSH1 0x32 PUSH1 0x4 MSTORE PUSH1 0x24 PUSH1 0x0 REVERT JUMPDEST PUSH32 0x4E487B7100000000000000000000000000000000000000000000000000000000 PUSH1 0x0 MSTORE PUSH1 0x41 PUSH1 0x4 MSTORE PUSH1 0x24 PUSH1 0x0 REVERT JUMPDEST PUSH1 0x0 DUP1 REVERT JUMPDEST PUSH1 0x0 DUP1 REVERT JUMPDEST PUSH1 0x0 DUP1 REVERT JUMPDEST PUSH1 0x0 DUP1 REVERT JUMPDEST PUSH1 0x0 DUP1 REVERT JUMPDEST PUSH1 0x0 PUSH1 0x1F NOT PUSH1 0x1F DUP4 ADD AND SWAP1 POP SWAP2 SWAP1 POP JUMP JUMPDEST PUSH32 0x4F776E61626C653A206E6577206F776E657220697320746865207A65726F2061 PUSH1 0x0 DUP3 ADD MSTORE PUSH32 0x6464726573730000000000000000000000000000000000000000000000000000 PUSH1 0x20 DUP3 ADD MSTORE POP JUMP JUMPDEST PUSH32 0x4F776E61626C653A2063616C6C6572206973206E6F7420746865206F776E6572 PUSH1 0x0 DUP3 ADD MSTORE POP JUMP JUMPDEST PUSH2 0x1803 DUP2 PUSH2 0x153E JUMP JUMPDEST DUP2 EQ PUSH2 0x180E JUMPI PUSH1 0x0 DUP1 REVERT JUMPDEST POP JUMP JUMPDEST PUSH2 0x181A DUP2 PUSH2 0x1550 JUMP JUMPDEST DUP2 EQ PUSH2 0x1825 JUMPI PUSH1 0x0 DUP1 REVERT JUMPDEST POP JUMP JUMPDEST PUSH2 0x1831 DUP2 PUSH2 0x157A JUMP JUMPDEST DUP2 EQ PUSH2 0x183C JUMPI PUSH1 0x0 DUP1 REVERT JUMPDEST POP JUMP INVALID LOG2 PUSH5 0x6970667358 0x22 SLT KECCAK256 DUP5 0xD9 CREATE2 0x29 0x2F SWAP1 DUP13 DUP13 CALLDATACOPY PUSH3 0x2E8A15 0xD6 0xE9 0xB9 PUSH5 0xF42645C5CE SHL 0xD7 0xCD 0xF9 SWAP7 0xD5 DUP13 0xEE RETURN PUSH19 0x64736F6C634300080700330000000000000000 "
				},
				"gasEstimates": {
					"creation": {
						"codeDepositCost": "1252200",
						"executionCost": "infinite",
						"totalCost": "infinite"
					},
					"external": {
						"approve(address,uint256)": "627",
						"artworks(uint256)": "infinite",
						"balanceOf(address)": "2952",
						"changeNameArtwork(uint256,string)": "infinite",
						"changeNamePrice(uint256,uint256)": "infinite",
						"createArtwork(string,uint256,bytes32[])": "infinite",
						"listArtworksByOwner(address)": "infinite",
						"owner()": "2544",
						"ownerOf(uint256)": "2954",
						"renounceOwnership()": "30374",
						"transferFrom(address,address,uint256)": "infinite",
						"transferOwnership(address)": "30811"
					},
					"internal": {
						"_transfer(address,address,uint256)": "infinite"
					}
				},
				"methodIdentifiers": {
					"approve(address,uint256)": "095ea7b3",
					"artworks(uint256)": "4b602673",
					"balanceOf(address)": "70a08231",
					"changeNameArtwork(uint256,string)": "acf37886",
					"changeNamePrice(uint256,uint256)": "f70ff880",
					"createArtwork(string,uint256,bytes32[])": "970ad328",
					"listArtworksByOwner(address)": "005e9046",
					"owner()": "8da5cb5b",
					"ownerOf(uint256)": "6352211e",
					"renounceOwnership()": "715018a6",
					"transferFrom(address,address,uint256)": "23b872dd",
					"transferOwnership(address)": "f2fde38b"
				}
			},
			"userdoc": {
				"kind": "user",
				"methods": {},
				"version": 1
			}
		}
	}
}